:020000040800F2
:10000000A84E0020C1010008E90A0008E10A000822
:10001000E50A0008F10200082515000800000000AC
:10002000000000000000000000000000610B00085C
:100030000D03000800000000F10A0008950B0008FD
:10004000DB010008DB010008DB010008DB01000820
:10005000DB010008DB010008DB010008DB01000810
:10006000DB0100081103000825030008DB0100087C
:10007000DB010008DB010008DB010008DB010008F0
:10008000DB010008DB010008DB010008DB010008E0
:10009000DB010008DB010008DB010008DB010008D0
:1000A000DB010008DB010008DB010008DB010008C0
:1000B000DB010008DB010008DB010008DB010008B0
:1000C000DB010008DB010008DB010008DB010008A0
:1000D000DB010008DB010008DB010008DB01000890
:1000E000DB010008DB010008DB010008DB01000880
:1000F000DB010008DB010008DB010008DB01000870
:10010000DB010008DB010008DB010008DB0100085F
:10011000DB010008DB010008DB010008DB0100084F
:10012000DB010008F5020008DB010008DB01000824
:10013000DB010008DB010008DB010008DB0100082F
:10014000DB010008DB010008DB010008DB0100081F
:10015000DB01000801030008DB010008210F000893
:10016000DB010008DB010008DB010008DB010008FF
:10017000DB010008DB010008DB01000800000000D3
:10018000DB010008DB010008DB010008DB010008DF
:10019000DB010008DB010008DB010008DB010008CF
:1001A000DB010008DB010008DB010008DFF80CD0F0
:1001B00000F018F80048004729150008A84E002054
:1001C0000648804706480047FEE7FEE7FEE7FEE7F1
:1001D000FEE7FEE7FEE7FEE7FEE7FEE7ED0B0008C1
:1001E000AD010008064C074D06E0E06840F0010351
:1001F00094E8070098471034AC42F6D3FFF7DAFFD3
:10020000C8410008E84100082DE9F05F05460020DC
:1002100092469B4688460646814640241BE0284677
:1002200041464746224600F053F853465A46C01A04
:10023000914110D311461846224600F03AF82D1A83
:1002400067EB01084F4622460120002100F031F8FB
:1002500017EB00094E41201EA4F10104DFDC4846E3
:1002600031462A464346BDE8F09F40EA01039B071A
:1002700003D009E008C9121F08C0042AFAD203E01B
:1002800011F8013B00F8013B521EF9D27047D2B27F
:1002900001E000F8012B491EFBD270470022F6E76F
:1002A00010B513460A4604461946FFF7F0FF2046EC
:1002B00010BD202A04DB203A00FA02F1002070472A
:1002C0009140C2F1200320FA03F319439040704794
:1002D000202A04DB203A21FA02F00021704721FA9B
:1002E00002F3D040C2F12002914008431946704702
:1002F000FEE7000040F21400C2F2000000F01CB85B
:1003000040F27400C2F2000000F016B8704700001E
:1003100043F61440C4F201000168090744BF0821F4
:100320000160704743F61440C4F201000168C90639
:1003300044BF102101607047F0B581B00446002031
:10034000009040F20000C2F200000268D4E916609A
:1003500048F2B51337680821C1F64E33814039425F
:10036000A2FB03250CD0226813685B0708D513682D
:1003700023F004031360B160616D41F00101616518
:1003800001218140394208D022685269120604D501
:10039000B160616D41F00201616504218140394223
:1003A00008D022681268920704D5B160616D41F0EF
:1003B00004016165102101FA00F23A4216D0216869
:1003C0000B681B0712D5B2600B680A685B0306D482
:1003D000D20506D40A6822F008020A6001E011037F
:1003E00040D4216C11B120468847E06D202101FAEC
:1003F00000F23A4242D021680B68DB063ED5B2607B
:1004000094F835300A68052B1CD122F016020A60D8
:100410004A6922F080024A61226C0AB9A26C1AB1C0
:100420000A6822F008020A603F2101FA00F0B06079
:10043000012084F83500216D0020002984F8340063
:1004400052D156E00868520310D4C00512D408688F
:1004500020F010000860012084F83500002084F8A6
:10046000340007E0A16C0029BDD1BFE7000301D42F
:10047000616C00E0E16B09B120468847606DC0B354
:10048000606DC0072ED0052084F835002068A90AC9
:10049000026822F001020260009A01328A42009250
:1004A0001AD80268D20717D0009A01328A42009205
:1004B00012D80268D2070FD0009A01328A42009205
:1004C0000AD80268D20707D0009A01328A42009205
:1004D00002D80268D207DFD1012084F8350000205D
:1004E00084F83400E16C21B1204601B0BDE8F04051
:1004F000084701B0F0BD00002DE9F04144F2C821E9
:10050000C2F200010B6850B3022280F835200025AA
:10051000026880F83450156825F0010515601568EB
:10052000ED071FD00D68ED1A052D14D81568ED07DD
:1005300018D00D68ED1A052D0DD81568ED0711D0EE
:100540000D68ED1A052D06D81568ED070AD00D685F
:10055000ED1A052DE3D903232024032161E00120B6
:10056000BDE8F081116848F23F03CFF21003D0E9F3
:10057000015401EA030C00F10C0898E8C20145EAB5
:100580000C0525432943D0E9073E3143394319433C
:10059000456A41EA0E01042D41EA08031CD1016BB2
:1005A000D0E90A5E41EA0E01194311605169BEF1BA
:1005B000000F21F0030141EA050141F0040C11D0C4
:1005C000B8F5005F33D0B8F1000F40D1022D41D013
:1005D000012D36D035B93DE01360516921F0070196
:1005E00041EA050C02F0F8014AF6AB231039CAF6CD
:1005F000AA23A1FB03373B091AA7FB5C40F2FF3794
:100600005F294FF03F01C2F814C022EA070201FA45
:1006100003F188BF0432C0E916239160002401234E
:100620000021446580F835300846BDE8F081032D8F
:10063000D8D8012340240121DFE805F0020C020391
:10064000EFE7AEF1C071B1FA81F1490904E0032D81
:1006500004D3C7D1CEF300610029C3D001234024C5
:100660000121DEE700061016000610162DE9F04FF6
:1006700082B000F13E4242F2004502F1FF77C4F23F
:1006800002050A2243F6004E4FEAB726A84208BFE9
:100690000922C4F2010E092E38BF4FEAB722012504
:1006A000002600274FF00008009208E008F101083A
:1006B0000437B8F1100F06F1020600F0A6800C68AE
:1006C00005FA08F914EA090FF0D0D1F804B00322B2
:1006D0000BF0030CACF10104B240012C6FEA020AEA
:1006E00010D88268CC6802EA0A02B44022438260D1
:1006F0004268CBF3001422EA090204FA08F4224308
:10070000426005E0BCF1030F02D14FF0030C20E082
:10071000C2688C6802EA0A02B4402243BCF1020FAC
:10072000C26016D16FF0030202EA58020244D2F806
:1007300020C007F01C050F230C69AB402CEA030313
:1007400004FA05F52B431362D1F804B001250BF030
:10075000030C02680CFA06F302EA0A021A431BF4BD
:10076000403F0260A2D0002243F644030192C4F24B
:1007700002031A684FF6084C42F480421A601A6865
:10078000CFF6FF7C02F480420192019A28F0030226
:10079000724452F80C3007F00C050F24AC40A34310
:1007A000009C04FA05F52B4342F80C30DEF80820D3
:1007B0004B6842EA090543F60C4CDC0258BF22EABA
:1007C0000905CEF80850C4F2010CDCF800209C02A8
:1007D00042EA090558BF22EA0905CCF80050DEF8C4
:1007E00004209C0342EA090558BF22EA0905CEF815
:1007F0000450DEF80020DB0342EA090558BF22EA74
:100800000905CEF80050012550E702B0BDE8F08F91
:100810002DE9F04F87B000286BD0044690F83D00DA
:1008200043F6300641F20008C4F202060028C4F282
:10083000010800F09380242084F83D002568D4E965
:100840000212E069EB6823F40053EB602B6923F498
:1008500040531A432A61D4E904231143EA68194337
:1008600049F20C639A4311430143E9606969A26943
:1008700021F440711143696125F48061414540F2E2
:100880000001C2F200014FF00A02096856F8283C44
:1008900008BF0D2223FA02F202F007028EA39A5C2F
:1008A0004FF69C76D14019226368C0F6FF76B0F50A
:1008B000004FA1FB020120D15A00DB0FFFF7A4FC7F
:1008C00048F21F51C5F2EB11A0FB01235A0906F1B2
:1008D000805302FB0300322303EBC000A0FB0101A5
:1008E0004FF4F87000EA111000EB0210C1F342114E
:1008F0001CE0012007B0BDE8F08F9A009B0FFFF7C6
:1009000083FC48F21F51C5F2EB11A0FB01235A09E9
:1009100002FB0600322303EB0010A0FB0101F020D4
:1009200000EA511000EB0210C1F343110844A86023
:100930002869202120F490402861686920F02A006D
:100940006861E86840F40050E8600020206484F8A2
:100950003D1084F83E1007B0BDE8F08F206841F2EA
:100960000041C4F201010027884284F83C70CDE9BF
:100970000577CDE9037702972BD044F60001C4F246
:10098000000188427FF457AF00200190316941F4A3
:1009900080213161316901F4802101910199019037
:1009A000316841F008013160316801F008010191BE
:1009B00001994FF4407102910221CDE90310032007
:1009C00005900720069008F57C4002A9FFF74EFE2F
:1009D00031E70197706946F2284940F020007061C4
:1009E000706902A900F02000019001980197306819
:1009F000C4F2020940F004003060306800F00400E6
:100A000001900198C02002900220CDE90307032045
:100A100005900820069008F57840FFF727FE40F281
:100A20001405C2F200054FF0206B4FF4806A28468F
:100A3000C5E9009BC5E90277C5E904A7C5E90677C2
:100A4000C5E90877FFF758FD18B1EFF3108072B6CB
:100A5000FEE7A563AC6340F2740509F17800C2F2C9
:100A600000054021C5E9000B05F10800002780E8DA
:100A700082042846C5E90577C5E907776F62FFF765
:100A80003BFD20B1EFF3108072B600BFFEE74EF6DB
:100A90000C506563AC63CEF200000068C0F3022026
:100AA00080F00701042928BF0421033828BF074626
:100AB0004FF0FF308840052121EA0000B8404EF297
:100AC00047410001CEF2000108704EF20810CEF24C
:100AD000000080210160AEE6000000000102030476
:100AE000FEE70000FEE70000FEE700000000000057
:100AF000EFF30980BFF36F8F154B1A681EF0100FCC
:100B000008BF20ED108A20E9F04F10602DE90900A0
:100B10004FF0500080F31188BFF34F8FBFF36F8FFA
:100B200002F030FF4FF0000080F31188BDE80900AB
:100B300019680868B0E8F04F1EF0100F08BFB0EC5D
:100B4000108A80F30988BFF36F8F704700BF00BF22
:100B50005002002000000000000000000000000023
:100B6000074B19680868B0E8F04F80F30988BFF3B5
:100B70006F8F4FF0000080F31188704700BF00BFF7
:100B800050020020EFF305800028FBD1012002F085
:100B90009BFBF7E780B544F2C820C2F20000016871
:100BA0000131016044F66420C2F2000000680028B0
:100BB00008BF80BD44F2D820C2F2000000684FF0A8
:100BC000500080F31188BFF36F8FBFF34F8F03F096
:100BD00057F830B14EF60450CEF200004FF080517D
:100BE0000160002080F3118880BD00004EF688501F
:100BF000CEF20000016841F470010160704700000E
:100C0000806B0021C185C18470470000806B016842
:100C10004A6990F83D30212B2DD112F080022AD064
:100C20000021C184016851E8031F026821F0C0015E
:100C300042E80313DBB1016851E8031F026821F0A9
:100C4000C00142E8031393B1016851E8031F026831
:100C500021F0C00142E803134BB1016851E8031FC2
:100C6000026821F0C00142E80313002BDAD12021F1
:100C700080F83D100168496990F83E20222A40F032
:100C80007D8011F0400179D00021C185016851E8D3
:100C9000031F026821F4907142E80313BBB301689B
:100CA00051E8031F026821F4907142E8031373B303
:100CB000016851E8031F026821F4907142E80313B0
:100CC0002BB3016851E8031F026821F4907142E8D8
:100CD0000313002BDAD11AE0016851E8051F0268FE
:100CE00021F0010142E80513DBB1016851E8051F5D
:100CF000026821F0010142E8051393B1016851E84F
:100D0000051F026821F0010142E805134BB101689B
:100D100051E8051F026821F0010142E80513002B8C
:100D2000DAD1016B012924D1016851E8031F02685F
:100D300021F0100142E80313DBB1016851E8031F01
:100D4000026821F0100142E8031393B1016851E8F1
:100D5000031F026821F0100142E803134BB1016840
:100D600051E8031F026821F0100142E80313002B31
:100D7000DAD1202180F83E1000210163016C41F09E
:100D800010010164704700000168806B0968C905A3
:100D90004FD40021C18400BF016851E8051F0268DB
:100DA00021F0800142E8051383B3016851E8051F73
:100DB000026821F0800142E805133BB3016851E865
:100DC000051F026821F0800142E80513F3B10168B4
:100DD00051E8051F026821F0800142E80513002B4D
:100DE000DAD113E0016851E8031F026841F04001C5
:100DF00042E80313002B08BF7047016851E8031F46
:100E0000026841F0400142E8031393B1016851E8E0
:100E1000031F026841F0400142E803134BB101682F
:100E200051E8031F026841F0400142E80313002B20
:100E3000D8D170477047000081B040F21810C2F25C
:100E4000000090F83E10222921D18268B2F5805F1F
:100E500009D10269816A52B9026852686FF35F2250
:100E600021F8022B0DE00369816A1A4302D102685E
:100E7000526803E00268526802F07F020A70816AD9
:100E800001318162C18D01390A04C18501D001B0EF
:100E900070470168CA6822F02002CA60CA6822F45A
:100EA0008072CA604A6922F001024A61202180F8FA
:100EB0003E10016B0129EAD100210163016851E86C
:100EC000031F026821F0100142E80313DBB101683F
:100ED00051E8031F026821F0100142E8031393B1A7
:100EE000016851E8031F026821F0100142E8031372
:100EF0004BB1016851E8031F026821F0100142E87C
:100F00000313002BDAD100680168C906BFD50021A0
:100F100000910168009140680090009801B070470E
:100F2000B0B582B040F21815C2F200052868016819
:100F3000C368446901F02F02202A03F0200205D182
:100F400022B102B0BDE8B040FFF776BF5FEA017C96
:100F50001EBF04F0010E03F4907414EB0E0440F075
:100F6000C2802A6B012A05D111F0100218BF13F0BC
:100F7000100229D10A0618D513F0800215D095F871
:100F80003D10212940F0A982AA68296AB2F5805F44
:100F900040F09A822A69002A40F0968231F8022BAA
:100FA0006FF35F224260296292E2490640F1958226
:100FB00013F0400100F09182C16821F04001C1604E
:100FC000202085F83D0088E200210191016801910F
:100FD0004168019101994069400600F18E80A88D19
:100FE000E98DEA8D002A18BF884200F076822868D1
:100FF00050E8030F296820F4907041E80302BAB367
:10100000286850E8030F296820F4907041E8030233
:1010100072B3286850E8030F296820F4907041E803
:1010200003022AB3286850E8030F296820F490705F
:1010300041E80302002ADAD11AE0286850E8050FD7
:10104000296820F0010041E80502DAB1286850E87B
:10105000050F296820F0010041E8050292B12868D7
:1010600050E8050F296820F0010041E805024AB167
:10107000286850E8050F296820F0010041E80502C2
:10108000002ADAD1202085F83E0000202863286855
:1010900050E8030F296820F0100041E80302002AFD
:1010A00000F01B82286850E8030F296820F0100028
:1010B00041E80302002A00F01082286850E8030F7C
:1010C000296820F0100041E80302002A00F00582A0
:1010D000286850E8030F296820F0100041E8030257
:1010E000002AD4D1F9E1CC0718BF13F4807340F083
:1010F000F8804B0700F1FB8000E1A86B01684968AC
:101100008AB2002A00F0E981AB8D9A4280F0E58135
:10111000E985C069B0F5807F00F00182286850E859
:10112000030F296820F4807041E80302DAB12868CF
:1011300050E8030F296820F4807041E8030292B15F
:10114000286850E8030F296820F4807041E8030202
:101150004AB1286850E8030F296820F4807041E8FC
:101160000302002ADAD1286850E8050F296820F028
:10117000010041E80502BAB3286850E8050F296864
:1011800020F0010041E8050272B3286850E8050F1D
:10119000296820F0010041E805022AB3286850E8D8
:1011A000050F296820F0010041E80502002ADAD184
:1011B0001AE0286850E8050F296820F0400041E84F
:1011C0000502DAB1286850E8050F296820F04000D0
:1011D00041E8050292B1286850E8050F296820F01F
:1011E000400041E805024AB1286850E8050F296827
:1011F00020F0400041E80502002ADAD1202085F8DD
:101200003E0000202863286850E8030F296820F07A
:10121000100041E80302DAB1286850E8030F29689A
:1012200020F0100041E8030292B1286850E8030F53
:10123000296820F0100041E803024AB1286850E80C
:10124000030F296820F0100041E80302002ADAD1D8
:10125000A86B44F2C822C2F20002D0F858C013684A
:1012600090F83510022940F044810168D0F840E040
:101270000C68BEF1000F24F016040C604C6924F0D9
:1012800080044C6101D1846C1CB10C6824F008040A
:101290000C600C6824F001040C600C68E40700F09A
:1012A00032811468E41A052C17D80C68E40700F0A2
:1012B0002A811468E41A052C0FD80C68E40700F0A2
:1012C00022811468E41A052C07D80C68E40700F0A2
:1012D0001A811468E41A062CDFD32021416503210A
:1012E00018E12B6C43F001032B644B0706D5BEF1CC
:1012F000000F03D02B6C43F002032B648B0706D541
:10130000BEF1000F03D02B6C43F004032B64BCF13F
:10131000000F09D542EA0E03B3FA83F35B0903D148
:101320002B6C43F008032B642B6C002B00F0D58052
:1013300011F0200118BF002A02D0FFF77DFD2868B8
:101340004069296C00F0400001F00801401800F0ED
:10135000B78000BF286850E8030F296820F4907018
:1013600041E80302BAB3286850E8030F296820F463
:10137000907041E8030272B3286850E8030F2968AF
:1013800020F4907041E803022AB3286850E8030F64
:10139000296820F4907041E80302002ADAD11AE0AB
:1013A000286850E8050F296820F0010041E805028F
:1013B000DAB1286850E8050F296820F0010041E8FB
:1013C000050292B1286850E8050F296820F0010055
:1013D00041E805024AB1286850E8050F296820F065
:1013E000010041E80502002ADAD1286B012824D146
:1013F000286850E8030F296820F0100041E8030234
:10140000DAB1286850E8030F296820F0100041E89D
:10141000030292B1286850E8030F296820F01000F9
:1014200041E803024AB1286850E8030F296820F018
:10143000100041E80302002ADAD1202085F83E009E
:101440000020286328684069400646D5286850E88F
:10145000050F296820F0400041E80502DAB128684C
:1014600050E8050F296820F0400041E8050292B1DC
:10147000286850E8050F296820F0400041E805027F
:101480004AB1286850E8050F296820F0400041E87B
:101490000502002ADAD1A86BF8B140F60141C0F686
:1014A0000001016590F83510022925D1052180F849
:1014B00035100068016821F00101016002B0B0BD83
:1014C0000020286402B0B0BD4A1C2A62097841603D
:1014D000E98C01390A04E98401D002B0B0BDC168C9
:1014E00021F08001C160C16841F04001C16002B0DB
:1014F000B0BD802141650FE08021416502B0BDE8AB
:10150000B040FFF77DBBC16D3F2202FA01F1CCF87C
:101510000810012180F83510002180F83410E88D82
:1015200002B0B0BDFEE7000088B043F60805C4F283
:101530000205D5F8F8034EF60C5740F40070C5F8D4
:10154000F803D5F8F803CEF2000740F48060C5F840
:10155000F803D5F8F8034FF6FF0140F48070C5F8A2
:10156000F803386840F20008084040F20031C0F249
:10157000FA5108433860C2F20008D8F8000044F677
:10158000D354C1F26204A0FB04024FF0FF3101EB1F
:1015900092120020B0EB126F21D14EF21003CEF266
:1015A00000035A60F022FA75072298601A603A68C0
:1015B000C2F3022282F00703042B28BF0423033A5C
:1015C00001FA03F338BF0246DB4303FA02F21201C9
:1015D000FA7544F2CC22C2F2000201231370039088
:1015E000EA6B47F2000642F48042EA63EA6BC4F217
:1015F000000602F480420392039A0390AA6B42F021
:101600008052AA63AA6B02F080520392039A3A684E
:10161000C2F3022282F00703042B28BF042399405F
:10162000033A6FEA010138BF024691400901B975DA
:101630000390A96B41F08051A963A96B01F080511F
:101640000391039903903068012161F38F3030607A
:10165000306800F4404003900398286810F00C0FA5
:1016600008D0286800F00C00082822D155F8040C96
:1016700040021ED455F8080C55F8080C102161F3EF
:10168000C70045F8080CD5F8F803286840F4E05086
:101690002860286840F460402860286820F0F00046
:1016A000286055F8080C800731D4EFF3108072B62B
:1016B000FEE70020C4F247200121016044F2C82067
:1016C000C2F20000016855F8082C9207D4D40268D1
:1016D000521A022A17D855F8082C9207CCD402685F
:1016E000521A022A0FD855F8082C9207C4D402685F
:1016F000521A022A07D855F8082C9207BCD402685F
:10170000521A022ADFD9EFF3108072B6FEE728687A
:1017100041F2883220F00300286044F2C820C2F26F
:10172000000001682B6813F00C0F1CD003685B1AD3
:101730009342BAD82B6813F00C0F14D003685B1ACD
:101740009342B2D82B6813F00C0F0CD003685B1ACD
:101750009342AAD82B6813F00C0F04D003685B1ACD
:101760009342DFD9A1E7D5F8F803000707D000209E
:1017700085F8F803D5F8F80300077FF496AF2868DA
:1017800020F4E0502860286820F460402860286831
:1017900000F00C00082806D0042827D147F64000A6
:1017A000C0F27D1026E055F8040C55F8041C55F8DD
:1017B000043C490247F64001C0F27D1100F03F02AF
:1017C000C3F388105CBF42F20041C0F2F401A1FBF8
:1017D00000010023FEF718FD55F8041C0222C1F396
:1017E000014102EB4101B0FBF1F003E042F20040A5
:1017F000C0F2F4002968C4A2C1F30311515C4FF098
:10180000FF3AC840A0FB04124EF210090AEB9211F5
:101810000024CEF20009B4EB116FC8F8000025D106
:1018200044F2CC20C2F200000278C9F80410F02182
:10183000F9750721012AC9F80840C9F8001015D127
:1018400039684FF0FF33C1F3022181F00702042A07
:1018500028BF0422033903FA02F238BF0021D24321
:1018600002FA01F10901F97501210170CDE906447F
:101870000294A86A0DF10C0840F01000A862A86A52
:10188000414600F01000029002980294A86A40F0CD
:101890008000A862A86A00F080000290029802947A
:1018A000A86A40F00800A862A86A00F00800029048
:1018B00002980294A86A40F00400A862A86A00F0A6
:1018C0000400029002980294A86A40F00100A86205
:1018D000A86A00F0010002900298182003904FF4CB
:1018E0008810CDE9040406F5D030FEF7BFFE386855
:1018F0004FF0050CC0F3022181F007020420042AF6
:1019000028BF02460AFA02F2CB1E2CEA020238BFB6
:1019100023469A4013014EF20942CEF200021370A0
:101920004FF40073C9F8F0303B68C3F3022383F02F
:101930000701042928BF01460AFA01F1033B2CEAFA
:10194000010138BF23469940090151704FF480616D
:10195000C9F8F0100394A96A41F48001A962A96A48
:101960000C2501F48001039103993968C1F3022128
:1019700081F00703042B28BF034603390AFA03F357
:1019800038BF21462CEA030303FA01F1090182F86A
:1019900030104FF00071C9F8F4103968C1F302211A
:1019A00081F00703042B38BF18460AFA00F0033908
:1019B0002CEA000038BF21468840000182F83C0034
:1019C0002020C9F8F80040F2D40044F60001C2F229
:1019D0000000C4F200014FF4E13280E81600C0E9D3
:1019E0000344C0E90554C461FEF712FF18B1EFF3D8
:1019F000108072B6FEE740F2181006F52441C2F2DC
:101A0000000000234FF4165280E80E00C0E90333B3
:101A1000C0E90553C361FEF7FBFE20B1EFF3108070
:101A200072B600BFFEE74FF4007001F0E5F9F8B1BF
:101A300006465C2001F0E0F9B8B1054606630020D7
:101A400085F8590040F21000C2F20000009043F205
:101A50001900C0F6000030A180220123019500F09A
:101A600095FB284600F064F802E0304601F0B0FB38
:101A700001F0ECFC40F20804C2F20004EFF3058030
:101A80002168084304BF0120206000200390EFF389
:101A9000058191B140F20C01C2F200010860EFF340
:101AA000058048B92068012806D10020F87402207A
:101AB000206001F0CBFC00BFFEE74FF4007001F0A6
:101AC0009BF9D0B106465C2001F096F9B8B1054605
:101AD0000663002085F8590040F68530C0F6000006
:101AE00010A180221823CDF80080019500F04EFB54
:101AF000284600F01DF80398CCE70020CAE73046DE
:101B000001F066FB0020C5E70000000000000000B7
:101B100001020304060708095454532053657276E2
:101B20006963650064656661756C745461736B000C
:101B30002DE9F04140F204084FF0500181F3118883
:101B4000BFF36F8FBFF34F8FC2F20008D8F80020A9
:101B5000531CC8F8003022B344F2D022C2F2000273
:101B6000136840F2502E01331360C2F2000EDEF80B
:101B7000003044F6642C002B40F26823C2F2000CC3
:101B8000C2F200031DD0DCF80010002940F01C82D6
:101B9000DEF80010C26AC96A914298BFCEF8000010
:101BA00012E24EF60452CEF2000212681206D3D0B0
:101BB0004FF0500080F31188BFF36F8FBFF34F8F4A
:101BC000FEE7CEF800001268012A40F0FD814FF0D8
:101BD000FF321C4644F8082F5C60C3E9034400242C
:101BE0001D461C6045F81C2F9D61C3E908551D4624
:101BF0005C6145F8302FDD62C3E90D551D469C62DE
:101C000045F8442F1D64C3E912551D46DC6345F8B1
:101C1000582F5D65C3E917551D461C6545F86C2FA7
:101C20009D66C3E91C551D465C6645F8802FDD673F
:101C3000C3E921551D469C6745F8942FC3F8905081
:101C4000C3E926551D46C3F88C4045F8A82FC3F8B4
:101C5000A450C3E92B551D46C3F8A04045F8BC2F3E
:101C6000C3F8B850C3E930551D46C3F8B44045F831
:101C7000D02FC3F8CC50C3E935551D46C3F8C84032
:101C800045F8E42FC3F8E050C3E93A551D46C3F8C0
:101C9000DC4045F8F82F05F1140645F8045CC5E969
:101CA000015545F8084CC5E90462C5E9066605F129
:101CB0002806EC60C5E90962C5E90B6605F13C063A
:101CC0002C62C5E90E62C5E9106605F150066C6329
:101CD000C5E91362C5E9156605F16406AC64C5E99A
:101CE0001862C5E91A6605F17806EC65C5E91D625A
:101CF000C5E91F6605F18C062C67C5E92262C5E9B6
:101D0000246605F1A006C5F88440C5E92762C5E947
:101D1000296605F1B406C5F89840C5E92C62C5E905
:101D20002E6605F1C806C5F8AC40C5E93162C5E9C3
:101D3000336605F1DC06C5F8C040C5E93662C5E981
:101D4000386605F1F006C5F8D440C5E93B62C5E93F
:101D50003D6605F58276C5F8E840C5E94062C5E90B
:101D6000426605F58C76C5F8FC40C5E94562C5E9D3
:101D7000476605F59676C5F81041C5E94A62C5E99A
:101D80004C6605F5A076C5F82441C5E94F62C5E962
:101D9000516605F5AA76C5F83841C5E95462C5E92A
:101DA000566605F5B476C5F84C41C5E95962C5E9F2
:101DB0005B6605F5BE76C5F86041C5E95E62C5E9BA
:101DC000606605F5C876C5F87441C5E96362C5E982
:101DD000656605F5D276C5F88841C5E96862C5E94A
:101DE0006A6605F5DC76C5F89C41C5E96D62C5E912
:101DF0006F6605F5E676C5F8B041C5E97262C5E9DA
:101E0000746605F5F076C5F8C441C5E97762C5E9A1
:101E1000796605F5FA76C5F8D841C5E97C62C5E969
:101E20007E6605F50276C5F8EC41C5E98162C5E933
:101E3000836605F50776C5F80042C5E98662C5E9FF
:101E4000886605F50C76C5F81442C5E98B62C5E9CC
:101E50008D6605F51176C5F82842C5E99062C5E999
:101E6000926605F51676C5F83C42C5E99562C5E966
:101E7000976605F51B76C5F85042C5E99A62C5E933
:101E80009C6605F52076C5F86442C5E99F62C5E900
:101E9000A16605F52576C5F87842C5E9A462C5E9CD
:101EA000A66605F52A76C5F88C42C5E9A962C5E99A
:101EB000AB6605F52F76C5F8A042C5E9AE62C5E967
:101EC000B06605F53476C5F8B442C5E9B362C5E934
:101ED000B56605F53976C5F8C842C5E9B862C5E901
:101EE000BA6605F53E76C5F8DC42C5E9BD62C5E9CE
:101EF000BF6605F54376C5F8F042C5E9C262C5E99B
:101F0000C46605F54876C5F80443C5E9C762C5E966
:101F1000C96605F54D76C5F81843C5E9CC62C5E933
:101F2000CE6605F55276C5F82C43C5E9D162C5E900
:101F3000D36605F55776C5F84043C5E9D662C5E9CD
:101F4000D866C5F8544344F6C815C2F200052E46BB
:101F500046F8082F6E60C5E9036644F6DC16C2F247
:101F60000006374644F610212C6047F8082FC2F2CD
:101F700000017760C6E903770F46346047F8082F01
:101F80004F60C1E903770C6044F68421C2F200017E
:101F90000F4647F8082F4F60C1E903770C6044F6FD
:101FA0007021C2F200010F4647F8082F4F60C1E9C7
:101FB00003770C6040F25821C2F200010D6040F23C
:101FC0006021C2F200010E6044F2DC21C2F2000185
:101FD0000A6844F2E02401320A604264C2F200045A
:101FE000C26A2168061D8A4202EB820188BF226014
:101FF00003EB810254684261A5688460C560A568EE
:10200000A6606E6053F82120013243F82120D8F8F1
:102010000020F2B1511EC8F8001002D1002181F356
:102020001188DCF8001091B1DEF80010C06AC96AAE
:10203000814228BFBDE8F0814EF60450CEF2000088
:102040004FF080510160BFF34F8FBFF36F8FBDE83A
:10205000F0814FF0500080F31188BFF36F8FBFF312
:102060004F8F00BFFEE7000044F2D42B40F2040A79
:1020700044F2D028C2F2000BC2F2000A4FF000096D
:10208000C2F2000803E000BF204601F0A1F8DBF82F
:102090000000002849D04FF0500080F31188BFF3B2
:1020A0006F8FBFF34F8FDAF80000411CCAF80010A1
:1020B00030B94EF60452CEF200021268120650D128
:1020C00044F68422C2F20002D268D468D4E90273D2
:1020D0006269BB605668E368251DAE425F6008BF59
:1020E0005360C4F814901368A3F1010313601268DD
:1020F000D8F80020A2F10102C8F80020DBF8002087
:10210000A2F10102CBF8002011B3CAF8000008B90F
:1021100089F3118894F859000228B8D00128B3D067
:1021200048BB206B01F054F8AEE740F26820C2F2E1
:10213000000000680228AAD34EF60450CEF2000038
:102140004FF080510160BFF34F8FBFF36F8F9EE759
:102150004FF0500080F31188BFF36F8FBFF34F8FA4
:10216000FEE74FF0500080F31188BFF36F8FBFF38D
:102170004F8F00BFFEE74FF0500080F31188BFF390
:102180006F8FBFF34F8F00BFFEE700002DE9F043D4
:1021900081B0DDE908948046206B17460E46910019
:1021A000A5221D46FEF773F8206B002E00EB87007A
:1021B000A0F1040020F0070055D0317884F83410E5
:1021C000317800294BD0717884F835107178002966
:1021D00045D0B17884F83610B17800293FD0F17835
:1021E00084F83710F178D1B3317984F83810317927
:1021F000A9B3717984F83910717981B3B17984F810
:102200003A10B17959B3F17984F83B10F17931B3CF
:10221000317A84F83C10317A09B3717A84F83D1030
:10222000717AE1B1B17A84F83E10B17AB9B1F17A3C
:1022300084F83F10F17A91B1317B84F84010317B02
:1022400069B1717B84F84110717B41B1B17B84F835
:102250004210B17B00291CBFF17B84F843100021A0
:1022600084F8431002E0002184F83410372D28BF91
:102270003725C5F138020021A2614FF0807242F289
:10228000ED27C4E91351C4E90441C4E90941E562F9
:10229000616584F8581028F00103C0F6000740F883
:1022A000042C6FF0020240E9037340E9092144382D
:1022B000B9F1000F206018BFC9F8004001B0BDE8B7
:1022C000F083000008480068006880F308884FF039
:1022D000000080F3148862B661B6BFF34F8FBFF37E
:1022E0006F8F00DF00BF000008ED00E081B000202C
:1022F000009040F20400C2F2000000684FF050016C
:1023000081F31188BFF36F8FBFF34F8F013007D078
:10231000FEE700BF009830B9009820B9009810B9C6
:1023200000980028F6D001B07047000088B040F255
:10233000542B40F24C2840F20407C2F2000BC2F2C8
:102340000008C2F20007DBF80010086820B1C96875
:10235000D1F8009002E000BF4FF0000944F2D8220B
:10236000C2F2000211680131116044F69821C2F2F4
:102370000001D1F800A0D8F800108A4572D2DBF82D
:1023800000000168002900F0938000250FE001693A
:102390004F68B760BC60F1604C60706101680131EA
:1023A0000160DBF800000168002900F08180C0684E
:1023B000C6680768D6E9022170699160F168341D2A
:1023C0004A604268A24208BF4160756101680139F4
:1023D00001600068316A3046884796F82800400757
:1023E000DFD5B069C219BA421AD9DBF80000511C16
:1023F00072603661CBD000F1080300BF59680F68E6
:1024000097422AD84B681F68974229D859680F68A5
:10241000974222D84B681F6897421F46EED9B8E70B
:1024200044F69C20C2F200000068002800F0F5830A
:1024300044F66421CDE904570696C2F2000109680A
:1024400021B144F2D821C2F20001096804A901F0C7
:10245000FDFA0028A5D100F0E0BB0F46194698E729
:102460001F4696E7C8F800A0A0B3CA4532D301F0D2
:102470005BFDDBF80000C168CE68D6E90213726923
:102480008B60F36859605768311D8F4208BF5360F5
:10249000002373611368013B1360126896F82820CB
:1024A00053071AD402F0FE0086F8280058E100BF56
:1024B00040F26422C2F20002116840F24C28C2F2DB
:1024C0000008CBF800101060C8F800A001F02CFD47
:1024D00080E300BF68B3002134E0B369366103EBE9
:1024E00009025245726009D8AAEB0900984280F0AF
:1024F000E38040F26420C2F200000068531C00F048
:10250000AD8000F1080700BF7B681D68954200F2AE
:1025100018815C682768974200F2168163681F681B
:10252000974200F213815F683D6895423D46EBD9C2
:102530000EE140F26420C2F2000000680068B0FAC8
:1025400080F0410944F69C20C2F2000000684FF080
:10255000500282F31188BFF36F8FBFF34F8F3A6839
:102560000026531C3B603AB94EF60457CEF20007E2
:102570003F683F0640F0838340F2FC15C2F200053D
:1025800095F84470FF2F08BF85F8446095F84570B2
:10259000FF2F05D140F2FC17C2F2000787F8456013
:1025A00040F24C2840F20407002BC2F20008C2F2AD
:1025B000000700F05A833A6012B9002282F31188B2
:1025C00040F2FC12C2F20002926B002A40F01B8122
:1025D00040F2502840F2FC14C2F20008C2F200049B
:1025E000D8F80020A36A00F12406D3619F6802F1A5
:1025F000180517629F687D609D609662626A01326D
:10260000626244F69822C2F200021268D8F80030E2
:10261000D3E902565F69AE60DE681C1D75607D6897
:10262000A54208BF7E6000265E613B68A3F10103FE
:102630003B603B68A9B144F67026C2F20006D8F8A8
:10264000001072680F1D8A609368CB6093685F60AA
:1026500097604E61316801313160CCE003695D689B
:1026600076E0A9EB0A01D8F8003012EB010CC3F8B0
:1026700004C045D340F26021C2F20001D1F800C08D
:10268000D8F80020134653F8046F711C74D00CF175
:10269000080467683968B14279D879680D68B5422D
:1026A00078D84F683D68B54200F298807C68216810
:1026B0002546B142EDD993E044F69C20C2F20000D9
:1026C000006840F24C2840F204070028C2F20008DB
:1026D000C2F2000700F0DD820021CDE9041944F6C2
:1026E00064210696C2F20001096821B144F2D821A2
:1026F000C2F20001096804A901F0A8F9C0BBC8E250
:1027000040F25821C2F20001D1F800E0D8F8007080
:102710003B4653F8044F611C32D00EF108014E685D
:102720003268A24230D871680A68A24234D84E6832
:102730003268A24228D871680A68A2420A46EED9D5
:102740002BE01D463B4603E0254601E01D4623469F
:10275000B560A960F3605960706101680131016082
:1027600040F24C2840F20407C2F20008C2F200070F
:10277000316A304688475BE0DCF810707D682FE0F6
:10278000DEF81060726808E032460E4605E03D460D
:10279000274625E00D4623E00A46BA609360FE60B6
:1027A0007360C7F814E0DEF8001040F24C280131E5
:1027B000CEF8001044F6FC11C2F20001096840F2A4
:1027C00004078C45C2F20008C2F200071BD244F68F
:1027D000FC11C2F20001C1F800C014E03D460F46F2
:1027E0009560AB60D7607B60C2F814C0DCF8001065
:1027F0000131CCF8001040F24C2840F20407C2F23C
:102800000008C2F2000700F04FFA01F08DFB78B922
:102810004EF604514FF08050CEF200010860BFF335
:102820004F8FBFF36F8F03E0DDE9012003999047DD
:1028300044F69C20C2F200000668002E00F0D98108
:1028400044F66420C2F20000006820B144F2D820AF
:10285000C2F2000000684FF0500080F31188BFF30F
:102860006F8FBFF34F8F386840F2FC15411CC2F2E6
:102870000005396038B94EF60450CEF20000006809
:10288000000640F0D481AC6B04B32A6C52B1D5E998
:1028900002308118E960994224BF2968E9606846DE
:1028A000FDF7E3FC601EA863286978B1F069C06891
:1028B00001F0C0FA50B14EF604514FF08050CEF204
:1028C00000010860BFF34F8FBFF36F8F3868002897
:1028D00000F099810138386002D1002080F311881E
:1028E000002C3FF430ADDDF80090B9F1000F9BD41F
:1028F000029E706978B1D6E90221331D9160F168BA
:102900004A6042689A4208BF4160002171610168D3
:1029100001390160006844F69820C2F20000D0F846
:1029200000A0D8F80000824580F08480DBF8000029
:10293000016800296ED000250FE001694D68BD6077
:10294000AC60F9604C60786101680025013101607C
:10295000DBF80000016800295CD0C068C768D0F8C7
:102960000080D7E9022178699160F9683C1D4A60CE
:102970004268A24208BF41607D610168013901607F
:102980000068396A3846884797F828004007DFD53D
:10299000B86900EB080242451AD9DBF80000511C67
:1029A0007A603F61C9D000F1080300BF59680D6823
:1029B000954229D84B681D68954228D859680D68FA
:1029C000954221D84B681D6895421D46EED9B6E761
:1029D00044F69C20C2F200000068002800F0FF804E
:1029E00044F66421CDE904580697C2F20001096853
:1029F00021B144F2D821C2F20001096804A901F012
:102A000025F80028A4D1EAE00D46194697E71D46AF
:102A100095E700BF40F26422C2F20002116840F262
:102A20004C2840F20407C2F20008C2F20007CBF8BB
:102A300000101060B9F1090FC8F800A03FF6F8AE19
:102A4000DFE809F00505054A5A4D05054A5A96F88A
:102A50002800019CB16940F0010086F828000A199D
:102A6000304640F8042F5245366105D9A24576D24A
:102A7000A242594608D273E0AAEB04038B4240F20B
:102A80006421C2F200016BD3316A3046884796F860
:102A9000280040077FF5CCAE44F69C20C2F200002F
:102AA0000068002800F0CD80B16900222144CDE902
:102AB000042144F664210696C2F20001096821B19E
:102AC00044F2D821C2F20001096804A900F0BEFF57
:102AD00000287FF4ADAEB4E096F8280007E096F841
:102AE0002800810703D4304600F072FBA0E600F016
:102AF000FE0086F828009BE696F8280040F00101C9
:102B0000019886F828100028B06100F0A48040F2F7
:102B1000642100EB0A033046C2F2000140F8043F92
:102B20003661534588BF594609685A1C14D001F1D3
:102B3000080700BF7A6815689D4238D855682F6825
:102B40009F4237D86A6817689F4235D857683D68F2
:102B50003C469D42EED931E00A6954682EE0594660
:102B60000968531C14D001F1080700BF7B681D6879
:102B7000954210D85D682F6897420FD86B681F6820
:102B800097420DD85F683D683C469542EED909E012
:102B90000B695C6806E01C463B4603E02C4601E0FE
:102BA0001C462B46B460A060F36058600AE01446EF
:102BB0003A4603E02C4601E014462A46B460A06081
:102BC000F26050607161086840F24C280130C2F236
:102BD0000008086040F20407C2F2000728E64FF040
:102BE000500080F31188BFF36F8FBFF34F8F00BF8A
:102BF000FEE74FF0500080F31188BFF36F8FBFF3F3
:102C00004F8F00BFFEE74FF0500080F31188BFF3F5
:102C10006F8FBFF34F8F00BFFEE74FF0500080F380
:102C20001188BFF36F8FBFF34F8F00BFFEE74FF0E8
:102C3000500080F31188BFF36F8FBFF34F8F00BF39
:102C4000FEE74FF0500080F31188BFF36F8FBFF3A2
:102C50004F8F00BFFEE74FF0500080F31188BFF3A5
:102C60006F8FBFF34F8F00BFFEE74FF0500080F330
:102C70001188BFF36F8FBFF34F8F00BFFEE74FF098
:102C8000500080F31188BFF36F8FBFF34F8F00BFE9
:102C9000FEE74FF0500080F31188BFF36F8FBFF352
:102CA0004F8F00BFFEE700002DE9F04140F204081D
:102CB0004FF0500181F31188BFF36F8FBFF34F8F37
:102CC000C2F20008D8F800100446481C0029C8F8D1
:102CD00000005CD094F94560012E14DB44F6A42773
:102CE000C2F20007012500BF606A50B1206BC068C6
:102CF00001F0A0F80028F0B218BF3D60013E0128A5
:102D0000F2D8D8F80000FF21002884F845104ED0F2
:102D10000138C8F8000002D1002080F311884FF07C
:102D2000500080F31188BFF36F8FBFF34F8FD8F837
:102D30000010481C0029C8F8000042D094F94460F3
:102D4000012E14DB44F6A427C2F20007012500BFC0
:102D5000206950B1E069C06801F06CF80028F0B259
:102D600018BF3D60013E0128F2D8D8F80000FF21CD
:102D7000002884F8441034D00138C8F8000018BF87
:102D8000BDE8F081002080F31188BDE8F0814EF6A7
:102D90000451CEF20001096809069BD04FF05000A3
:102DA00080F31188BFF36F8FBFF34F8FFEE74FF0B3
:102DB000500080F31188BFF36F8FBFF34F8F00BFB8
:102DC000FEE74EF60451CEF2000109680906B5D0BF
:102DD0004FF0500080F31188BFF36F8FBFF34F8F18
:102DE000FEE74FF0500080F31188BFF36F8FBFF301
:102DF0004F8F00BFFEE700002DE9F04144F2D821DB
:102E0000C2F200010A6844F6C41801320A6040F2B6
:102E10005C22C2F200021168C2F2000831B198F8D7
:102E20000010002918BF4FF0004133E040F2C861A4
:102E3000C2F20001CF1D27F0070711F00703A1EB35
:102E4000070618BF394644F66827C2F20007002576
:102E5000C7E900154FF47057002B18BF06F57057DF
:102E6000CB1923F00703A3F10807176043E90255C4
:102E70007B1AC1E9007344F6F811C2F200010B603D
:102E800044F6F011C2F200010B60012188F8001035
:102E90004FF0004100284FF0000400F0AC800140EA
:102EA00040F0A98020F0070144F6F01E01F1100463
:102EB0004107C2F2000EDEF8001008BF00F108045E
:102EC0008C4246D844F66825C2F2000529684B6852
:102ED000A34228D20868B8B10E464368A34218D26C
:102EE0000768B7B17B68A34216D23D68A5B16B688D
:102EF000A34214D22E6896B17368A34212D23068EE
:102F000031460028E9D10EE044F66825C2F20005FA
:102F100009E00146354606E03946054603E0294604
:102F20003D4600E031461068814212D0D5F800C01D
:102F30000E68181B11282E603CD30B195D070AD0B0
:102F40004FF0500080F31188BFF36F8FBFF34F8FA6
:102F5000FEE700244FE058604C6044F66824C2F25B
:102F6000000400BF206898420AD204689C420AD23A
:102F70002068984204D2046805469C42F2D303E0DC
:102F80002546044600E005466E685868AF199F4222
:102F900002D130442B4668601E18A64206D1126842
:102FA000944203D0D4E90042104458609D421C6012
:102FB00018BF2B6044F6F8124868DEF80030C2F201
:102FC000000214681B1AA342CEF8003038BF136009
:102FD00098F800200CF10804002A4FF0000218BFF6
:102FE00040F000400A6044F60422C2F20002136876
:102FF0004860581C106000F097FF600709D04FF040
:10300000500080F31188BFF36F8FBFF34F8F00BF65
:10301000FEE72046BDE8F0818EB00DF106004EF6C9
:10302000B0284BF2B63B4EF6AC4A46F6A42740F227
:103030001819451D0224CDF6A578C4F6AA4BCDF685
:10304000A76ACCF2BE77C2F2000903E040F6B830BE
:1030500000F03AF9FD20C0F21310CDF80600A020D0
:103060008DF80A40C5F80080C5F804B0C5F808A07E
:10307000EF608DF81B0099F83C0099F83D10002690
:103080002029E3D10128E1D0012089F83C000DF18D
:103090000600C9F820001620A9F82400A9F8260087
:1030A0002120C9F8406089F83D00D9F8342040F665
:1030B0008951C0F60001D16340F63561C0F60001C8
:1030C000116492F83410D9F8000040F60D43C0F6B0
:1030D00000030129D364166536D0012182F834102B
:1030E000D2F858C092F83530012B2BD182F83540F8
:1030F000566513689468D26D1E68162126F48026E2
:103100001E6059600DF10601BE46071D0E46402C9B
:1031100004BF3E460F463F2101FA02F29E60DF6087
:10312000CCF808201968774641F016011960196833
:10313000002641F0080119601968022441F00101DC
:10314000196001E082F834606FF04001016089F895
:103150003C6000BFD9F8000050E8050FD9F8001016
:1031600040F0800041E80502002A3FF46FAFD9F833
:10317000000050E8050FD9F8001040F0800041E849
:103180000502002A3FF462AFD9F8000050E8050FAD
:10319000D9F8001040F0800041E80502002A3FF411
:1031A00055AFD9F8000050E8050FD9F8001040F0ED
:1031B000800041E80502002ACCD147E7DFF80C0087
:1031C000016841F4700101607047000088ED00E083
:1031D00080B5002808BF80BD44F6C411C2F20001CA
:1031E0000A7850F804CC002A18BF4FF0004212EAC7
:1031F0000C0F0CD0A0F108010B6893B14FF05000F8
:1032000080F31188BFF36F8FBFF34F8FFEE74FF04E
:10321000500080F31188BFF36F8FBFF34F8F00BF53
:10322000FEE72CEA020240F8042C44F2D822C2F253
:10323000000213680133136050F804CC44F6F01018
:10324000C2F2000002686244026044F66820C2F2E2
:10325000000000BF03688B420AD2186888420AD275
:1032600003688B4204D218681A468842F2D303E0FE
:103270000246184600E01A46D2F804E002EB0E03BC
:103280008B4203D1F4441146C2F804C001EB0C0395
:1032900083420AD140F25C23C2F200031B689842C9
:1032A00003D0D0E9000363444B60086044F6082073
:1032B0008A4218BF1160C2F200000168013101604A
:1032C000BDE8804000F030BE2DE9F04144F2D82145
:1032D000C2F200010A6842B14FF0500080F3118839
:1032E000BFF36F8FBFF34F8FFEE70A6840F250289D
:1032F00001320A6044F69821C2F20001C2F20008CD
:103300000968D8F80030D3E902645D69B4606F6879
:103310001A1DDC6897424FF00002666008BF6C60BF
:103320005A612A6811EB000CA2F101022A602A6896
:10333000D8F80020C2F804C020D340F26020C2F2C6
:103340000000D0F800C0D8F800E0724652F8040F30
:10335000411C35D00CF1080463681968814237D8E4
:103360005C682168814239D86368196881422FD826
:103370005C68216881422146EED930E040F2582055
:10338000C2F20000D0F800E0D8F80020134653F84D
:10339000041F481C18D00EF1080500BF68680468B7
:1033A0008C4218D845682C688C4226D86868046816
:1033B0008C4210D845682C688C422C46EED91DE012
:1033C000DCF8103059680AE0DEF81000446815E0B7
:1033D0001946234603E0044628460FE02146CEF86E
:1033E00008108A60CEF80C305A60CEF814C0DCF8B1
:1033F00000000130CCF8000014E02C469460A3607B
:10340000D0604360C2F814E0DEF800000130CEF86E
:10341000000044F6FC10C2F2000001688C4538BF81
:10342000C0F800C000F080FD002818BFBDE8F081A2
:103430004EF60450CEF200004FF080510160BFF311
:103440004F8FBFF36F8FBDE8F08100002DE9F04191
:1034500084B05C20039003985C2840F0B28003980D
:1034600044F2E44444F2E420C2F20004C2F2000058
:103470002063022084F8590042F2690003AEC0F6CE
:1034800000000FF2E8418022002300960194FEF72D
:103490007DFE2046FEF74CFB039844F6F411C2F281
:1034A00000010028086000F0558240F204084FF047
:1034B000500080F31188BFF36F8FBFF34F8FC2F2BC
:1034C0000008D8F80000411C0028C8F8001000F0DF
:1034D000828044F69C2CC2F2000CDCF8001000291B
:1034E00000F08B80D8F80020002A00F03B81501EAD
:1034F000C8F8000004D1002080F31188DCF8001027
:10350000002900F038815C20039003985C2840F08B
:103510004681039844F6401444F24050C2F200043D
:10352000C2F200002063022084F8590042F22D30DC
:10353000C0F600000FF244414FF48072022300965F
:103540000194FEF723FE2046FEF7F2FA039844F6B4
:10355000A021C2F200010028086000F00C814FF0A9
:10356000500282F31188BFF36F8FBFF34F8F44F681
:10357000FC12C2F200024FF0FF33136044F66422E3
:10358000C2F200020123136044F698224EF200407A
:10359000C2F200020023CEF200004CF27021136050
:1035A000C4F20F11D0F800294B1C9A4240F01D8143
:1035B0004FF0500080F31188BFF36F8FBFF34F8F30
:1035C000FEE74FF0500080F31188BFF36F8FBFF319
:1035D0004F8F00BFFEE74EF62050CEF2000050F8AD
:1035E0001C0C00063FF475AF4FF0500080F31188BB
:1035F000BFF36F8FBFF34F8FFEE744F69C11C2F20B
:1036000000014FF0FF320B4644F6B01043F8082F8C
:10361000C2F200004B60C1E90333002304460B6093
:1036200044F8082F40F25422C2F200024460C0E97C
:1036300003440360116040F26421C2F2000108609B
:10364000502003900398502840F09F80039840F248
:10365000FC11C2F20001012081F8460040F25C102A
:10366000C2F2000008600A201022C1E90F024FF0E8
:10367000500080F31188BFF36F8FBFF34F8FD8F8DE
:103680000020531C002AC8F8003000F0928008681F
:10369000D1E90F454FF0000E05FB0407013C04FB88
:1036A0000504C1F838E0C1E90107FF20CC6081F8CA
:1036B000440081F845004FF0FF300C4644F8180FE5
:1036C0004C61C1E907440C46C1F810E044F82C0FE6
:1036D000002B8C62C1E90C44C1F824E000F07B802F
:1036E000C8F8002012B9002080F3118844F6242283
:1036F000C2F20002106800240028134681F84C40F2
:10370000CCF8001000F02C8153F8080F002800F0CE
:10371000B480134653F8100F002800F0B080134611
:1037200053F8180F002800F0AC80134653F8200F10
:10373000002800F0A880134653F8280F002800F056
:10374000A480134653F8300F002800F0068113467A
:1037500053F8380F002800F0028140F2FC11C2F249
:103760000001BFE64FF0500080F31188BFF36F8F68
:10377000BFF34F8FFEE74FF0500080F31188BFF387
:103780006F8FBFF34F8F00BFFEE74FF0500080F305
:103790001188BFF36F8FBFF34F8F00BFFEE74FF06D
:1037A000500080F31188BFF36F8FBFF34F8F00BFBE
:1037B000FEE74EF62050CEF2000050F81C0C00063A
:1037C0003FF465AF4FF0500080F31188BFF36F8F67
:1037D000BFF34F8FFEE74FF0500080F31188BFF327
:1037E0006F8FBFF34F8F00BFFEE7D0F800298A42EA
:1037F00009D14FF0500080F31188BFF36F8FBFF3F2
:103800004F8F00BFFEE701780391FF21017001781F
:103810008DF80B109DF80B109DF90B10B1F1FF3FC7
:1038200000F3858004219DF80B2052008DF80B20B9
:103830009DF90B20B2F1FF3F29DC9DF80B205200CF
:103840008DF80B209DF90B20B2F1FF3F21DC9DF894
:103850000B2052008DF80B209DF90B20B2F1FF3F99
:1038600018DC9DF80B20043952008DF80B209DF9CF
:103870000B20002AD7D403310CE0012470E002248D
:103880006EE003246CE004246AE0052468E0023161
:1038900000E0013103294AD103994EF6205401700A
:1038A000CEF2000421684FF6184241F47001216005
:1038B0002168002541F0704121604FF61041CFF69C
:1038C000FF71CFF6FF724550855040F20002C2F200
:1038D0000002126844F6D353C1F26203A2FB032331
:1038E0004FF0FF3202EB93124FF61443CFF6FF7303
:1038F000C25007224250C8F80050FFF75FFCD4F8CE
:10390000140240F04040C4F81402FEF7DBFC00F063
:1039100039F80395D8F800004FF0500181F3118871
:10392000BFF36F8FBFF34F8F01300AD0FEE74FF028
:10393000500080F31188BFF36F8FBFF34F8F00BF2C
:10394000FEE7039830B9039820B9039810B903989B
:103950000028F6D004B0BDE8F081062400E007247A
:1039600004A0186002EBC4004160BBE549444C452B
:1039700000000000546D725100000000546D722070
:103980005376630044F2D820C2F20000006830B1E0
:1039900044F6A420C2F2000001210160704744F601
:1039A000A420C2F20000002144F2E02C0160C2F227
:1039B000000CDCF8001040F2682201EB8103C2F237
:1039C000000252F82300A8B101EB810002EB800352
:1039D00053F8040F4268181D82421A6001D15268E0
:1039E0001A60D06840F25022C2F200021060CCF897
:1039F0000010704702EB83000139A0F12803481C36
:103A000015D058690028DFD189B11868C8B90129D3
:103A10000DD053F8140CB0B9022908D053F8280C73
:103A200004390028A3F15003E9D00131CCE74FF06D
:103A3000500080F31188BFF36F8FBFF34F8F00BF2B
:103A4000FEE70139C0E70239BEE700002DE9F04189
:103A500090B30446002938D044F66420C2F2000036
:103A6000006820B144F2D820C2F20000006840F2A1
:103A700004054FF0500080F31188BFF36F8FBFF340
:103A80004F8FC2F200052868421C2A6048B3A36B1E
:103A9000E66BB34235D2A66B226C002A37D0606841
:103AA000FCF7E3FB216CD4E901020844606090421A
:103AB00024BF206860602DE04FF0500080F3118833
:103AC000BFF36F8FBFF34F8FFEE7206C0028C3D08A
:103AD0004FF0500080F31188BFF36F8FBFF34F8F0B
:103AE000FEE74EF60452CEF200021268120627D00C
:103AF0004FF0500080F31188BFF36F8FBFF34F8FEB
:103B0000FEE7002A49D028600020BDE8F081206847
:103B100000284CD00023701CA063606AD0B1206BD9
:103B2000C06800F087F908B34EF60450CEF20000EA
:103B30004FF080510160BFF34F8FBFF36F8F15E0DF
:103B4000A26BE36B9A42A6D32860002080F3118811
:103B5000BDE8F08153B14EF60450CEF200004FF0B4
:103B600080510160BFF34F8FBFF36F8F286858B14A
:103B7000013828601CBF0120BDE8F081002080F3DF
:103B800011880120BDE8F0814FF0500080F31188CA
:103B9000BFF36F8FBFF34F8FFEE74FF0500080F3FE
:103BA0001188BFF36F8FBFF34F8F00BFFEE7A1688F
:103BB0004FF0000E79B140F25020C2F200000068D0
:103BC00088420CD04FF0500080F31188BFF36F8F04
:103BD000BFF34F8FFEE70023C4F808E09BE7086DB2
:103BE000002842D0CB6ACA6C013893424FF00003E0
:103BF000086537D0B0BBD1E902704B69B860D3F823
:103C00000480C86801F1040CE045476008BF5860B3
:103C100000204861186840F2682801381860186868
:103C2000C2F13800886144F2E020CA62C2F20000AA
:103C30000368C2F200089A4288BF026002EB820069
:103C400008EB80035F684B61BA688F60CA60BA682E
:103C5000C7F808C0C2F804C058F820100123013189
:103C600048F82010C4F808E055E74FF0500080F302
:103C70001188BFF36F8FBFF34F8F00BFFEE70000C7
:103C80002DE9F04F44F2D820C2F20000006848B19C
:103C900044F60C20C2F200000168013101600020EE
:103CA000BDE8F08F44F69820C2F20000016811F1DF
:103CB000010BC0F800B02ED340F25820C2F2000031
:103CC000026812684AB14FF0500080F31188BFF3C8
:103CD0006F8FBFF34F8F00BFFEE740F26023C2F249
:103CE000000302681F6807601A6044F60022C2F2EF
:103CF00000021368013313600268126822B1006881
:103D0000C068C068406801E04FF0FF3044F6FC1224
:103D1000C2F20002106044F6FC11C2F20001086811
:103D200040F2502E40F268288345C2F2000EC2F2E3
:103D3000000801D2002068E040F2582AC2F2000ACE
:103D4000DAF800000068002854D044F2E029C2F2FA
:103D50000009002022E000BFF46AD9F800108C426C
:103D600004EB840188BFC9F8004008EB81035D685B
:103D70007361AA68B560F260AA68AF60576058F8CE
:103D80002120013248F82120DEF80010C96ADAF853
:103D900000208C4228BF0120116879B3DAF8004076
:103DA000E468E668374657F8044FA34528D3D6E9B8
:103DB000023574699D606168F568B9426B6008BF3F
:103DC00065602168013921602168B46A002CC3D084
:103DD000D6E9071306F1180C8B60356A63686960D1
:103DE0000021634508BF6560B16221680139216027
:103DF0002168B1E74FF0FF34002005E04FF0FF34B9
:103E000044F6FC11C2F200010C60DEF80010C96A31
:103E100001EB810158F82110012944F6A421C2F2D6
:103E2000000188BF01200968002918BF0120BDE8F2
:103E3000F08F0000B0B558B3D0E90713826A8B60E9
:103E4000036AD2F804E000F1180C59600021E6453D
:103E500008BF53608162116801391160116844F232
:103E6000D821C2F200010968D9B144F61021C2F28A
:103E700000010A684B6801329D68C36105629D6854
:103E8000C3F808C0C5F804C081620A60C26A39E09C
:103E90004FF0500080F31188BFF36F8FBFF34F8F47
:103EA000FEE7D0E9021342698B60D2F804E0C368F0
:103EB00000F1040CE645596008BF5360116844F2F4
:103EC000E023013911601168C2F20003C26A196867
:103ED00040F2682E8A4202EB8201C2F2000E88BFD5
:103EE0001A600EEB81035C684361A5688460C5605D
:103EF000A568C4F808C0C5F804C05EF82100013008
:103F00004EF8210040F25020C2F200000068C06A62
:103F1000824291BF002044F6A421C2F20001012098
:103F200088BF0860B0BD00002DE9F04F81B044F2B9
:103F3000D820C2F2000001684FF0500282F31188CD
:103F4000BFF36F8FBFF34F8FC1B140F20407C2F2CE
:103F5000000739684A1C3A6089B10168013901607B
:103F60000068E0B100203968002900F0D1800139F3
:103F7000396000F0D68001B0BDE8F08FFEE74EF664
:103F80000451CEF2000109680906E6D04FF0500056
:103F900080F31188BFF36F8FBFF34F8FFEE744F2BA
:103FA000D020C2F2000000680028DBD044F61022C6
:103FB000C2F20002106844F6A4240028C2F20004F1
:103FC00000F0D080D06844F2E02BC168C2F2000B50
:103FD000D1E90763886AB36043680F6A01F1180882
:103FE00043457E6008BF476000278F6207680B1D4E
:103FF000013F07600068D1E902674869B76045681A
:10400000CF689D427E6008BF4760076840F268291C
:10401000013F07600068D1F82CE0DBF80070C2F2C5
:104020000009BE450EEB8E0788BFCBF800E009EB18
:1040300087056C684D61A0688C60C860A068A3604B
:10404000436059F827009246013049F8270040F2B2
:104050005020C2F200000068C06A864506D344F6CC
:10406000A4220120C2F2000210605246106800280B
:104070005DD04FF0040C002505E000BF5046DAF893
:104080000000002853D0D1E90747DCF800E0A76022
:104090000F6AC6457C6008BFCCF800708D622F683F
:1040A000013F2F602F68D1E902244F69946078683E
:1040B000CC689842626008BF7C603868013838601C
:1040C0003868CF6ADBF80000874207EB870088BFBB
:1040D000CBF8007009EB800254684A61A6688C60D6
:1040E000CE60A668A360736059F82020013249F8B9
:1040F000202040F25020C2F200000068C06A8742CF
:10410000BCD344F6A420C2F2000001220260B5E74D
:104110004FF0500080F31188BFF36F8FBFF34F8FC4
:10412000FEE7002181F3118801B0BDE8F08F40F275
:104130005820C2F200000168096821B10068C06817
:10414000C068406801E04FF0FF3040F2040744F6D9
:10415000A42444F6FC11C2F20007C2F20004C2F229
:104160000001086044F60C28C2F20008D8F800509C
:1041700055B10126FFF784FD002818BF2660013DD8
:10418000F8D10020C8F80000206800283FF4EAAE0B
:104190004EF60450CEF200004FF080510160BFF3A4
:1041A0004F8F0120BFF36F8FDDE602E008C8121FBA
:1041B00008C1002AFAD170477047002001E001C110
:1041C000121F002AFBD17047E841000800000020C0
:1041D00008000000AA410008F04100080800002083
:1041E000A04E0000BA4100080024F400AAAAAAAA1E
:04000005080001AD41
:00000001FF
