:020000040800F2
:10000000284E0020C101000829290008B114000869
:1000100025290008F1020008F92B00080000000063
:10002000000000000000000000000000A12B0008FC
:10003000010300080000000031290008CD2B000852
:10004000DB010008DB010008DB010008DB01000820
:10005000DB010008DB010008DB010008DB01000810
:10006000DB010008DB010008DB010008DB01000800
:10007000DB010008DB010008DB010008DB010008F0
:10008000DB010008DB010008DB010008DB010008E0
:10009000DB010008DB010008DB010008DB010008D0
:1000A000DB010008DB010008DB010008DB010008C0
:1000B000DB010008DB010008DB010008DB010008B0
:1000C000DB010008DB010008DB010008DB010008A0
:1000D000DB010008DB010008DB010008DB01000890
:1000E000DB010008DB010008DB010008DB01000880
:1000F000DB010008DB010008DB010008DB01000870
:10010000DB010008DB010008DB010008DB0100085F
:10011000DB010008DB010008DB010008DB0100084F
:10012000DB010008DB010008DB010008F502000824
:10013000DB010008DB010008DB010008DB0100082F
:10014000DB010008DB010008DB010008DB0100081F
:10015000DB010008DB010008DB010008DB0100080F
:10016000DB010008DB010008DB010008DB010008FF
:10017000DB010008DB010008DB01000800000000D3
:10018000DB010008DB010008DB010008DB010008DF
:10019000DB010008DB010008DB010008DB010008CF
:1001A000DB010008DB010008DB010008DFF80CD0F0
:1001B00000F08CF800480047FD2B0008284E002076
:1001C0000648804706480047FEE7FEE7FEE7FEE7F1
:1001D000FEE7FEE7FEE7FEE7FEE7FEE7E52B0008A9
:1001E000AD0100082DE9F05F0546002092469B46D0
:1001F00088460646814640241BE02846414647463D
:10020000224600F053F853465A46C01A914110D383
:1002100011461846224600F03AF82D1A67EB0108FD
:100220004F4622460120002100F031F817EB00096B
:100230004E41201EA4F10104DFDC484631462A4627
:100240004346BDE8F09F40EA01039B0703D009E065
:1002500008C9121F08C0042AFAD203E011F8013BB2
:1002600000F8013B521EF9D27047D2B201E000F80B
:10027000012B491EFBD270470022F6E710B513464A
:100280000A4604461946FFF7F0FF204610BD202A13
:1002900004DB203A00FA02F1002070479140C2F1DD
:1002A000200320FA03F3194390407047202A04DB0F
:1002B000203A21FA02F00021704721FA02F3D040DF
:1002C000C2F120029140084319467047064C074D81
:1002D00006E0E06840F0010394E807009847103416
:1002E000AC42F6D3FFF766FF0C0D0B082C0D0B0884
:1002F000FEE7000040F22010C2F2000000F008B853
:1003000070470000EFF3108072B600BFFEE70000F8
:10031000F0B581B004460020009040F20800C2F21F
:1003200000000268D4E9166048F2B5133768082166
:10033000C1F64E3381403942A2FB03250CD022681E
:1003400013685B0708D5136823F004031360B160DA
:10035000616D41F00101616501218140394208D0A0
:1003600022685269120604D5B160616D41F0020144
:10037000616504218140394208D0226812689207E1
:1003800004D5B160616D41F00401616510218140C7
:10039000394217D020680268120713D5B16002688D
:1003A0000168520308D4C90508D4016821F0080186
:1003B0000160216C21B905E008033FD4216C09B12B
:1003C00020468847E16D202000FA01F23A4241D0F0
:1003D00020680368DB063DD5B26094F835300268CA
:1003E000052B1BD122F016020260426922F0800226
:1003F0004261226C0AB9A26C1AB1026822F00802AA
:1004000002603F208840B060012084F83500216DF3
:100410000020002984F8340052D157E001685203CB
:1004200010D4C90512D4016821F010010160012027
:1004300084F83500002084F8340007E0A16C00291E
:10044000BED1BFE7080301D4616C00E0E16B09B1E4
:1004500020468847606DC8B3606DC0072ED0052068
:1004600084F835002068A90A026822F001020260BF
:10047000009A01328A4200921AD80268D20717D035
:10048000009A01328A42009212D80268D2070FD035
:10049000009A01328A4200920AD80268D20707D035
:1004A000009A01328A42009202D80268D207DFD154
:1004B000012084F83500002084F83400E16C29B173
:1004C000204601B0BDE8F040084700BF01B0F0BDD4
:1004D0002DE9F041044600F0EBF9ECB105460220AD
:1004E00084F835000020216884F83400086820F082
:1004F0000100086021680868C00711D000F0D8F931
:10050000401B0528F6D9032520230320636584F8C2
:100510003550BDE8F08100BF0120BDE8F08100BF8B
:10052000086848F23F02CFF21002D4E9013500EA30
:10053000020C04F10C0898E8C10143EA0C032B43B8
:100540001843D4E9072E304338431043626A40EA27
:100550000E00042A40EA08031CD1206BD4E90A2EBD
:1005600040EA0E00184308604869BEF1000F20F011
:10057000030040EA020040F0040C11D0B8F5005F1F
:1005800036D0B8F1000F45D1022A46D0012A3BD01F
:1005900032B942E00B60486920F0070040EA020CE3
:1005A00001F0F8004AF6AB221038CAF6AA22A0FBE6
:1005B00002231A0948F29A03C0F600039A5C40F23B
:1005C000FF335F284FF03F00C1F814C021EA030158
:1005D00000FA02F088BF0431C4E9161288600023D3
:1005E00001250020636584F83550BDE8F08100BF27
:1005F000032AD5D8012540230120DFE802F0030EAD
:10060000030500BF82E700BFAEF1C070B0FA80F012
:10061000400904E0032A04D3C2D1CEF300600028CD
:10062000BED0012540230120636584F83550BDE824
:10063000F081000070B590F834C0BCF1010F46D0D5
:100640004FF0010C80F834C0D0F858E090F835C075
:10065000BCF1010F38D14FF0020C80F835C04FF0DB
:10066000000CC0F854C0D0F800C08468056CC06DA0
:10067000DCF80060402C26F48026CCF80060CCF832
:1006800004300B4604BF13460A463F2101FA00F02E
:10069000CCF80830CCF80C20CEF80800DCF80000CC
:1006A00040F01600CCF800002DB1DCF8000040F05E
:1006B0000800CCF80000DCF8000040F00100CCF8A5
:1006C0000000002070BD00BF002180F8341002201F
:1006D00070BD0000B0B5044600F0EAF8054640F2EF
:1006E0000000C2F200000078611C18BF044400BF83
:1006F00000F0DEF8401BA042FAD3B0BD2DE9F04F68
:1007000082B000F13E4242F2004502F1FF77C4F2AE
:1007100002050A2243F6004E4FEAB726A84208BF58
:100720000922C4F2010E092E38BF4FEAB722012573
:10073000002600274FF00008009208E008F10108A9
:100740000437B8F1100F06F1020600F0A7800C681C
:1007500005FA08F914EA090FF0D0D1F804B0032221
:100760000BF0030CACF10104B240012C6FEA020A59
:1007700010D88268CC6802EA0A02B4402243826040
:100780004268CBF3001422EA090204FA08F4224377
:10079000426005E0BCF1030F02D14FF0030C20E0F2
:1007A000C2688C6802EA0A02B4402243BCF1020F1C
:1007B000C26016D16FF0030202EA58020244D2F876
:1007C00020C007F01C050F230C69AB402CEA030383
:1007D00004FA05F52B431362D1F804B001250BF0A0
:1007E000030C02680CFA06F302EA0A021A431BF42D
:1007F000403F0260A2D0002243F644030192C4F2BB
:1008000002031A684FF6084C42F480421A601A68D4
:10081000CFF6FF7C02F480420192019A28F0030295
:10082000724452F80C3007F00C050F24AC40A3437F
:10083000009C04FA05F52B4342F80C30DEF8082042
:100840004B6842EA090543F60C4CDC0258BF22EA29
:100850000905CEF80850C4F2010CDCF800209C0217
:1008600042EA090558BF22EA0905CCF80050DEF833
:1008700004209C0342EA090558BF22EA0905CEF884
:100880000450DEF80020DB0342EA090558BF22EAE3
:100890000905CEF80050012550E700BF02B0BDE8C1
:1008A000F08F0000002A08BF090481617047000032
:1008B00044F22830C2F200000068704740F20000A5
:1008C00044F22831C2F20000C2F2000100780A6846
:1008D000104408607047000080B543F60040C4F241
:1008E0000200016841F400710160016841F4806117
:1008F0000160016841F480710160032000F08EF80E
:100900000F2000F005F800F027F8002080BD00005F
:1009100070B540F20006C2F2000640F208013278DB
:10092000C2F200014FF47A730968B3FBF2F2044695
:10093000B1FBF2F1084600F0A5FD0F2C4FF00105C8
:1009400008D838B94FF0FF3021460022002500F0CA
:1009500039F87460284670BD82B0002043F640012B
:100960000190C4F202014A6842F480424A604A6837
:1009700002F480420192019A00900868002240F03F
:100980008050086008680F2100F0805000900098A7
:100990006FF0010002B000F015B80000002848BF59
:1009A0007047C1B200F01F00012202FA00F04EF2BF
:1009B0000012CEF2000242EAD10121F003010860E8
:1009C0007047000010B54EF60C5CCEF2000CDCF85F
:1009D0000030C3F3022E8EF00704042C28BF042439
:1009E000BEF103034FF0FF3E0EFA04F438BF0023BC
:1009F000A14399400EFA03F39A43114300F00F020A
:100A000000F160430901043A03F56443624400289D
:100A100048BF02F10C03197010BD00004EF60C51D6
:100A2000CEF200010A684FF6FF031A4060F30A2273
:100A300042F0806040F0FD70086070472DE9F041A1
:100A4000002800F08B8043F60808C4F20208044630
:100A5000D8F8F8030D4600F00F00884207D288F856
:100A6000F853D8F8F80300F00F00A84276D12068B8
:100A7000810717D5410705D5D8F8001041F4E0519A
:100A8000C8F80010010705D5D8F8001041F46041FE
:100A9000C8F80010D8F80010A26821F0F001114346
:100AA000C8F80010C0073FD1D8F8F80300F00F00D5
:100AB000A84207D988F8F853D8F8F80300F00F00D7
:100AC000A8424BD12068410707D5D8F80010E2684A
:100AD00021F4E0511143C8F80010000708D5D8F8F8
:100AE0000000216920F4604040EAC100C8F800001D
:100AF00000F054F8D8F8001044F69642C1F3031100
:100B0000C0F60002515C40F2080220FA01F140F206
:100B10000400C2F200000068C2F200021160FFF798
:100B2000F7FE0020BDE8F0816068811E022907D22F
:100B300058F8081C89015CBF0120BDE8F08111E074
:100B4000012807D158F8081C89035CBF0120BDE8C3
:100B5000F08107E058F8081C890703D40120BDE89C
:100B6000F08100BFD8F8001021F003010843C8F855
:100B70000000FFF79DFE064641F28837D8F80000D6
:100B8000616800F00C00B0EB810F8DD0FFF790FE94
:100B9000801BB842F2D90320BDE8F08110B543F6BE
:100BA0000404C4F20204606800F00C0008280BD0B2
:100BB000042819BF42F20040C0F2F40047F640009A
:100BC000C0F27D1010BD00BF206821682368490273
:100BD00047F64001C0F27D1100F03F02C3F38810D8
:100BE0005CBF42F20041C0F2F401A1FB000100230E
:100BF000FFF7F8FA21680222C1F3014102EB41013B
:100C0000B0FBF1F010BD00002DE9F04182B00028EA
:100C100068D00446007843F60006C007C4F2020616
:100C20000BD0B06800F00C00042840F09F803068C2
:100C3000800302D56068002854D0207880071AD538
:100C4000B06810F00C0F09D0B06800F00C00082854
:100C500040F0A6807068400200F1A28030688007F2
:100C600002D5E06801283DD13068216920F0F80004
:100C700040EAC10030602078000737D42078400770
:100C80004CD4A56955B3B06800F00C00082840F0BA
:100C9000BB80012D26D07068E16900F480028A4291
:100CA00020D1216A00F03F028A421BD147F6C07171
:100CB000626A0140B1EB821F14D1A16A4FF6FF7343
:100CC000C903994300F44032A1F580318A4209D129
:100CD000E16A00F07060B0EB016F03D1002002B058
:100CE000BDE8F081012002B0BDE8F0816069002814
:100CF00040F20000C4F2472076D00121C0F8801EE7
:100D0000FFF7D6FD054600BF706F8007B6D4FFF72A
:100D1000CFFD401B0228F7D9DDE000BF306C10F09A
:100D200080580AD100200190306C40F0805030642F
:100D3000306C00F080500190019847F20007C4F237
:100D400000073868C00541D4386840F480703860C6
:100D5000FFF7AEFD054600BF3868C00536D4FFF783
:100D6000A7FD401B0228F7D9B5E000BFB06800F02E
:100D70000C00082803D1706840023FF558AF606846
:100D8000B0F5803F07D0B0F5A02F40F08D803068DF
:100D900040F480203060306840F4803030608DE076
:100DA000E068002852D00020C4F2472001210160F1
:100DB000FFF77EFD054600BF306880073FF554AF62
:100DC000FFF776FD401B0228F6D984E0A0680128D1
:100DD00005D005284ED1306F40F004003067306FE9
:100DE00040F0010030674FE00021C0F8801EFFF79F
:100DF0005FFD0546706F80077FF540AFFFF758FD38
:100E0000401B0228F6D966E00027C4F247270020DD
:100E10003866FFF74DFD022D05460BD13068800185
:100E20005ED5FFF745FD401B02284FF00300F5D9C2
:100E300055E700BF306880017FF550AFFFF738FD00
:100E4000401B02284FF00300F4D948E70020C4F209
:100E5000472000210160FFF72BFD05463068800721
:100E60007FF509AFFFF724FD401B02284FF0030078
:100E7000F4D934E7316F002821F001013167316F77
:100E800021F0040131674DD0FFF712FD054641F214
:100E9000883700BF306F800756D4FFF709FD401B2D
:100EA000B842F7D917E000BF3168002821F480313B
:100EB0003160316821F4802131604FD0FFF7F8FCB8
:100EC000054600BF306880033FF5B7AEFFF7F0FC82
:100ED000401B6428F6D9032002B0BDE8F08100BFB2
:100EE00004F11C052FCD084340EA8210D9034FF6C8
:100EF000FF729143A1F5803140EA056008437060BC
:100F000001203866FFF7D4FC044600BF306880013A
:100F10003FF5E4AEFFF7CCFC001B02284FF00300C6
:100F2000F4D9DCE6FFF7C4FC054641F2883700BF80
:100F3000306F800708D5FFF7BBFC401BB8424FF06D
:100F40000300F5D9CBE600BFB8F1000F7FF499AEEE
:100F5000306C20F08050306493E600BFFFF7A8FCAF
:100F6000054600BF306880037FF567AEFFF7A0FC41
:100F7000401B64284FF00300F4D9B0E6704700002E
:100F800090F851007047000070B538B10446406ACF
:100F900030B10020206104F1140007E0012070BD91
:100FA0006068B0F5827F03D004F11C00002101606D
:100FB0000026A66294F8510020B9204684F85060BB
:100FC00000F03CF8022084F8510094E80F0001F48E
:100FD0008271056802F4044225F040050560114461
:100FE00003F400622369114403F0020263691144AF
:100FF00003F00102A369E569114403F4007211448E
:1010000005F03802256A114405F08002A56A1143F3
:1010100005F4005211430160626A042101EA1341A0
:1010200002F0100211444160C16921F40061C16104
:101030000120666584F85100304670BD2DE9F04FFF
:1010400085B00446006843F20007C4F20107B842C5
:1010500002D005B0BDE8F08F002643F630000096C0
:10106000C4F2020041696D4641F480514161416919
:101070004FF0400801F480510091009900960168FA
:101080004FF0020941F00101016001684FF0030ACD
:1010900001F0010100910099009601684FF0050BE5
:1010A00041F0020101600068294600F00200009052
:1010B000009807F55040CDF80080CDE90196CDF8B5
:1010C0000CA0CDF810B0FFF719FB2820CDE90009DE
:1010D00002A880E8400C07F554402946FFF70EFBB4
:1010E00040F2201546F25840C2F20005C4F2020058
:1010F0004FF0C0614FF4806285E803012846C5E9DE
:101100000362C5E90566C5E907666E62FFF7E0F9A7
:10111000002818BFFFF7F6F8A564AC6305B0BDE87A
:10112000F08F00002DE9F04383B0044690F85000A2
:10113000012803D1022003B0BDE8F0834FF001097C
:101140001D4616460F4684F85090FFF7B1FB94F801
:101150005110012944D18046002F4FF0010018BFE3
:10116000002E00F0D6800320002184F85100616534
:101170002763A686E686A163A187E187A06821642C
:10118000B0F5004F2068616407D1016821F040018B
:101190000160016841F4804101600168490603D49F
:1011A000016841F0400101606168731EE268B1FAB4
:1011B00081F1B3FA83F349095B09B2F5006F41EAA3
:1011C00003013DD131B137F8021BC1602763E08EC6
:1011D0000138E086E08E00286CD0681C0DD11EE03E
:1011E000022096E0216B31F8022BC2602163E08E71
:1011F0000138E086E08E00285CD02068816889078D
:10120000F0D4FFF755FBA0EB0800A842F2D303206F
:101210007FE000BFFFF74CFBE08E00284AD020683B
:1012200081688907F6D5216B31F8022BC2602163F2
:10123000E08E0138E086E08E0028F0D13AE000BF71
:1012400039B139780173206B01302063E08E0138A9
:10125000E086E08E70B3681C0BD11BE0216B09782F
:101260000173206B01302063E08E0138E086E08E50
:1012700000B3206881688907F0D4FFF719FBA0EB61
:101280000800A842F3D3032043E000BFFFF710FBA0
:10129000E08E78B1206881688907F7D5216B0978DD
:1012A0000173206B01302063E08E0138E086E08E10
:1012B0000028EFD140F20800C2F20000006849F6B1
:1012C0008171C1F25E61A0FB0101480D4FF47A719A
:1012D000484302906068B0F5827F23D12046802188
:1012E0002A46434601F0E4FB28B1606D40F020003F
:1012F000606520206065A06838B9002001902068F2
:10130000C1680191806801900198606D002818BF44
:101310000120002184F8519084F8501003B0BDE8FA
:10132000F08300BF02980028E5D0029801380290AF
:10133000206880680006DED502980028DBD002987D
:1013400001380290206880680006D4D502980028F1
:10135000D1D0029801380290206880680006CAD572
:1013600002980028C7D0029801380290206880684F
:101370000006D7D4BFE7000010B5044690F850002F
:10138000012804BF022010BD012084F8500094F809
:10139000510001280AD100294FF0010018BF002A8E
:1013A0000AD1002184F8501010BD00BF0220002196
:1013B00084F8501010BD00BF03204FF0000E84F8D9
:1013C0005100C4F854E02163A286E286C4F838E0F4
:1013D000C4E910EEA4F83CE0A4F83EE0A06822685E
:1013E000B0F5004F07D1106820F040001060106881
:1013F00040F480401060A06C42F6B51C42F6BD136C
:10140000C0F6000CC0F60003C0E90F3C42F695138D
:10141000C0F60003C0E9133EE38E0C32FFF70AF971
:1014200050B1606D40F010006065012084F85100FB
:10143000002184F8501010BD20680168490603D4CB
:10144000016841F040010160416841F020014160C4
:10145000416841F0020141600020002184F85010F1
:1014600010BD000040F28011C2F20001884218BF96
:1014700070470020C4F2020010210122FFF712BAC7
:1014800070470000411E0020B0EB116F1CBF01200F
:1014900070474EF21002CEF2000251604EF6235118
:1014A000CEF20001F0230B700721906011607047AD
:1014B000FEE700002DE9F04784B00024C4F20204E6
:1014C0009246894607462046102100229846FFF79B
:1014D000E9F904F58065284610210022FFF7E2F9BA
:1014E00040F280162A20C2F200068DF805000DF1A8
:1014F0000501304601224FF0FF33FFF713FE20466F
:1015000010210122FFF7CEF9284610210122FFF712
:10151000C9F9204610210022FFF7C4F9380A8DF8D6
:1015200006000DF10601304601224FF0FF33FFF7B0
:10153000F9FD0DF10701304601224FF0FF338DF820
:101540000770FFF7EFFD204610210122FFF7AAF9EF
:10155000204610210022FFF7A5F94FEA1A208DF846
:10156000080002A9304601224FF0FF33FFF7DAFDF1
:101570000DF10901304601224FF0FF338DF809A02B
:10158000FFF7D0FD204610210122FFF78BF92046FE
:1015900010210022FFF786F9284610210022FFF7CC
:1015A00081F92B208DF80A000DF10A013046012245
:1015B0004FF0FF33FFF7B6FD204610210122FFF761
:1015C00071F9284610210122FFF76CF920461021FD
:1015D0000022FFF767F94FEA19208DF80B000DF193
:1015E0000B01304601224FF0FF33FFF79BFD03A9AB
:1015F000304601224FF0FF338DF80C90FFF792FD3B
:10160000204610210122FFF74DF92046102100222B
:10161000FFF748F94FEA18208DF80D000DF10D0184
:10162000304601224FF0FF33FFF77CFD0DF10E0134
:10163000304601224FF0FF338DF80E80FFF772FD28
:10164000204610210122FFF72DF92046102100220B
:10165000FFF728F9284610210022FFF723F92C2054
:101660008DF80F000DF10F01304601224FF0FF33CE
:10167000FFF758FD204610210122FFF713F92846F5
:1016800010210122FFF70EF904B0BDE8F087000039
:101690002DE9F04381B00E468146501E591E9846F2
:1016A000154682B28BB248463146FFF703FF4645E6
:1016B00038BFA9450DD2089C4F4600BF204601F017
:1016C00033F80137B8B2A842F8D30136B0B240457A
:1016D000F2D301B0BDE8F0832DE9F04F81B00024D2
:1016E000C4F2020404F5406528464FF4804100220C
:1016F0004FF00008FFF7D6F83220FEF7EBFF284640
:101700004FF4804101224FF0010AFFF7CBF832205D
:10171000FEF7E0FF28464FF400410122FFF7C2F830
:101720003220FEF7D7FF204610210022FFF7BAF83B
:10173000204610210022FFF7B5F804F58065284601
:1017400010210022FFF7AEF840F28016C2F2000628
:1017500011270DF10301304601224FF0FF338DF8C0
:101760000370FFF7DFFC204610210122FFF79AF8F3
:10177000284610210122FFF795F82046102100226B
:10178000FFF790F8284610210022FFF78BF80DF1A3
:101790000301304601224FF0FF338DF80370FFF74D
:1017A000C1FC204610210122FFF77CF828461021B9
:1017B0000122FFF777F83220FEF78CFF2046102138
:1017C0000022FFF76FF8284610210022FFF76AF881
:1017D00036208DF803000DF10301304601224FF051
:1017E000FF33FFF79FFC204610210122FFF75AF834
:1017F000284610210122FFF755F82046102100222B
:10180000FFF750F80DF10301304601224FF0FF338E
:101810008DF80380FFF786FC204610210122FFF798
:1018200041F8204610210022FFF73CF828461021FD
:101830000022FFF737F83A208DF803000DF103017D
:10184000304601224FF0FF33FFF76CFC2046102199
:101850000122FFF727F8284610210122FFF722F87E
:10186000204610210022FFF71DF855208DF80300B7
:101870000DF10301304601224FF0FF33FFF752FC18
:10188000204610210122FFF70DF8204610210022EA
:10189000FFF708F8284610210022FFF703F8B220CE
:1018A0008DF803000DF10301304601224FF0FF33A4
:1018B000FFF738FC204610210122FEF7F3FF2846EF
:1018C00010210122FEF7EEFF204610210022FEF734
:1018D000E9FF1F270DF10301304601224FF0FF33CE
:1018E0008DF80370FFF71EFC204610210122FEF741
:1018F000D9FF204610210022FEF7D4FF0DF103018D
:10190000304601224FF0FF338DF80370FFF70AFCD9
:10191000204610210122FEF7C5FF2046102100229B
:10192000FEF7C0FF0DF10301304601224FF0FF33F7
:101930008DF80380FFF7F6FB204610210122FEF709
:10194000B1FF204610210022FEF7ACFF4FF0330913
:101950000DF10301304601224FF0FF338DF8039063
:10196000FFF7E0FB204610210122FEF79BFF2046F7
:1019700010210022FEF796FF0DF1030130460122EF
:101980004FF0FF338DF80390FFF7CCFB204610217A
:101990000122FEF787FF204610210022FEF782FF7A
:1019A000284610210022FEF77DFFB7208DF80300A6
:1019B0000DF10301304601224FF0FF33FFF7B2FB78
:1019C000204610210122FEF76DFF2846102101223A
:1019D000FEF768FF204610210022FEF763FF352046
:1019E0008DF803000DF10301304601224FF0FF3363
:1019F000FFF798FB204610210122FEF753FF2046F7
:101A000010210022FEF74EFF284610210022FEF78B
:101A100049FFBB208DF803000DF103013046012280
:101A20004FF0FF33FFF77EFB204610210122FEF727
:101A300039FF284610210122FEF734FF20461021ED
:101A40000022FEF72FFF2B208DF803000DF103017C
:101A5000304601224FF0FF33FFF764FB2046102190
:101A60000122FEF71FFF204610210022FEF71AFF79
:101A7000284610210022FEF715FFC0208DF8030034
:101A80000DF10301304601224FF0FF33FFF74AFB0F
:101A9000204610210122FEF705FF284610210122D1
:101AA000FEF700FF204610210022FEF7FBFE2C204F
:101AB0008DF803000DF10301304601224FF0FF3392
:101AC000FFF730FB204610210122FEF7EBFE2046F7
:101AD00010210022FEF7E6FE284610210022FEF724
:101AE000E1FEC2208DF803000DF103013046012212
:101AF0004FF0FF33FFF716FB204610210122FEF7BF
:101B0000D1FE284610210122FEF7CCFE20461021EE
:101B10000022FEF7C7FE0DF10301304601224FF00F
:101B2000FF338DF803A0FFF7FDFA204610210122B4
:101B3000FEF7B8FE204610210022FEF7B3FE28462D
:101B400010210022FEF7AEFEC3208DF803000DF138
:101B50000301304601224FF0FF33FFF7E3FA20463E
:101B600010210122FEF79EFE284610210122FEF7D9
:101B700099FE204610210022FEF794FE0F208DF8DA
:101B800003000DF10301304601224FF0FF33FFF750
:101B9000C9FA204610210122FEF784FE20461021BA
:101BA0000022FEF77FFE284610210022FEF77AFE73
:101BB000C4208DF803000DF10301304601224FF0DF
:101BC000FF33FFF7AFFA204610210122FEF76AFE2D
:101BD000284610210122FEF765FE20461021002232
:101BE000FEF760FE20208DF803000DF10301304662
:101BF00001224FF0FF33FFF795FA20461021012212
:101C0000FEF750FE204610210022FEF74BFE28462C
:101C100010210022FEF746FEC6208DF803000DF1CC
:101C20000301304601224FF0FF33FFF77BFA2046D5
:101C300010210122FEF736FE284610210122FEF770
:101C400031FE204610210022FEF72CFE0DF103018B
:101C5000304601224FF0FF338DF803A0FFF762FA00
:101C6000204610210122FEF71DFE204610210022F1
:101C7000FEF718FE284610210022FEF713FED020A2
:101C80008DF803000DF10301304601224FF0FF33C0
:101C9000FFF748FA204610210122FEF703FE2846EE
:101CA00010210122FEF7FEFD204610210022FEF742
:101CB000F9FDA4208DF803000DF103013046012247
:101CC0004FF0FF33FFF72EFA204610210122FEF7D6
:101CD000E9FD204610210022FEF7E4FDA1270DF1C9
:101CE0000301304601224FF0FF338DF80370FFF7F8
:101CF00019FA204610210122FEF7D4FD20461021BA
:101D00000022FEF7CFFD284610210022FEF7CAFD73
:101D1000D6208DF803000DF10301304601224FF06B
:101D2000FF33FFF7FFF9204610210122FEF7BAFD2D
:101D3000284610210122FEF7B5FD20461021002281
:101D4000FEF7B0FD0DF10301304601224FF0FF33E5
:101D50008DF80370FFF7E6F9204610210122FEF707
:101D6000A1FD204610210022FEF79CFD28461021EF
:101D70000022FEF797FDE0208DF803000DF103012E
:101D8000304601224FF0FF33FFF7CCF920461021F7
:101D90000122FEF787FD284610210122FEF782FD71
:101DA000204610210022FEF77DFD4FF0F0080DF1D6
:101DB0000301304601224FF0FF338DF80380FFF717
:101DC000B1F9204610210122FEF76CFD20461021BA
:101DD0000022FEF767FD04270DF1030130460122C2
:101DE0004FF0FF338DF80370FFF79CF92046102168
:101DF0000122FEF757FD204610210022FEF752FD7A
:101E000007208DF803000DF10301304601224FF049
:101E1000FF33FFF787F9204610210122FEF742FD2C
:101E2000204610210022FEF73DFD0DF10301304652
:101E300001224FF0FF338DF80370FFF773F920464E
:101E400010210122FEF72EFD204610210022FEF770
:101E500029FD0DF10301304601224FF0FF338DF8CB
:101E60000370FFF75FF9204610210122FEF71AFDEB
:101E7000204610210022FEF715FD0DF1030130462A
:101E800001224FF0FF338DF80370FFF74BF9204626
:101E900010210122FEF706FD204610210022FEF748
:101EA00001FD4FF0250B0DF10301304601224FF0EB
:101EB000FF338DF803B0FFF735F9204610210122DA
:101EC000FEF7F0FC204610210022FEF7EBFC0DF19E
:101ED0000301304601224FF0FF338DF80390FFF7E6
:101EE00021F9204610210122FEF7DCFC20461021BA
:101EF0000022FEF7D7FC3C208DF803000DF1030112
:101F0000304601224FF0FF33FFF70CF92046102135
:101F10000122FEF7C7FC204610210022FEF7C2FC7A
:101F200036208DF803000DF10301304601224FF0F9
:101F3000FF33FFF7F7F8204610210122FEF7B2FC2D
:101F4000204610210022FEF7ADFC4FF0140A0DF1DF
:101F50000301304601224FF0FF338DF803A0FFF755
:101F6000E1F8204610210122FEF79CFC20461021BA
:101F70000022FEF797FC4FF012090DF103013046E5
:101F800001224FF0FF338DF80390FFF7CBF8204686
:101F900010210122FEF786FC204610210022FEF7C8
:101FA00081FC29208DF803000DF103013046012248
:101FB0004FF0FF33FFF7B6F8204610210122FEF75D
:101FC00071FC204610210022FEF76CFC30208DF8B9
:101FD00003000DF10301304601224FF0FF33FFF7FC
:101FE000A1F8204610210122FEF75CFC20461021BA
:101FF0000022FEF757FC284610210022FEF752FC73
:10200000E1208DF803000DF10301304601224FF06D
:10201000FF33FFF787F8204610210122FEF742FC2C
:10202000284610210122FEF73DFC20461021002207
:10203000FEF738FC0DF10301304601224FF0FF336B
:102040008DF80380FFF76EF8204610210122FEF77D
:1020500029FC204610210022FEF724FC02208DF8E6
:1020600003000DF10301304601224FF0FF33FFF76B
:1020700059F8204610210122FEF714FC20461021B9
:102080000022FEF70FFC0DF10301304601224FF054
:10209000FF338DF80370FFF745F820461021012229
:1020A000FEF700FC204610210022FEF7FBFB05276F
:1020B0000DF10301304601224FF0FF338DF803701C
:1020C000FFF730F8204610210122FEF7EBFB2046F7
:1020D00010210022FEF7E6FB0DF10301304601223C
:1020E0004FF0FF338DF80370FFF71CF820461021E6
:1020F0000122FEF7D7FB204610210022FEF7D2FB7B
:1021000021270DF10301304601224FF0FF338DF8F6
:102110000370FFF707F8204610210122FEF7C2FBEB
:10212000204610210022FEF7BDFB0DF103013046D1
:1021300001224FF0FF338DF803B0FEF7F3FF204686
:1021400010210122FEF7AEFB204610210022FEF7EF
:10215000A9FB32208DF803000DF103013046012266
:102160004FF0FF33FEF7DEFF204610210122FEF77D
:1021700099FB204610210022FEF794FB3B208DF8AE
:1021800003000DF10301304601224FF0FF33FEF74B
:10219000C9FF204610210122FEF784FB20461021B2
:1021A0000022FEF77FFB38208DF803000DF10301BC
:1021B000304601224FF0FF33FEF7B4FF20461021D6
:1021C0000122FEF76FFB204610210022FEF76AFB7A
:1021D0000DF10301304601224FF0FF338DF80390DB
:1021E000FEF7A0FF204610210122FEF75BFB2046F0
:1021F00010210022FEF756FB0DF1030130460122AB
:102200004FF0FF338DF803A0FEF78CFF204610211E
:102210000122FEF747FB204610210022FEF742FB79
:1022200027208DF803000DF10301304601224FF005
:10223000FF33FEF777FF204610210122FEF732FB25
:10224000204610210022FEF72DFB31208DF80300DF
:102250000DF10301304601224FF0FF33FEF762FF1C
:10226000204610210122FEF71DFB204610210022EE
:10227000FEF718FB284610210022FEF713FB0DF194
:102280000301304601224FF0FF338DF80370FEF753
:1022900049FF204610210122FEF704FB28461021A9
:1022A0000122FEF7FFFA204610210022FEF7FAFA7B
:1022B000284610210022FEF7F5FA29208DF80300A8
:1022C0000DF10301304601224FF0FF33FEF72AFFE4
:1022D000204610210122FEF7E5FA284610210122AE
:1022E000FEF7E0FA01B0BDE8F08F00002DE9F04FF5
:1022F00085B00F9E81464FEA560830090493154673
:102300008B4601215FEA487218BF01EB161000FBF3
:1023100006F409EB56000BEB06010138013982B2D5
:102320008BB248465946FFF7C5F8002C00F095815E
:10233000A6F10C00C1B2800140EA9100C2B2052AA8
:1023400000F28B810120904010F02B0F00F085816E
:102350001099A5F12000002946F6DA0E44F6A643AE
:1023600045F21A1C45F20A71C0B2C0F6000EC0F662
:102370000003C0F6000CC0F60001039200F0C48018
:1023800000EB400603EB860501EB061300270293E2
:102390000CEB00130EEB80104E460193009000BF33
:1023A000032A05D0012A05D028462AB1009802E068
:1023B000029800E00198384490F800A05FEACA70E3
:1023C0000AD0B0B21FFA8BF102460B46FFF772F843
:1023D000049800F0A9F9039A701C80B2A0EB0901DF
:1023E000414500F087805FEA8A7109D51FFA8BF1B9
:1023F00002460B46FFF75EF8049800F095F9039A41
:10240000B01C80B2A0EB0901414573D05FEA4A716C
:1024100009D51FFA8BF102460B46FFF74BF80498DB
:1024200000F082F9039AF01C80B2A0EB090141454B
:1024300060D05FEA0A7109D51FFA8BF102460B469C
:10244000FFF738F8049800F06FF9039A301D80B256
:10245000A0EB090141454DD05FEACA6109D51FFAD9
:102460008BF102460B46FFF725F8049800F05CF963
:10247000039A701D80B2A0EB090141453AD05FEA92
:102480008A6109D51FFA8BF102460B46FFF712F855
:10249000049800F049F9039AB01D80B2A0EB09013D
:1024A000414527D05FEA4A6109D51FFA8BF1024600
:1024B0000B46FEF7FFFF049800F036F9039AF01D73
:1024C00080B2A0EB0901414514D04FFA8AF1B1F175
:1024D000FF3F09DC1FFA8BF102460B46FEF7EAFFCD
:1024E000049800F021F9039A0836B0B2A0EB090075
:1024F000404502D10BF1010B4E460137013C05F17D
:1025000001057FF44DAFA8E0DDF838A000EB4001F5
:102510000EEB80170026029103EB81010CEB0010FB
:102520004FF0000B0191009072B1012A0ED0DDF83E
:102530001090032A38460DD145F20A70029AC0F66F
:10254000000000EB021004E0019800E00098DDF8C4
:10255000109030440578E807484608BF504600F020
:10256000E3F80BF10100C0B2B0FBF8F101FB180079
:10257000002869D0A807484658BF504600F0D4F854
:102580000BF10200C0B2B0FBF8F101FB180000280B
:102590005AD06807484658BF504600F0C5F80BF1BE
:1025A0000300C0B2B0FBF8F101FB180000284BD0CB
:1025B0002807484658BF504600F0B6F80BF1040013
:1025C000C0B2B0FBF8F101FB1800E8B3E8064846DA
:1025D00058BF504600F0A8F80BF10500C0B2B0FBA0
:1025E000F8F101FB180078B3A806484658BF5046DA
:1025F00000F09AF80BF10600C0B2B0FBF8F101FB55
:10260000180008B36806484658BF504600F08CF8DA
:102610000BF10700C0B2B0FBF8F101FB180098B154
:1026200068B2002858BFD14648460BF1080500F0B3
:102630007BF8E8B2B0FBF8F101FB180BBBF1000F1F
:1026400018BFAB4602E000BF4FF0000B039A013603
:10265000013C07F101077FF467AF05B0BDE8F08FDB
:1026600070B540F280150446C2F200052846FEF718
:1026700087FC0328FAD0002500200021F022F02357
:10268000C4F20205FEF716FF284610210022FEF7CD
:1026900009F905F5806010210122FEF703F940F2E7
:1026A0008016C2F20006304621464FF46142FEF722
:1026B00063FE00BF3046FEF763FC0328FAD02846CD
:1026C00010210022FEF7EEF840F2801004F561417F
:1026D000C2F200004FF46142BDE87040FEF74CBE0C
:1026E0002DE9F04F83B09B461378CBB1DDE90C9A0E
:1026F000DDF838800D4606464FEA5A07541E00BFE3
:10270000B0B2DAB229465B46CDE9009ACDF808802E
:10271000FFF7ECFDA3783E44002B04F10104EFD158
:1027200003B0BDE8F08F000070B582B00024C4F2A1
:1027300002040546204610210022FEF7B3F840F2BD
:102740008016280AC2F200068DF806000DF1060177
:10275000304601224FF0FF33FEF7E4FC0DF1070194
:10276000304601224FF0FF338DF80750FEF7DAFCB8
:10277000204610210122FEF795F802B070BD00003E
:1027800080B582B00020019043F63000C4F2020010
:102790000168002241F4800101600068052100F415
:1027A0008000019001983B20FEF70CF93B2002B01D
:1027B000BDE88040FEF7F2B880B542F6C53048F279
:1027C000A402C0F60000C0F60002002100F0D8FA12
:1027D00040F21811C2F20001086080BD2DE9F04FEF
:1027E00087B0002443F63000CDE905440194C4F2DB
:1027F00002000168002641F0100101600168C4F286
:10280000020601F010010191019901940168002272
:1028100041F08001016001684FF0100901F0800172
:10282000019101990194016841F001010160016881
:1028300001F00101019101990194016841F0080141
:102840000160016801F0080101910199019401689A
:1028500041F0020101600068102100F002000190C7
:1028600001983046FEF71EF806F5406B58464FF4C7
:10287000404100224FF4404AFEF714F806F5806804
:10288000404610210022FEF70DF8182002904FF468
:10289000881002AFCDE9030406F580503946FDF7F4
:1028A0002DFF012530463946CDF80890CDE9035477
:1028B0000594FDF723FF58463946CDE902A5CDE939
:1028C0000444FDF71BFF40463946CDE90295CDE9AA
:1028D0000444FDF713FF07B0BDE8F08F80B540F268
:1028E000801043F20001C2F20000C4F201014FF473
:1028F000827200234FF4007C80E80E000A21C0E9B8
:102900000333C0E9053CC361C0E90833C0E90A31BB
:10291000FEF73AFB002808BF80BDBDE88040FDF708
:10292000F1BC0000FEE70000FEE700000000000030
:10293000EFF30980BFF36F8F154B1A681EF0100F6D
:1029400008BF20ED108A20E9F04F10602DE9090042
:102950004FF0500080F31188BFF34F8FBFF36F8F9C
:1029600001F052FB4FF0000080F31188BDE8090030
:1029700019680868B0E8F04F1EF0100F08BFB0ECFF
:10298000108A80F30988BFF36F8F704700BF00BFC4
:1029900010000020806B01684A6822F003024A6040
:1029A000416D41F010014165012180F85110FEF7A1
:1029B000E5BA0000806BFEF763BD0000B0B582B0E1
:1029C000846B0546FDF774FF29680968C90569D459
:1029D0000346206849F681724168C1F25E6221F0C7
:1029E00020014160416821F00201416040F208018C
:1029F000C2F200010968A1FB0212510D4FF47A7274
:102A0000514301916168B1F5827F25D12046802133
:102A1000642200F04DF838B1606D40F02000606530
:102A2000606D40F020006065A06838B9002000901B
:102A30002068C16800918068009000980020E086BE
:102A4000012084F85100606D60B3204602B0BDE8FB
:102A5000B040FEF793BA00BF01990029E4D0019974
:102A60000139019181680906DED501990029DBD081
:102A700001990139019181680906D5D5019900298B
:102A8000D2D001990139019181680906CCD501990B
:102A90000029C9D001990139019181680906DBD467
:102AA000C2E700BF204602B0BDE8B040FEF7DABC86
:102AB0002DE9F04182B01E4690460D460446FDF7D2
:102AC000F7FE301A00EB0807FDF7F2FE40F20801AE
:102AD000C2F200010968C1F3CB3179430191216849
:102AE0008A682A40AA4227D1064618F101001FD061
:102AF000FDF7DEFE801BB84222D201980199002822
:102B0000A1F1010101912168896808BF074601EA26
:102B10000500A842ECD00FE088682840A8420BD1FD
:102B200088682840A84207D188682840A84203D175
:102B300088682840A842EFD0002002B0BDE8F081AC
:102B4000D4E900014268B1F5827F22F0E0024260E0
:102B50000AD1A168B1F5004F02D0B1F5806F03D161
:102B6000016821F040010160A16AB1F5005F07D161
:102B7000016821F400510160016841F400510160D5
:102B8000012084F85100002084F85000032002B096
:102B9000BDE8F0810000000000000000000000001F
:102BA000074B19680868B0E8F04F80F30988BFF355
:102BB0006F8F4FF0000080F31188704700BF00BF97
:102BC00010000020012000F099F8FBE780B5FDF728
:102BD00075FE01F067FE012808BF80BDBDE880409A
:102BE00001F032BB4EF68850CEF20000016841F48D
:102BF0007001016070470000FEE7000094B047F2EA
:102C00000005C4F20005FDF767FE08AC201D2C216D
:102C1000FDF732FB002643F640000796CDE9056636
:102C2000CDE903660296C4F20200016841F08051CA
:102C300001600068012100F0805002900298029625
:102C4000286861F38F302860286800F440400290C3
:102C500002980220089010200C9020460B910E96AE
:102C6000FDF7D2FF20B1EFF3108072B6FEE700BF90
:102C70000F20CDE9030603A80021CDE905660796DC
:102C8000FDF7DCFE20B1EFF3108072B6FEE700BF67
:102C9000FFF7A4FDFFF774FDFFF720FEFEF71CFD14
:102CA00005F5C83010210022FDF7FCFD00200021B1
:102CB000F022F023FEF7FEFB012040F21C160090EC
:102CC00043F60910C2F20006C0F6000008A14FF456
:102CD00000720023019601F079FD01F015F900F072
:102CE0001DF8FFF769FD00F02DF800BFFEE700BFFB
:102CF0004C434420446973706C617900EFF30581A3
:102D000000291CBF6FF005007047002804BF002099
:102D1000704780B501F02EF8002080BDEFF30580EC
:102D200000281CBF6FF00500704740F21410C2F27B
:102D300000000168002911BF4FF0FF300121016040
:102D40000020704710B5EFF3058000281CBF6FF01E
:102D5000050010BD40F21410C2F200000168012904
:102D60001CBF4FF0FF3010BD4EF61F51CEF20001D8
:102D700000240C700221016001F0C6F8204610BD4D
:102D80002DE9F04184B08E4600240394EFF30581D1
:102D900050B149B94FF0000452B19369002B08BFFC
:102DA0001823382B16D90024204604B0BDE8F08142
:102DB00080251823002103AF0093AAB27346019720
:102DC00001F004FD0399012808BF0C46204604B019
:102DD000BDE8F0811179C90724D15769D2E902868B
:102DE0004FEA970C1168002F654608BF8025B8F19F
:102DF000000F13D05C2E15D312690024002A18BFCF
:102E0000002FD1D0CDE9003262467346CDF808805C
:102E100001F00CFD04B0BDE8F08100BF16B91269E5
:102E2000002AC8D00024204604B0BDE8F08100008C
:102E30002DE9F041044600F05BFE40F21006C2F2BC
:102E40000006F06840F2C8250130F0603068C2F238
:102E5000000558B13069002840F007813068E16A08
:102E6000C06A884298BF3460FFE000BF3460F068F9
:102E7000012840F0FA80284600F0E0FD05F114003A
:102E800000F0DCFD05F1280000F0D8FD05F13C0064
:102E900000F0D4FD05F1500000F0D0FD05F1640014
:102EA00000F0CCFD05F1780000F0C8FD05F18C00C4
:102EB00000F0C4FD05F1A00000F0C0FD05F1B40074
:102EC00000F0BCFD05F1C80000F0B8FD05F1DC0024
:102ED00000F0B4FD05F1F00000F0B0FD05F58270E2
:102EE00000F0ACFD05F58C7000F0A8FD05F59670BE
:102EF00000F0A4FD05F5A07000F0A0FD05F5AA7096
:102F000000F09CFD05F5B47000F098FD05F5BE706D
:102F100000F094FD05F5C87000F090FD05F5D27045
:102F200000F08CFD05F5DC7000F088FD05F5E6701D
:102F300000F084FD05F5F07000F080FD05F5FA70F5
:102F400000F07CFD05F5027000F078FD05F50770D6
:102F500000F074FD05F50C7000F070FD05F51170C2
:102F600000F06CFD05F5167000F068FD05F51B70AE
:102F700000F064FD05F5207000F060FD05F525709A
:102F800000F05CFD05F52A7000F058FD05F52F7086
:102F900000F054FD05F5347000F050FD05F5397072
:102FA00000F04CFD05F53E7000F048FD05F543705E
:102FB00000F044FD05F5487000F040FD05F54D704A
:102FC00000F03CFD05F5527000F038FD05F5577036
:102FD00000F034FD05F55C7000F030FD05F5617022
:102FE00000F02CFD05F5667000F028FD05F56B700E
:102FF00000F024FD05F5707000F020FD05F57570FA
:1030000000F01CFD05F57A7000F018FD05F57F70E5
:1030100000F014FD05F5826000F010FD05F224407B
:1030200000F00CFD05F5876000F008FD05F24C404E
:1030300000F004FD40F2EC08C2F20008404600F047
:10304000FDFC08F11407384600F0F8FC06F16400B6
:1030500000F0F4FC06F13C0000F0F0FC06F150003A
:1030600000F0ECFCC6F81C8037627068716A421C84
:10307000E06A72608842626488BF706200EB800020
:1030800005EB8000211D00F01BFD00F055FD3069AF
:1030900088B13068E16AC06A884228BFBDE8F08123
:1030A0004EF60450CEF200004FF080510160BFF3A5
:1030B0004F8FBFF36F8FBDE8F081000040F2100525
:1030C00040F2C8264EF60458C2F20005C2F20006CD
:1030D000CEF200084FF0805703E000BF204600F01A
:1030E00043FDA868D0B100F003FDA86CC468201DA2
:1030F00000F076FCE8680138E860A8680138A8604C
:1031000000F01AFD94F859000228EAD00128E5D011
:1031100070B9206B00F028FDE0E700BF306802289E
:10312000DFD3C8F80070BFF34F8FBFF36F8FD8E7BE
:103130004FF0500080F31188BFF36F8FBFF34F8FB4
:10314000FEE700002DE9F0470A9C8246206B1646F8
:103150000F46DDE908599100A5229846FDF785F84C
:10316000206B002F00EB8600A0F1040020F0070682
:1031700056D0387884F83400387800284BD07878E6
:1031800084F835007878002845D0B87884F836007F
:10319000B87800283FD0F87884F83700F878D0B3B2
:1031A000387984F838003879A8B3787984F8390008
:1031B000787980B3B87984F83A00B87958B3F87957
:1031C00084F83B00F87930B3387A84F83C00387AD8
:1031D00008B3787A84F83D00787AE0B1B87A84F858
:1031E0003E00B87AB8B1F87A84F83F00F87A90B126
:1031F000387B84F84000387B68B1787B84F84100E4
:10320000787B40B1B87B84F84200B87B00281CBFB3
:10321000F87B84F84300002084F8430003E000BFFB
:10322000002084F834000027201D372D28BF3725C3
:10323000E562C4E9135700F00DFC04F1180000F03A
:1032400009FCC5F13800A061304651464246246170
:103250006462676584F8587000F042FBB9F1000FB2
:10326000206018BFC9F80040BDE8F0870848006832
:10327000006880F308884FF0000080F3148862B67D
:1032800061B6BFF34F8FBFF36F8F00DF00BF000049
:1032900008ED00E081B00020009040F20C00C2F286
:1032A000000000684FF0500181F31188BFF36F8F69
:1032B000BFF34F8F013007D0FEE700BF009830B951
:1032C000009820B9009810B900980028F6D001B0F5
:1032D0007047000088B040F2880AC2F2000A0DF17F
:1032E0001009EB46DAF8080005681DB1C0680468EB
:1032F00001E000BF002400F07FFE01F0E3FADAF8FD
:1033000010100646884220D3002DCAF8106051D014
:10331000A6424FD301F0DEFBDAF80800C068C768A8
:103320003D1D284600F05CFB97F82800410745D476
:1033300000F0FE0087F8280084E000BF6860DAF83B
:10334000080039462D6100F089FBDAF808000168B1
:1033500031B3C068C56804682F1D384600F040FBD3
:10336000296A2846884795F828004007EDD5A869BE
:103370002044A042E2D8DAF80000002800F048819A
:10338000002004A931C101F08DFADAF800004946A5
:103390000022002300F0E0FF0028D6D138E100BF72
:1033A000DAF80C10CAF81060CAE9021001F092FBBA
:1033B0001AE100BF65B1002210E000BFB8693F61AB
:1033C0000119B14279601FD90AF1080021E000BF5C
:1033D000DAF80C000068B0FA80F04209DAF8000070
:1033E000A11B00F09DFC01F075FB002840F0FC8063
:1033F0004EF60450CEF200004FF080510160BFF352
:103400004F8FBFF36F8FEFE0311B814206D20AF17D
:103410000C000068294600F021FB13E0DAF80000F8
:10342000002800F01381002004A991C101F03AFAAC
:10343000DAF8000049460022002300F08DFF002842
:1034400000F00481396A38468847CDE00098B0F131
:10345000FF3F07DCDDE90120039990470098002831
:1034600000F1C280029E706910B1301D00F0B8FA00
:1034700001F028FADAF81010074688420DD30098B8
:10348000CAF8107009283FD9AEE000BF6860DAF8CA
:10349000080021462D6100F0E1FADAF80800016821
:1034A00041B3C068C568D0F800802C1D204600F0EC
:1034B00097FA296A2846884795F828004007ECD5EE
:1034C000A86940444045E1D8DAF80000002800F03F
:1034D00095800020CDE90408069501F0E3F9DAF8BB
:1034E000000049460022002300F036FF0028D4D116
:1034F00084E000BFDAF80C10CAE902100098CAF89C
:103500001070092800F27080DFE800F0060606441B
:1035100048620606444800BF96F82800019A40F029
:103520000101B06986F828108318314641F8043F3C
:10353000BB42366106D997420AF1080007D293428E
:103540000AD204E0BA1A824206D20AF10C000068DC
:1035500000F084FA48E000BF316A3046884796F8A8
:103560002800400740D5DAF8000000285AD001981A
:10357000B169069608440021CDE9041001F092F9E2
:10358000DAF8000049460022002300F0E5FE58BBAF
:1035900048E000BF96F8280022E000BF96F8280017
:1035A00040F00101019886F828100028B06143D04E
:1035B000384431460AF10C0241F8040F3661B84232
:1035C00088BF0AF10802106800F048FA0CE000BF5A
:1035D00096F82800810703D4304600F0C5FA03E0CE
:1035E00000F0FE0086F82800DAF8000059460022B4
:1035F00000F0C8FF00287FF429AF73E64FF05000B9
:1036000080F31188BFF36F8FBFF34F8FFEE700BFCA
:103610004FF0500080F31188BFF36F8FBFF34F8FCF
:10362000FEE700BF4FF0500080F31188BFF36F8FAB
:10363000BFF34F8FFEE700BF4FF0500080F31188BB
:10364000BFF36F8FBFF34F8FFEE700BF4FF0500007
:1036500080F31188BFF36F8FBFF34F8FFEE7000039
:10366000F0B581B0044600F043FA94F94560012EAC
:103670000FDB04F1240500BF286850B1284601F093
:10368000EFF9002818BF00F0BFFBF0B2013E01289F
:10369000F2D8FF2684F8456000F04EFA00F028FAD0
:1036A00094F94470012F0EDB04F11005286850B125
:1036B000284601F0D5F9002818BF00F0A5FBF8B2A4
:1036C000013F0128F2D884F8446001B0BDE8F04021
:1036D00000F032BA70B5044600F08EFC40F2C40C23
:1036E000C2F2000CDCF8040050B19CF80000002885
:1036F00018BF4FF000404FF0000574BB8DE000BFD5
:1037000040F22870C2F20000C21D22F0070210F041
:103710000701A0EB020318BF104600224FF47055BA
:10372000CCE90602002918BF03F57055411921F0B4
:103730000701A1F10803CCF8043041E90222191A6B
:10374000C0E9003101208CF800004FF00040CCE9C6
:103750000211002C4FF000055FD020405DD124F015
:10376000070000F11002600708BF04F10802002AF8
:103770004FF0000551D0DCF8080082424DD8604679
:1037800050F818EFDEF8045095422CD2DEF8001005
:10379000C1B174464D68954218D20B68B3B15D68EB
:1037A000954217D21868A8B14568954216D20468A8
:1037B000A4B16568954215D22168A6460029E9D1D1
:1037C00011E000BF0CF118000DE000BF8E4620464E
:1037D00009E000BF9E46084605E000BF8646184641
:1037E00001E000BFA646DCF804108E4514D0016845
:1037F000DEF80040AB1A112B04604DD30EEB02052E
:10380000680719D04FF0500080F31188BFF36F8F15
:10381000BFF34F8FFEE700BF002501F05BF968079B
:103820005BD04FF0500080F31188BFF36F8FBFF370
:103830004F8F00BFFEE700BF0CF118006B60CEF8A1
:10384000042000BF0368AB420AD21868A8420BD21A
:103850000368AB4204D218681A46A842F2D304E0C7
:103860000246184601E000BF1A4653686C68D61835
:10387000AE4202D11C44154654602B19834207D135
:10388000DCF80430984203D0D0E9000323446B6095
:10389000AA42286018BF156001F10805DEF804008F
:1038A000DCE90212091A9142CCF8081038BFCCF8B2
:1038B0000C109CF80010002918BF40F00040CEF812
:1038C0000400DCF8100000210130CEF80010CCF824
:1038D000100001F0FFF86807A3D1284670BD000072
:1038E000034643F29520C0F600004FF0807C21F0A3
:1038F000010103E903106FF0020043F8240CA3F167
:10390000440043F8202C704788B046F66F50C0F250
:103910006500079046F25750C6F26C30069044F6A8
:103920004560C0F25300059044F24C10C0F24200D2
:1039300004904FF6FF7400200021F022F023009441
:10394000FDF7A6FE0125202606AA0A201E21002337
:10395000CDE900460295FEF7C3FE05AA0A204621DE
:103960000023CDE900460295FEF7BAFE04AA0A201C
:103970006E210023CDE900460295FEF7B1FE4FF41B
:103980007A7000F0F7F948F2C80844F2D02940F202
:10399000D8464CF2E06748F6E80444F6F025C0F655
:1039A0000008C0F60209C0F60406C0F60507C0F616
:1039B0000704C0F6090500BF4046FEF751FE484621
:1039C000FEF74EFE3046FEF74BFE3846FEF748FE49
:1039D0002046FEF745FE2846FEF742FEECE70000D3
:1039E000D0E9013201699A60D1F804C08268844547
:1039F000536008BF4A60002202610868013808600D
:103A00000868704744F22C53C2F20003036044F28A
:103A10002C30C2F200000860802010607047000067
:103A200044F68813C2F20003036044F28850C2F2E5
:103A3000000008604FF48070106070474FF0FF3155
:103A4000024642F8081F00214260C0E903220160DB
:103A500070470000002101617047000010B5D1F8E7
:103A600000E01EF1010213D000F10804626813683F
:103A7000734511D853681C68744511D85A68146886
:103A800074450FD854682368A4467345EED90BE0FB
:103A90000269D2F804C007E09446224604E000BF61
:103AA0009C4601E094461A46C1F804C0CCF80810C0
:103AB0008A605160086101680131016010BD000039
:103AC000D0F800C0436808619A684B608A609A68C1
:103AD000996051600CF1010101607047DFF80C0042
:103AE000016841F4700101607047000088ED00E05A
:103AF0004FF0500080F31188BFF36F8FBFF34F8FEB
:103B000040F20C00C2F2000001684A1C026009B1D8
:103B1000704700BF4EF60450CEF200000068000669
:103B200008BF70474FF0500080F31188BFF36F8FCC
:103B3000BFF34F8FFEE7000040F20C00C2F200001E
:103B4000016839B10139016018BF7047002080F366
:103B5000118870474FF0500080F31188BFF36F8FCA
:103B6000BFF34F8FFEE7000070B5002808BF70BD9F
:103B700040F2C405C2F200050446287854F8041C3B
:103B8000002818BF4FF0004008420DD0A4F10806ED
:103B900032689AB14FF0500080F31188BFF36F8FF5
:103BA000BFF34F8FFEE700BF4FF0500080F3118846
:103BB000BFF36F8FBFF34F8FFEE700BF21EA000016
:103BC00044F8040C00F018FA54F8041CA8680844DF
:103BD000A86005F1180000BF0368B3420AD2186854
:103BE000B04225D20368B34204D218681A46B042E4
:103BF000F2D301E0024618465368D418B44202D109
:103C00001944164651607318834206D16B68984276
:103C100003D0D0E9000319447160B242306018BF8C
:103C20001660686901306861BDE8704000F052BFFD
:103C30001A465368D418B442E5D1E1E74EF21000B9
:103C4000CEF2000000210160816040F20801C2F262
:103C50000001096844F6D352C1F26202A1FB0212CC
:103C60004FF0FF3101EB9211416007210160704775
:103C700044F6E41CC2F2000CDCF8002022B36346D8
:103C800053F8082F42B3634653F8102F52B36346DC
:103C900053F8182F62B3634653F8202F72B363466C
:103CA00053F8282F82B3634653F8302F92B36346FC
:103CB00053F8382F002A18BF7047072219600CEB01
:103CC000C2014860704700BF0022634619600CEBD8
:103CD000C2014860704700BF012219600CEBC201AD
:103CE00048607047022219600CEBC20148607047BF
:103CF000032219600CEBC20148607047042219606E
:103D00000CEBC20148607047052219600CEBC20140
:103D100048607047062219600CEBC201486070478A
:103D200070B515460E460446FFF7E2FE94F84400CF
:103D3000FF2804BF002084F8440094F84500FF28C1
:103D400004BF002084F84500FFF7F6FEA06B28B101
:103D50002046BDE87040FFF783BC00BF04F124009B
:103D600031462A4600F092F82046BDE87040FFF741
:103D700077BC000070B588B340F21005C2F20005B0
:103D80000446686950B14FF0500080F31188BFF3CA
:103D90006F8FBFF34F8F00BFFEE700BF6869013030
:103DA0006861AE6928680430FFF71AFE2868A41914
:103DB000446005D3286A29680431FFF74FFE08E004
:103DC000E86929680431FFF749FEE86A844238BF90
:103DD000EC6200F07FFE002818BF70BD4EF6045064
:103DE000CEF200004FF080510160BFF34F8FBFF360
:103DF0006F8F70BD40F21001C2F200018A6B026049
:103E0000896941607047000040F21000C2F2000072
:103E1000012101637047000070B5D8B140F2100471
:103E2000C2F200040D4621681831FFF717FEA6699B
:103E300020680430FFF7D4FD681C15D02068AD1948
:103E4000456019D3206A21680431BDE87040FFF74E
:103E500005BE00BF4FF0500080F31188BFF36F8F95
:103E6000BFF34F8FFEE700BF54F8500B011D2046F3
:103E7000BDE87040FFF724BEE06921680431FFF718
:103E8000EDFDE06A854238BFE56270BDF0B581B0F6
:103E9000C0B140F21004C2F200040D46216816467B
:103EA0001831FFF70DFEA76920680430FFF798FD71
:103EB00096B154F8500B011D204601B0BDE8F0400A
:103EC000FFF7FEBD4FF0500080F31188BFF36F8FF6
:103ED000BFF34F8FFEE700BF2068ED19456007D3A1
:103EE000206A2168043101B0BDE8F040FFF7B6BD9B
:103EF000E06921680431FFF7B1FDE06A854238BF0F
:103F0000E56201B0F0BD000010B588B00020CDE939
:103F1000050006A805A904AAFFF774FD0598002866
:103F20003ED0069C002C45D05C21049A079107994D
:103F30005C2949D107992063022084F8590007A819
:103F40000021CDE9001043F2BD00C0F6000028A119
:103F500000230294FFF7F6F82046FEF769FF079862
:103F600040F21004C2F20004A062B0B100F02AFED8
:103F7000411C33D0012810D14FF0500080F311883C
:103F8000BFF36F8FBFF34F8F4FF0FF30E062012020
:103F900020610020A06100F095F808B010BD00BFBE
:103FA0004FF0500080F31188BFF36F8FBFF34F8F36
:103FB000FEE700BF4FF0500080F31188BFF36F8F12
:103FC000BFF34F8FFEE700BF4FF0500080F3118822
:103FD000BFF36F8FBFF34F8FFEE700BF4FF050006E
:103FE00080F31188BFF36F8FBFF34F8FFEE700BFE1
:103FF00049444C450000000040F21000C2F20000AD
:10400000416901314161704780B540F2100EC2F242
:10401000000EDEF8141019B10121CEF8301080BD69
:104020000021CEF83010DEF8241040F2C82C01EB4D
:104030008103C2F2000C5CF823208AB101EB8102FB
:104040000CEB820353F8042F5268181D82421A6049
:1040500020D0D068CEF80000CEF8241080BD00BF7C
:104060000CEB8302A2F12803E1B15A6922BB0129BA
:1040700018D01A6812BB022914D053F8142CFAB9BC
:1040800003290FD053F8282C0439002AA3F1500338
:10409000EAD0D3E752681A60D068CEF80000CEF8B4
:1040A000241080BD4FF0500080F31188BFF36F8F54
:1040B000BFF34F8FFEE700BF0139BFE70239BDE70D
:1040C0000339BBE7B0B584B04EF2004CCEF2000C21
:1040D0004CF27021C4F20F11DCF800294B1C9A42FB
:1040E0000AD14FF0500080F31188BFF36F8FBFF3F8
:1040F0004F8F00BFFEE700BFDCF800298A4209D1DC
:104100004FF0500080F31188BFF36F8FBFF34F8FD4
:10411000FEE700BF9CF800100291FF218CF8001010
:104120009CF800108DF807109DF8071001F0500260
:1041300040F2E401C2F200010A7007224A609DF9D0
:104140000720B2F1FF3F69DC032200BFD31C4B60A4
:104150009DF8070040008DF807009DF90700B0F1B9
:10416000FF3F23DC931C4B609DF8070040008DF857
:1041700007009DF90700B0F1FF3F17DC531C4B60AF
:104180009DF8070040008DF807009DF90700B0F189
:10419000FF3F0BDC4A609DF80700043A40008DF8B1
:1041A00007009DF907000028D0D4131D032B35D13B
:1041B0004FF44070486002988CF80000DCF8200949
:1041C00040F47000CCF82009DCF8200940F0704081
:1041D000CCF82009FFF732FD40F20C04C2F20004D3
:1041E00000252560FFF77AFC4EF63470CEF2000011
:1041F000016841F040410160FFF738F8FFF704FF24
:10420000039520684FF0500181F31188BFF36F8F41
:10421000BFF34F8F013011D0FEE700BF4FF05000C9
:1042200080F31188BFF36F8FBFF34F8FFEE700BF9E
:10423000039830B9039820B9039810B9039800285F
:10424000F6D0002004B0B0BD80B54FF0500080F330
:104250001188BFF36F8FBFF34F8F00F039FB30B180
:104260004EF60450CEF200004FF080510160002065
:1042700080F3118880BD000070B582B070B11C461B
:10428000B3B1F9B9F2B14FF0500080F31188BFF328
:104290006F8FBFF34F8F00BFFEE700BF4FF050009E
:1042A00080F31188BFF36F8FBFF34F8FFEE700BF1E
:1042B0004FF0500080F31188BFF36F8FBFF34F8F23
:1042C000FEE700BF51B14AB94FF0500080F31188AA
:1042D000BFF36F8FBFF34F8FFEE700BF50230193F3
:1042E000019B502B2ED1019B069E012384F8463062
:1042F000002908BF22462260C4E90F01FFF7F8FB3E
:104300002068D4E90F12002502FB0103013901FBEB
:104310000201A563C4E90103FF20E16084F84400C1
:1043200084F8450004F11000FFF788FB04F1240035
:10433000FFF784FBFFF700FC204684F84C6002B0D6
:1043400070BD00BF4FF0500080F31188BFF36F8F36
:10435000BFF34F8FFEE700002DE9F04F83B00292CC
:10436000C0B11D4617460E460446E9B1022D03D1E1
:10437000E06B012840F0888000F094FA10BB0FB386
:104380004FF0500080F31188BFF36F8FBFF34F8F52
:10439000FEE700BF4FF0500080F31188BFF36F8F2E
:1043A000BFF34F8FFEE700BF206C0028DED04FF038
:1043B000500080F31188BFF36F8FBFF34F8F00BFA2
:1043C000FEE700BFFFF794FBA06B022D66D0E16B08
:1043D000884263D304F1100801206F460DF10809EB
:1043E0000DE000BF2046FFF73BF900F073FBFFF73D
:1043F0007FFBA06BE16B88424FF000004ED3029927
:10440000002973D0C00702D03846FFF7F3FCFFF74E
:1044100093FBFFF7F1FDFFF76BFB94F84400FF28D7
:1044200004BF002084F8440094F84500FF2804BF2E
:10443000002084F84500FFF77FFB3846494600F02E
:1044400073F9002858D1FFF753FBD4F838A0D4F8FB
:104450003CB0FFF771FBDA45C4D102994046FFF743
:10446000DBFC2046FFF7FCF800F034FB0028BED14F
:104470004EF60450CEF200004FF080510160BFF3C1
:104480004F8FBFF36F8FB2E74FF0500080F311886A
:10449000BFF36F8FBFF34F8FFEE700BFA76B226C98
:1044A000D2B19DB3E0683146FBF7CDFEE168206CE8
:1044B0002268091A9142E16003D2A168404208448F
:1044C000E060A81EB0FA80F040093946002F18BFFE
:1044D000012108403F1A26E02068002520BBA06883
:1044E00000F078FAA56005461EE000BFFFF724FB48
:1044F000002003B0BDE8F08F2046FFF7B1F800F0D0
:10450000E9FA002003B0BDE8F08F00BF60683146D3
:10451000FBF799FE216CD4E90102084490426060E7
:1045200001D3206860600025781CA06354F8240F34
:10453000A0B1204600F094FA50B14EF60450CEF2ED
:1045400000004FF080510160BFF34F8FBFF36F8FBA
:10455000FFF7F2FA012003B0BDE8F08F002DF7D08D
:104560004EF60450CEF200004FF080510160BFF3D0
:104570004F8FBFF36F8FFFF7DFFA012003B0BDE865
:10458000F08F00002DE9F04F83B0029290B11646F3
:104590000D460446002947D000F084F9A0B99EB129
:1045A0004FF0500080F31188BFF36F8FBFF34F8F30
:1045B000FEE700BF4FF0500080F31188BFF36F8F0C
:1045C000BFF34F8FFEE700BFFFF792FAD4F838A091
:1045D000BAF1000F36D0226C52B1D4E90230811802
:1045E000E160994224BF2168E1602846FBF72BFE79
:1045F000AAF10100A06354F8100F70B1204600F03A
:104600002FFA50B14EF60450CEF200004FF0805118
:104610000160BFF34F8FBFF36F8F0124FFF78CFA58
:10462000204603B0BDE8F08F206C0028B4D04FF0D6
:10463000500080F31188BFF36F8FBFF34F8F00BF1F
:10464000FEE700BF04F1240801206F464FF0000987
:104650000DF1080B2EE000BFFFF76EFAFFF7CCFC60
:10466000FFF746FA94F84400FF2808BF84F8449006
:1046700094F84500FF2808BF84F84590FFF75CFADE
:104680003846594600F050F8E0B12046FEF7E8FF02
:1046900000F020FAFFF72CFAA66BFFF74DFA002E78
:1046A0003CD0FFF725FAD4F838A00020BAF1000F6B
:1046B0007FF491AF029949B3C007CDD03846FFF7D8
:1046C00099FBC9E7FFF714FAA66BFFF735FA2EB18D
:1046D0002046FEF7C5FF00F0FDF9E2E702994046EB
:1046E000FFF79AFB2046FEF7BBFF00F0F3F9002826
:1046F000D7D14EF60450CEF200004FF08051016049
:10470000BFF34F8FBFF36F8FCBE700BF0024FFF7DE
:1047100013FA204603B0BDE8F08F00BF0024204606
:1047200003B0BDE8F08F0000B0B5D8B10D4619B3A5
:104730000446FFF7DDF940F2100CC2F2000CDCF881
:10474000182029684B1C21D0D4E9000EDCF8383041
:10475000834221D072451FD30124FFF7EDF9204693
:10476000B0BD00BF4FF0500080F31188BFF36F8FD2
:10477000BFF34F8FFEE700BF4FF0500080F311886A
:10478000BFF36F8FBFF34F8FFEE700BF0024FFF72B
:10479000D3F92046B0BD00BFA2EB0E0291420DD965
:1047A000881A2860DCF838002060DCF818006060A7
:1047B0000024FFF7C1F92046B0BD00BF002001244E
:1047C0002860FFF7B9F92046B0BD00002DE9F0439D
:1047D00083B007469000984615468946FEF77AFF53
:1047E000F8B106465C20FEF775FFB8B10446DDE976
:1047F0000A100022266384F85920CDE900103846BB
:1048000049462A4643460294FEF79CFC2046FEF7A2
:104810000FFB012003B0BDE8F08300BF3046FFF777
:10482000A3F94FF0FF3003B0BDE8F08370B586B058
:104830000B9CCCB10C9E0EB35C250495049D5C2DA5
:1048400026D1049DDDF828C0022586F8595005AD13
:104850003463CDE900C50296FEF774FC3046FEF7DE
:10486000E7FA059806B070BD4FF0500080F311884C
:10487000BFF36F8FBFF34F8FFEE700BF4FF05000C5
:1048800080F31188BFF36F8FBFF34F8FFEE700BF38
:104890004FF0500080F31188BFF36F8FBFF34F8F3D
:1048A000FEE7000040F21000C2F20000016900299A
:1048B0000FBF01204069B0FA80F0400918BF4000E6
:1048C0007047000040F21000C2F20000806970479B
:1048D0002DE9F04381B040F21006C2F20006706983
:1048E00040B1706B002401307063204601B0BDE818
:1048F000F08300BFB06910F10109C6F8189020D309
:10490000F069006850B14FF0500080F31188BFF398
:104910006F8FBFF34F8F00BFFEE700BFF069316AB2
:10492000F1613062B06B0130B063F069006828B1AA
:10493000F069C068C068406802E000BF4FF0FF3017
:10494000F062F06A40F2C8288145C2F2000801D244
:1049500000242EE0F0690024006813E0F86A716A10
:10496000884288BF706200EB800008EB8000294617
:10497000FFF7A6F8F86A3168C96AF269884228BF69
:104980000124106890B1F069C068C7683D4655F8C9
:10499000040F81450CD32846FFF722F8B86A002897
:1049A000DCD007F11800FFF71BF8D7E74FF0FF3016
:1049B000F0623068C06A00EB800058F820000128DF
:1049C00088BF0124306B002818BF0124204601B0A5
:1049D000BDE8F08370B588B140F21006C2F200065F
:1049E00004463068A0420BD04FF0500080F311888D
:1049F000BFF36F8FBFF34F8FFEE700BF002070BD86
:104A0000206D18B3411EE06AE26C216590424FF0C0
:104A1000000008BF70BDC1B9251D2846FEF7E0FFA4
:104A2000E06CC0F13801E062A161716A884240F235
:104A3000C82188BF706200EB8000C2F2000101EB68
:104A400080002946FFF73CF8012070BD4FF0500070
:104A500080F31188BFF36F8FBFF34F8FFEE7000025
:104A600070B5C068C5686DB105F118042046FEF741
:104A7000B7FF40F21006C2F20006706960B106F19D
:104A800064001AE04FF0500080F31188BFF36F8F7D
:104A9000BFF34F8FFEE700BF2C1D2046FEF7A0FF9F
:104AA000E86A716A884240F2C82188BF706200EBF0
:104AB0008000C2F2000101EB80002146FFF700F800
:104AC000E86A3168C96A884292BF002001203063D9
:104AD00070BD00002DE9F04140F21005C2F2000562
:104AE000686968B1FFF704F8686901386861686946
:104AF00080B10024FFF720F82046BDE8F08100BF18
:104B00004FF0500080F31188BFF36F8FBFF34F8FCA
:104B1000FEE700BFE8680028EBD0686E88B340F27B
:104B2000C826C2F200064FF0010800BF286FC76810
:104B300007F11800FEF754FF3C1D2046FEF750FF1A
:104B4000F86A696A884288BF686200EB800006EBF9
:104B500080002146FEF7B4FFF86A2968C96A8842D6
:104B600028BFC5F83080686E0028DFD1E86900688A
:104B700020B1E869C068C068406801E04FF0FF30CC
:104B8000E8626C6B4CB10126FFF7A2FE002818BF4B
:104B90002E63013CF8D100206863286B0028A8D060
:104BA0004EF60450CEF200004FF080510160BFF38A
:104BB0004F8F0124BFF36F8FFEF7BEFF2046BDE885
:104BC000F081000070B586B0FEF792FF40F28806D3
:104BD000C2F20006306808BB06F114042046FEF756
:104BE0002DFF06F128052846FEF728FF40F2D812CF
:104BF00040F27823C6E902450025C2F20002C2F263
:104C000000030A2010210095FFF736FB306028B121
:104C100040F60451C0F60B01FFF72AF8FEF78CFFAF
:104C20003068D8B10020CDE9040005A804A903AA82
:104C3000FEF7F6FEDDE903200221059DCDE9001017
:104C400043F2D520C0F6000009A100230295FFF72A
:104C5000EDFD706010B1012006B070BD4FF0500046
:104C600080F31188BFF36F8FBFF34F8FFEE700BF54
:104C7000546D72205376630002E008C8121F08C109
:104C8000002AFAD170477047002001E001C1121FCD
:104C9000002AFBD170470000000000000000010264
:104CA00003040607080900000000000000000000DF
:104CB00000000000040404040400000400001414B4
:104CC0000A00000000000000000000000A0A1F0A9D
:104CD0000A1F0A0A000000040E1505060C14150E22
:104CE0000400000012150D152E2C2A1200000000E1
:104CF000040A0A36151529160000020201000000F8
:104D0000000000000000100808040404040408085F
:104D10001000020404080808080804040200000047
:104D20000004150E0E150400000000000008083EE7
:104D3000080800000000000000000000000002025F
:104D4000010000000000003F000000000000000023
:104D50000000000000000002000000201010080801
:104D600004040202010000000E1111111111110EB4
:104D700000000000040604040404040E0000000007
:104D80000E1111080402011F000000000E11100C8A
:104D90001010110E00000000080C0C0A091F081C5E
:104DA000000000001F01010F1110110E0000000093
:104DB0000C12010D1311110E000000001E10080846
:104DC00004040404000000000E11110E1111110E54
:104DD000000000000E111119161009060000000055
:104DE00000000400000000040000000000000004B7
:104DF000000000040400000010080402020408106F
:104E00000000000000003F003F0000000000000024
:104E10000204081010080402000000000E1111081E
:104E200004040004000000001C22292D2D1D221C5A
:104E30000000000004040C0A0A1E123300000000E7
:104E40000F12120E1212120F000000001E110101AB
:104E50000101110E000000000F1212121212120FA7
:104E6000000000001F120A0E0A02121F00000000BC
:104E70001F120A0E0A020207000000001C120101A4
:104E80003911120C000000003312121E12121233DC
:104E9000000000001F0404040404041F00000000BC
:104EA0003E080808080808080907000037120A0623
:104EB0000A12123700000000070202020202223F1B
:104EC000000000003B1B1B1B1515153500000000E2
:104ED0003B1216161A1A1217000000000E111111BB
:104EE0001111110E000000000F12120E0202020733
:104EF000000000000E1111111117190E180000000A
:104F00000F12120E0A121237000000001E110106C5
:104F10000810110F000000001F1504040404040E03
:104F200000000000331212121212120C00000000D6
:104F30003312120A0A0C040400000000151515159E
:104F40000E0A0A0A000000001B0A0A04040A0A1BCF
:104F5000000000001B0A0A0A0404040E00000000FE
:104F60001F0908040402121F00001C0404040404A6
:104F7000040404041C0000020204040408080810CD
:104F800010000E0808080808080808080E00040A9F
:104F90000000000000000000000000000000000011
:104FA00000000000003F02040000000000000000BC
:104FB000000000000000000C121C123C0000000366
:104FC0000202020E1212120E000000000000001C6D
:104FD0001202120C000000181010101C1212123CC9
:104FE000000000000000000C121E021C000000184F
:104FF0002404041E0404041E000000000000003C01
:10500000120C021C221C00030202020E12121237A2
:1050100000000004040000060404040E0000000860
:105020000800000C08080808080700030202021A1A
:105030000A060A1300000007040404040404041F01
:10504000000000000000000F1515151500000000FD
:105050000000000F12121237000000000000000CC8
:105060001212120C000000000000000F1212120EAB
:10507000020700000000001C1212121C1038000071
:105080000000001B06020207000000000000001ED6
:10509000020C101E000000000004041E0404041C86
:1050A000000000000000001B1212123C0000000073
:1050B0000000001B0A0A04040000000000000015A4
:1050C000150E0A0A000000000000001B0A040A1B5B
:1050D000000000000000003312120C08040300005E
:1050E0000000001E0804041E000018080808080C30
:1050F0000808080818000808080808080808080828
:10510000080806040404040804040404060016093C
:10511000000000000000000000000000000000008F
:105120000000000000000000000000000008080867
:105130000808080800001818000000486C24120035
:1051400000000000000000000000000000242424F3
:105150007F1212127F12121200000000081C2A2A6D
:105160000A0C1828282A2A1C0808000000222515E5
:1051700015152A585454542200000000000C121235
:10518000120A76252911916E00000006060403001C
:105190000000000000000000000000402010100887
:1051A0000808080808101020400000020408081031
:1051B0001010101010080804020000000000080879
:1051C0006B1C1C6B080800000000000000000808B1
:1051D00008087F0808080800000000000000000020
:1051E00000000000000006060403000000000000AC
:1051F0000000FE00000000000000000000000000B1
:105200000000000000000606000000008040402072
:1052100020101008080404020200000000182442B4
:1052200042424242424224180000000000080E0898
:10523000080808080808083E00000000003C424238
:10524000422020100804427E00000000003C424240
:10525000201820404042221C00000000002030287E
:10526000242422227E20207800000000007E0202FA
:10527000021A26404042221C00000000003824028E
:10528000021A26424242241800000000007E222218
:10529000101008080808080800000000003C4242FE
:1052A000422418244242423C0000000000182442DC
:1052B000424264584040241C0000000000000000EE
:1052C000181800000000181800000000000000007E
:1052D0000008000000000008080400000040201042
:1052E0000804020408102040000000000000000034
:1052F0007F0000007F0000000000000000020408A2
:10530000102040201008040200000000003C42422F
:10531000464020101000181800000000001C225AFF
:10532000555555552D42221C000000000008081854
:105330001414243C224242E700000000001F2222F5
:10534000221E22424242221F00000000007C4242F4
:10535000010101010142221C00000000001F224245
:10536000424242424242221F00000000003F4212DD
:10537000121E12120242423F00000000003F421281
:10538000121E12120202020700000000003C22223C
:10539000010101712122221C0000000000E74242AD
:1053A00042427E42424242E700000000003E0808BE
:1053B000080808080808083E00000000007C1010DB
:1053C0001010101010101010110F00000077221292
:1053D0000A0E0A12122222770000000000070202C1
:1053E000020202020202427F00000000007736360D
:1053F00036362A2A2A2A2A6B0000000000E3464695
:105400004A4A52525262624700000000001C224188
:10541000414141414141221C00000000003F424205
:1054200042423E020202020700000000001C22412C
:10543000414141414D53321C60000000003F424257
:10544000423E1212222242C700000000007C42426B
:10545000020418204042423E00000000007F49083C
:10546000080808080808081C0000000000E742427D
:10547000424242424242423C0000000000E74242B7
:10548000222424141418080800000000006B494965
:1054900049495555362222220000000000E74224E7
:1054A00024181818242442E7000000000077222264
:1054B000141408080808081C00000000007E2120C1
:1054C000101008040442423F000000780808080851
:1054D0000808080808080808780000000202040408
:1054E00008080810102020204040001E1010101046
:1054F00010101010101010101E0000384400000092
:10550000000000000000000000000000000000009B
:10551000000000000000000000FF0006080000007E
:10552000000000000000000000000000000000007B
:10553000003C4278444242FC0000000000030202AA
:10554000021A26424242261A000000000000000013
:10555000003844020202443800000000006040406D
:1055600040784442424264D800000000000000003D
:10557000003C427E0202423C0000000000F088082D
:10558000087E08080808083E00000000000000002F
:10559000007C22221C023C42423C0000000302022A
:1055A000023A4642424242E700000000000C0C0072
:1055B000000E08080808083E000000000030300017
:1055C0000038202020202020221E0000000302029C
:1055D0000272120A1612227700000000000E08085C
:1055E000080808080808083E000000000000000045
:1055F000007F9292929292B700000000000000009B
:10560000003B4642424242E700000000000000002A
:10561000003C42424242423C0000000000000000C8
:10562000001B26424242221E02070000000000002A
:10563000007844424242447840E00000000000000C
:1056400000774C040404041F000000000000000068
:10565000007C42023C40423E000000000000000886
:10566000083E08080808083000000000000000009C
:1056700000634242424262DC000000000000000081
:1056800000E7422424140808000000000000000085
:1056900000EB49495555222200000000000000009F
:1056A000007624181818246E000000000000000086
:1056B00000E7422424141808080700000000000036
:1056C000007E22100808447E000000C02020202018
:1056D0002010202020202020C000101010101010BA
:1056E00010101010101010101010000608080808F4
:1056F000081008080808080806000C32C20000005C
:105700000000000000000000000000000000000099
:105710000000000000000000000000000000000089
:105720000000000000000000000000000000000079
:105730000000000000000000000000000000000069
:1057400000006000600060006000600060006000B9
:105750004000200020002000000000000000600049
:105760006000600000000000000000000000600613
:10577000600630039801880044000000000000002B
:105780000000000000000000000000000000000019
:105790000000000000000000000000000000000009
:1057A00000001002100210021002FE07FE0708029D
:1057B0000801080108010801FE07FE0704010401B1
:1057C00004010401000000000000000000000000CF
:1057D00040004000F00158034C03CC034C0058003B
:1057E0007000E000C001C00140034C035C034C03A7
:1057F0004801F000400040000000000000000000F0
:1058000000000E010A019100910091005100510029
:105810003A00AE03A002500450044804480448046F
:10582000840284030000000000000000000000006B
:10583000000038006C006C006C006C006C002C00E8
:1058400098071C011A01330133016301E300C30807
:10585000C6093C07000000000000000000000C002A
:105860001C001000100008000400000000000000F0
:105870000000000000000000000000000000000028
:105880000000000000000000000000000000000414
:105890000002000180008000400040002000200045
:1058A0002000200020002000200040004000800058
:1058B000800000010002000400000000000002005F
:1058C00004000800100010002000200040004000EC
:1058D0004000400040004000400020002000100038
:1058E000100008000400020000000000000000009A
:1058F0000000000000004000C0004000460C4E0FB9
:10590000D001F0015E0F460C400040004000000056
:105910000000000000000000000000000000000087
:105920000000000000000000400040004000400077
:105930004000FE0F400040004000400040000000DA
:105940000000000000000000000000000000000057
:105950000000000000000000000000000000000047
:1059600000000000000000000000000000000C002B
:105970001C001000100008000400000000000000DF
:105980000000000000000000000000000000000017
:105990000000FE0700000000000000000000000002
:1059A00000000000000000000000000000000000F7
:1059B00000000000000000000000000000000000E7
:1059C00000000000000000000000000000001C00BB
:1059D0001C001C000000000000000000000000048B
:1059E000000600020003000100018000800040006A
:1059F0004000600020002000100010000800080097
:105A00000C0004000600020000000000000000007E
:105A100000000000F00098010C030C0306060606C7
:105A20000606060606060606060606060C030C0310
:105A30009801F000000000000000000000000000DD
:105A40000000000040007C0060006000600060001A
:105A50006000600060006000600060006000600046
:105A60006000FC03000000000000000000000000D7
:105A700000000000F800840102030603060300038F
:105A800000018001C0006000200010000802040234
:105A90000602FE03000000000000000000000000FD
:105AA000000000007800C6008601860180018001A8
:105AB000C00070008001000100030003060306031C
:105AC0008601F80000000000000000000000000057
:105AD0000000000080018001C001A001A001900130
