:020000040800F2
:10000000601D0120C1010008C93400085121000809
:10001000C5340008A10300085137000800000000A3
:100020000000000000000000000000004135000852
:10003000A503000800000000D13400087135000855
:10004000DB010008DB010008DB010008DB01000820
:10005000DB010008DB010008DB010008DB01000810
:10006000DB010008850600088D060008DB0100089A
:10007000DB010008DB010008DB010008DB010008F0
:10008000DB010008DB010008DB010008DB010008E0
:10009000DB010008DB010008DB0100089506000811
:1000A000DB010008DB010008DB010008DB010008C0
:1000B000DB010008DB010008DB010008DB010008B0
:1000C000DB010008DB010008DB010008DB010008A0
:1000D000DB010008DB010008DB010008DB01000890
:1000E000DB010008DB010008DB010008DB01000880
:1000F000DB010008DB010008DB010008DB01000870
:10010000DB010008DB010008DB010008DB0100085F
:10011000DB010008DB010008DB010008DB0100084F
:10012000DB010008DB010008DB010008DB0100083F
:10013000DB010008A9030008DB010008DB0100085F
:10014000DB010008DB010008DB010008DB0100081F
:10015000DB010008DB010008DB010008DB0100080F
:10016000DB010008DB010008DB010008DB010008FF
:10017000DB010008DB010008DB01000800000000D3
:10018000DB010008DB010008DB010008DB010008DF
:10019000DB010008DB010008DB010008DB010008CF
:1001A000DB010008DB010008DB010008DFF80CD0F0
:1001B00000F0E4F80048004775720008601D012057
:1001C0000648804706480047FEE7FEE7FEE7FEE7F1
:1001D000FEE7FEE7FEE7FEE7FEE7FEE74D36000836
:1001E000AD0100082DE9F05F0546002092469B46D0
:1001F00088460646814640241BE02846414647463D
:10020000224600F0AAF853465A46C01A914110D32C
:1002100011461846224600F091F82D1A67EB0108A6
:100220004F4622460120002100F088F817EB000914
:100230004E41201EA4F10104DFDC484631462A4627
:100240004346BDE8F09F00000649074A086850434E
:1002500043F23902104408604008704701490860C1
:1002600070470000000000206D4EC64110B5431AD3
:10027000934209D28318881803E010F8011D03F88F
:10028000011D521EF9D210BD40EA01039B0703D0A5
:1002900009E008C9121F08C0042AFAD203E011F8C5
:1002A000013B00F8013B521EF9D210BDD2B201E071
:1002B00000F8012B491EFBD270470022F6E710B56B
:1002C00013460A4604461946FFF7F0FF204610BDC4
:1002D00010B5044604E00B7800F8013B03B1491C5B
:1002E000521EF8D2204610BD421C10F8011B0029F6
:1002F000FBD1801A704730B504460020034600E069
:100300005B1C934203D2E05CCD5C401BF8D030BD57
:1003100030B50B46014600202022012409E021FAD5
:1003200002F59D4205D303FA02F5491B04FA02F5D2
:100330002844151EA2F10102F1DC30BD202A04DBA5
:10034000203A00FA02F1002070479140C2F12003E8
:1003500020FA03F3194390407047202A04DB203A27
:1003600021FA02F00021704721FA02F3D040C2F1D5
:10037000200291400843194670470000064C074D83
:1003800006E0E06840F0010394E807009847103465
:10039000AC42F6D3FFF70EFFB8C80608D8C8060867
:1003A000FEE700007047000040F29050C2F20000EB
:1003B00000F0FEB90020704701F038B980B540F276
:1003C0009050C2F2000000F02DFE002080BD000021
:1003D00080B513460A46014640F29050C2F2000032
:1003E00000F0F4FC002818BF4FF0FF3080BD000083
:1003F00080B513460A46014640F29050C2F2000012
:1004000001F000F8002818BF4FF0FF3080BD000059
:100410002DE9F041D0F828E000F1180C5CF82E30FE
:100420008C681D68002D03D400EB8E05ED6A1DB1AC
:100430000220BDE8F08100BFD4E9005641F6FF7705
:100440009D605D68BD4335435D600D68EE0740F01B
:100450000581AE0600F10B81690703D5196841F0EB
:1004600080011960196841F080511960BFF35F8FF6
:10047000196841F000411960A468002194B341F665
:10048000FF787646002A61D01F68354627F000576E
:100490001F601F6847F080461E606E1C032E88BFD9
:1004A000EE1E5CF826301D6825F080551D601D6825
:1004B000002D61D400EB8605ED6A002D5CD1D4E9F6
:1004C000005701319D605D6825EA08053D435D6088
:1004D000BFF35F8F1D6845F000451D60A468002CC8
:1004E000D2D1B6461F68002A27F0804718BF07F10F
:1004F00080471F601A6842F000521A60C26B00EB1E
:100500008E03DA62C0F828E0EFF3108272B6026C54
:10051000114401310164002062B6BDE8F08100BFE2
:1005200000EB8605ED6A3DBBD4E9005701319D60C3
:100530005D6825EA08053D435D60BFF35F8F1D6878
:1005400045F000451D60A468002CCAD01F683546E0
:1005500027F000571F601F6827F080461E606E1C42
:10056000032E88BFEE1E5CF826301D6825F08055EE
:100570001D601D68002DD3D5013100293FF458AF0F
:10058000481E032801F0030039D321F0030100BF06
:100590005CF82E20BFF35F8F136823F000431360D5
:1005A0000EF10102032A88BFAEF103025CF822308B
:1005B000BFF35F8F1F6827F000471F60531C032B9A
:1005C00088BFD31E5CF82320BFF35F8F176827F026
:1005D000004717605A1C032A88BFDA1E5CF82230D5
:1005E000BFF35F8F1C6802F1010EBEF1030F88BFDD
:1005F000A2F1030E24F0004204391A60C8D10CEBBA
:100600008E0100283FF414AF0968BFF35F8F0A68BA
:10061000012822F000420A603FF40AAF0EF1010106
:10062000032988BFAEF103015CF82120BFF35F8F7F
:100630001368022823F0004313603FF4F9AE481C0E
:10064000032888BFC81E5CF82000BFF35F8F0168D5
:1006500021F0004101600220BDE8F0811E684F6971
:1006600026F440063E431E60AE067FF5F5AE1E68DA
:10067000096926F040663143196069073FF5EEAE1F
:10068000F0E60000082000F0E3BE0000102000F0BB
:10069000DFBE0000202000F0DBBE0000EFF3108082
:1006A00072B600BFFEE70000B0B5044600F0BEFF22
:1006B000054640F20400C2F200000078611C18BF39
:1006C000044400BF00F0B2FF401BA042FAD3B0BD0B
:1006D00080B500F00DF8000658BF80BD40F26800FC
:1006E000C2F200004068BDE8804008F0C7BF0000CB
:1006F000D0F88C0070470000024600294FF001003E
:1007000008BF704712681368C3F3001381F82830DC
:10071000136803F060034B62136820EA532381F8E7
:1007200020301368C3F30043CB77136820EA5333B8
:100730008B771368C3F300330B77136803F40063FC
:100740008B61136803F480434B61136820EA935371
:100750004B74136820EAD35008741068C0B2C00903
:10076000C873106800F4602088601068C0F38020AF
:1007700008719069C0F3400081F854009069C0434B
:10078000C0B2C00981F84C00906900F030000865E3
:100790009069000C88649069C0F3800081F856006D
:1007A0009069C0F3C00081F8550000207047000038
:1007B000B0B50446006841F21405415949060BD50D
:1007C00041198A68520607D54020C0F2010008602E
:1007D000204600F07FFB20684159C9070AD0411923
:1007E0008A68D20706D04FF001100860204600F05A
:1007F000FDFD206841F214014258120426D501443F
:100800008A68120422D5D4F8880040F00800C4F8A1
:1008100088000A680868920406D448F28062104092
:10082000C4F88C000A600DE042F20002C0F27E02C1
:100830001040C4F88C00886820F4C0308860E02044
:10084000C4F884002046FFF743FF2068816B090746
:100850000AD5C06A00F06000C4F89400204600F099
:10086000DFF90020C4F8940043F61441C4F20101FA
:100870000868000358BFB0BD4FF4002220460A604C
:10088000BDE8B04000F0BCBD70B582B0002843D0D8
:100890000446D0F8840028B92320C4F884002046F8
:1008A00000F022F90020019043F64400C4F2020057
:1008B00001684FF4805641F480410160006800F403
:1008C00080400190019843F60400C4F201000168E1
:1008D00021F4000101602168A26803681A430260E4
:1008E0000068885940F00100885100F09FFE0546DD
:1008F00020688159C90713D000F098FE401BB0F55D
:10090000FA7FF5D90120E0220421C4F88810C4F848
:10091000842002B070BD00BF012002B070BD00BFD6
:10092000016848F20F12CFF62072114001F59C4188
:10093000016005680120FFF7B7FE20684FF641729D
:100940000560816911408031816185690120FFF76F
:10095000ABFE206841F218018561425843F62373CB
:10096000CFF6DE031A4042F0087242F00402425011
:1009700045580120FFF798FE206800F580518D61F1
:1009800042F280014FF48055C0F2C12141514659D5
:100990000120FFF789FE2068E268002146511160BE
:1009A00051609160D160A261136800F5805C43F4EE
:1009B0008013136002F12803D36016684FF48C454E
:1009C00046F4400616609162D16211635163E3619F
:1009D000936A43F48013936202F150035363966A5F
:1009E00046F440069662116551659165D1652362B2
:1009F000136D43F48013136502F17803D365166D0C
:100A000046F4400616659167D167C2F88010C2F8B7
:100A100084106362936F43F480139367C2F8842059
:100A2000936F43F440039367A162CCF810202269CE
:100A30004FF00043116051609160D160C2E908112C
:100A400013605560566826F00046566002F128068D
:100A5000A264D6609162D16211635163C2E912113E
:100A60009362D562D06A20F00040D06202F150005B
:100A7000E6645063116551659165D165C2E91C1149
:100A800013655565566D26F000465665206502F1E2
:100A90007800D0659167D167C2F88010C2F88410E1
:100AA000C2E926119367D567D36F23F00043D3675C
:100AB0006065C2F884202166C4E91A11C4E91611E0
:100AC000CCF80C20606848F240038288C4F202032C
:100AD0001A600068102258600020C4F88810C4F81A
:100AE000842002B070BD00002DE9F04385B000689D
:100AF00048F20001C4F20201884203D005B0BDE80B
:100B0000F08300BF002643F630000096C4F20200D6
:100B10000168002441F0007101600168C4F2020420
:100B200001F0007100910099009601686D4641F056
:100B30008061016001684FF0020801F0806100915E
:100B40000099009601684FF0030941F000610160CF
:100B500001680B2701F0006100910099009601687F
:100B600041F004010160016801F004010091009965
:100B70000096016841F001010160016801F0010186
:100B8000009100990096016841F00201016001683E
:100B900001F00201009100990096016841F04001C6
:100BA00001600068294600F0400000900098322063
:100BB000009004F50060CDE90186CDF80C90049713
:100BC00000F052FC8620CDE9000820462946CDE9F8
:100BD0000269049700F048FC4FF40050CDE900088A
:100BE00004F580602946CDE90269049700F03CFCD9
:100BF0004FF42050CDE9000804F5C0502946CDE956
:100C00000269049700F030FC3D200521002200F02D
:100C100097FD3D2000F080FD05B0BDE8F0830000A9
:100C2000704700002DE9F04F85B00029044671D0CF
:100C3000D4F88400232840F0C580D4F85CA004F1E7
:100C4000480858F82A90E26ED9F80000019100286F
:100C500068D4C2F10400039004F17C0504F1800023
:100C60004FF0000B002602902BE000BFD9F80000E7
:100C7000D9F80010C0F30D40071F4FF0010B21679A
:100C8000D9F808200299BBB22846C9F8202000F004
:100C900029F9D4E9180101303944C4E918010020C8
:100CA000C9F820000AF10100032888BFAAF1030057
:100CB00058F820900136D9F800108246B1F1FF3F74
:100CC00039DD0398864235D2BBF1000F32D1D9F815
:100CD0000000C00505D5D9F81800A067D9F81C0098
:100CE0006067D9F80000800501D4286870B1D9F890
:100CF0000000800544BF0020C4E918006769D9F8E6
:100D00000000C005B2D44FF0000BB9E74FF0000B64
:100D1000C8E700BFD4F8880040F00100C4F888009C
:100D200050E000BF00264FF0000BB618E66607D172
:100D30003BE000BF5046E26E8246B618E66634D00D
:100D4000A76E00200DF11009049016E0A06D002898
:100D50004FF48C4004BF44F20060C8F200006860A9
:100D6000BFF35F8F286840F000402860781C03289C
:100D700088BFF81E013E07460CD058F82750286A55
:100D80000028E3D1484600F07DF8049818B12862A5
:100D9000A860DBE70026E06EB04206D0206841F292
:100DA000080100224250C4E91A76BBF1010FC4F8D1
:100DB0005CA007D1E06F019908600020E06705B0F2
:100DC000BDE8F08F012005B0BDE8F08FF0B581B02F
:100DD000054600681C4603694FF4F86707EA82126B
:100DE00003F01C0361F3CF22D1180131016100F03F
:100DF0001DFC0646002700BF00F018FC801BB7EB67
:100E0000104F09D128680169C907F5D1406980B23E
:100E10002060002001B0F0BD012001B0F0BD000055
:100E20002DE9F0410446006C40B3676C451E4FF05D
:100E3000000803E00746013D681C1FD004EB870053
:100E4000C16A781C00F00300002908BF0746F1D0F2
:100E5000E06807EB870150F8310000280ED404EB5E
:100E60008706F06A00F0CAFA781C00F00307C6F89B
:100E70002C80C4E91057013D681CDFD10020BDE87B
:100E8000F081000010B582B004464BF6B420C0F6E5
:100E9000060007F0F9F898B103462030206049F6C3
:100EA0002970C0F60000186120684FF4C0640090FB
:100EB000002000214122019408F078FD02B010BD0D
:100EC00040F26800C2F200000121017000202060A1
:100ED00002B010BD40F26800C2F20000406808F0A5
:100EE000CDBB00004FF0000C42F820CDA2F808C0A6
:100EF000D0F800C05381BCF1000F844618BFD1F870
:100F000000C0CCF800200A60006868B917E000BF94
:100F1000028901681A440029028108BF70470A89C2
:100F200008681A440A8150B1028901681A44028192
:100F300029B10A8908681A4400280A81E8D1704753
:100F400070B500296CD00446D0F88400102867D111
:100F500020680D46016848F20F12CFF6207211404A
:100F60002A7C6B7C002AAA6808BF01F500011143A6
:100F7000002B6B69EA7F08BF41F480011943AB7F06
:100F800041EA0241AA69002B2B7F08BF41F40051BE
:100F900011432A7941EA033195F8203041EA822150
:100FA000002B6B6AEA7B08BF41F40071194395F886
:100FB000283041EAC21141EA0311016006680120AC
:100FC000FFF772FB20684FF641720660816995F861
:100FD0004C3001EA020CAA6C002B4FEA024208BF17
:100FE00080322B6D95F8556043EA0C0395F8561046
:100FF0001A4395F85450012E08BF42F00802012907
:1010000008BF42F00402012D08BF42F002028261D3
:1010100085690120FFF748FB20688561002070BDCD
:10102000012070BDB0B504460068006920F01C05C1
:1010300000F0B0FC4DF20031CFF6CE614EF2BF129F
:101040000144C0F2E402914204D845F0080520684A
:101050000561B0BD4FF24011CFF6E95147F63F02AE
:101060000144C0F27D12914204D845F00C0520687D
:101070000561B0BD47F60011CFF66C4145F6002280
:101080000144C0F262229142E1D341F60071CFF6F1
:101090000A2108444FF27F01C0F2FA2188428CBF36
:1010A00045F0100545F0040520680561B0BD00005D
:1010B0002DE9F04383B00446D0F8840001251028C0
:1010C00040F0E6802320C4F884002068A565C16B49
:1010D00004F1480841F40271C163D0F80C1141F4E5
:1010E000003141F06001C0F80C11D0F8101141F44A
:1010F0000311C0F810110420A56EE06658F82570A1
:10110000386A00284FF00000019003D04FF48C4063
:1011100012E000BF01A8FFF7B5FE0198002800F01B
:10112000BB803862B860A16D4FF48C40002904BFC9
:1011300044F20060C8F200007860BFF35F8F386847
:1011400040F0004038606F1C032F88BFEF1E58F836
:101150002750286A40B901A8FFF794FE019800289B
:1011600000F0A0802862A860A06D4FF48C46002893
:101170004FF48C4004BF44F20060C8F20000686085
:10118000BFF35F8F286840F0004028607D1C032D6E
:1011900088BFFD1E58F82570386A40B901A8FFF7CE
:1011A00071FE0198002800F07F803862B860A06D61
:1011B00044F20069C8F20009002808BF4E467E606C
:1011C000BFF35F8F386840F0004038606F1C032F1A
:1011D00088BFEF1E58F82750286A38B901A8FFF7D2
:1011E00051FE0198002865D02862A860A06D0028F3
:1011F00018BF4FF48C49C5F80490BFF35F8F28687F
:1012000040F0004028607D1C0020032D88BFFD1E9B
:10121000E26E2168824205D041F2080200238B5021
:10122000C4E91A50086840F0080008600D68012001
:10123000FFF73AFA20680560016841F00401016097
:1012400005680120FFF730FA206841F218060560B2
:1012500000250295815941F48011815180590290F5
:101260000120FFF721FA02982168885188598A19CC
:1012700040F400508851885940F00200885150686D
:1012800040F4D03040F0C10050602320C4F8840006
:10129000284603B0BDE8F0830420E26E2168824254
:1012A000BAD1BFE7032006E00220E26E2168824245
:1012B000B2D1B7E701203D46E26E21688242B1D04B
:1012C000AAE7000070B582B00446D0F88400232855
:1012D00052D12320C4F88400206841F218068119F5
:1012E0004A6845F63E73CFF6FE731A404A6081594C
:1012F00021F400518151815921F00201815101688D
:1013000021F00401016005680120FFF7CDF9206894
:10131000056000250195815941F480118151805962
:1013200001900120FFF7C0F90198216888510868F1
:1013300020F0080008600E680120FFF7B5F920686A
:101340000660A06C416841F000414160E06C41687A
:1013500041F000414160206D416841F00041416031
:10136000606D416841F0004141601020A565C4F8FE
:101370008400284602B070BD0125284602B070BD29
:1013800010B50446A1B1D4F8840023281CBF012065
:1013900010BD486B0122E0632046FFF739F878B1B1
:1013A000D4F8880040F00200C4F88800012010BD85
:1013B000D4F8880040F00100C4F88800012010BD76
:1013C000BFF34F8FA06A2168421C032A88BFC21E48
:1013D00041F20400A2620144086940074FF0000096
:1013E00042BF04220A61086010BD000040F268009C
:1013F000C2F20000806808F041B9000008F0F8BCB3
:101400007047000070B5044600684FF4F86506693F
:1014100005EA821206F01C0661F3CF22911903310E
:101420009AB24261016100F001F90546002600BF51
:1014300000F0FCF8401BB6EB104F05D120680069A6
:10144000C007F5D1002070BD012070BD70470000BD
:1014500043F61441C4F201010A68024214BF086055
:101460007047FFF7F3BF00002DE9F04F82B000F1A5
:101470003E4242F2004502F1FF77C4F202050A2221
:1014800043F6004E4FEAB726A84208BF0922C4F22D
:10149000010E092E38BF4FEAB7220125002600278A
:1014A0004FF00008009208E008F101080437B8F195
:1014B000100F06F1020600F0A7800C6805FA08F983
:1014C00014EA090FF0D0D1F804B003220BF0030C9A
:1014D000ACF10104B240012C6FEA020A10D8826814
:1014E000CC6802EA0A02B440224382604268CBF32D
:1014F000001422EA090204FA08F42243426005E0DB
:10150000BCF1030F02D14FF0030C20E0C2688C68DD
:1015100002EA0A02B4402243BCF1020FC26016D1B3
:101520006FF0030202EA58020244D2F820C007F02A
:101530001C050F230C69AB402CEA030304FA05F5E4
:101540002B431362D1F804B001250BF0030C0268A1
:101550000CFA06F302EA0A021A431BF4403F026047
:10156000A2D0002243F644030192C4F202031A6897
:101570004FF6084C42F480421A601A68CFF6FF7C9E
:1015800002F480420192019A28F00302724452F858
:101590000C3007F00C050F24AC40A343009C04FA68
:1015A00005F52B4342F80C30DEF808204B6842EA80
:1015B000090543F60C4CDC0258BF22EA0905CEF8B7
:1015C0000850C4F2010CDCF800209C0242EA090534
:1015D00058BF22EA0905CCF80050DEF804209C032D
:1015E00042EA090558BF22EA0905CEF80450DEF8A0
:1015F0000020DB0342EA090558BF22EA0905CEF8BC
:101600000050012550E700BF02B0BDE8F08F000098
:10161000426902EA0103914341EA03418161704753
:10162000002A08BF090481617047000041F2602070
:10163000C2F201000068704740F2040041F26021EC
:10164000C2F20000C2F2010100780A68104408608A
:101650007047000080B543F60040C4F20200016804
:1016600041F400710160016841F48061016001682A
:1016700041F480710160032000F08EF80F2000F02B
:1016800005F800F027F8002080BD000070B540F29A
:101690000406C2F2000640F228013278C2F20001CC
:1016A0004FF47A730968B3FBF2F20446B1FBF2F12E
:1016B000084600F08DFB0F2C4FF0010508D838B913
:1016C0004FF0FF3021460022002500F039F8746009
:1016D000284670BD82B0002043F640010190C4F25C
:1016E00002014A6842F480424A604A6802F4804239
:1016F0000192019A00900868002240F08050086032
:1017000008680F2100F08050009000986FF00100F1
:1017100002B000F015B80000002848BF7047C1B201
:1017200000F01F00012202FA00F04EF20012CEF289
:10173000000242EAD10121F0030108607047000075
:1017400010B54EF60C5CCEF2000CDCF80030C3F3A2
:10175000022E8EF00704042C28BF0424BEF10303DC
:101760004FF0FF3E0EFA04F438BF0023A143994026
:101770000EFA03F39A43114300F00F0200F16043A5
:101780000901043A03F564436244002848BF02F1AA
:101790000C03197010BD00004EF60C51CEF2000182
:1017A0000A684FF6FF031A4060F30A2242F0806095
:1017B00040F0FD700860704770B582B00020019065
:1017C00043F64000C4F202000168402641F0805117
:1017D00001600068C4F20E2600F08050019001986C
:1017E00047F204050120C4F200053060FFF71EFF38
:1017F000044600BF2868C00306D4FFF717FF001B8C
:10180000B0F57A7FF6D90EE001207060FFF70EFF89
:10181000044600BF2868800308D4FFF707FF001BB9
:10182000B0F57A7FF6D9032002B070BD002002B077
:1018300070BD00002DE9F041002800F08B8043F6D8
:101840000808C4F202080446D8F8F8030D4600F070
:101850000F00884207D288F8F853D8F8F80300F050
:101860000F00A84276D12068810717D5410705D51A
:10187000D8F8001041F4E051C8F80010010705D570
:10188000D8F8001041F46041C8F80010D8F80010F2
:10189000A26821F0F0011143C8F80010C0073FD141
:1018A000D8F8F80300F00F00A84207D988F8F853D9
:1018B000D8F8F80300F00F00A8424BD12068410788
:1018C00007D5D8F80010E26821F4E0511143C8F8B8
:1018D0000010000708D5D8F80000216920F4604006
:1018E00040EAC100C8F8000000F082F8D8F8001003
:1018F00043F6FC72C1F30311C0F60102515C40F2E1
:10190000280220FA01F140F20800C2F2000000684B
:10191000C2F200021160FFF7B9FE0020BDE8F081BD
:101920006068811E022907D258F8081C89015CBF33
:101930000120BDE8F08111E0012807D158F8081C0A
:1019400089035CBF0120BDE8F08107E058F8081C5E
:10195000890703D40120BDE8F08100BFD8F800104A
:1019600021F003010843C8F80000FFF75FFE0646B8
:1019700041F28837D8F80000616800F00C00B0EB45
:10198000810F8DD0FFF752FE801BB842F2D90320A1
:10199000BDE8F08140F22800C2F200000068704704
:1019A00040F2280043F60801C2F20000C4F202012E
:1019B0000068096844F20C02C1F38221C0F60102FA
:1019C000515CC8407047000040F2280043F608010F
:1019D000C2F20000C4F202010068096844F20C027D
:1019E000C1F34231C0F60102515CC84070470000AB
:1019F00010B543F60404C4F20204606800F00C0061
:101A000008280BD0042819BF42F20040C0F2F400AD
:101A100047F64000C0F27D1010BD00BF206821686D
:101A20002368490247F64001C0F27D1100F03F02F1
:101A3000C3F388105CBF42F20041C0F2F401A1FB85
:101A400000010023FEF7CEFB21680222C1F3014111
:101A500002EB4101B0FBF1F010BD00002DE9F041B7
:101A600082B0002868D00446007843F60006C0071C
:101A7000C4F202060BD0B06800F00C00042840F05D
:101A80009F803068800302D56068002854D0207899
:101A900080071AD5B06810F00C0F09D0B06800F0BC
:101AA0000C00082840F0A6807068400200F1A28077
:101AB0003068800702D5E06801283DD1306821698F
:101AC00020F0F80040EAC10030602078000737D4E9
:101AD000207840074CD4A56955B3B06800F00C00DD
:101AE000082840F0BB80012D26D07068E16900F421
:101AF00080028A4220D1216A00F03F028A421BD133
:101B000047F6C071626A0140B1EB821F14D1A16A2D
:101B10004FF6FF73C903994300F44032A1F58031B9
:101B20008A4209D1E16A00F07060B0EB016F03D125
:101B3000002002B0BDE8F081012002B0BDE8F081D4
:101B40006069002840F20000C4F2472076D00121ED
:101B5000C0F8801EFFF76AFD054600BF706F800762
:101B6000B6D4FFF763FD401B0228F7D9DDE000BFC4
:101B7000306C10F080580AD100200190306C40F099
:101B800080503064306C00F080500190019847F232
:101B90000007C4F200073868C00541D4386840F433
:101BA00080703860FFF742FD054600BF3868C00509
:101BB00036D4FFF73BFD401B0228F7D9B5E000BF44
:101BC000B06800F00C00082803D1706840023FF5AF
:101BD00058AF6068B0F5803F07D0B0F5A02F40F057
:101BE0008D80306840F480203060306840F4803070
:101BF00030608DE0E068002852D00020C4F2472019
:101C000001210160FFF712FD054600BF3068800723
:101C10003FF554AFFFF70AFD401B0228F6D984E0D8
:101C2000A068012805D005284ED1306F40F004008F
:101C30003067306F40F0010030674FE00021C0F89E
:101C4000801EFFF7F3FC0546706F80077FF540AFFD
:101C5000FFF7ECFC401B0228F6D966E00027C4F22F
:101C6000472700203866FFF7E1FC022D05460BD11F
:101C7000306880015ED5FFF7D9FC401B02284FF089
:101C80000300F5D955E700BF306880017FF550AFFC
:101C9000FFF7CCFC401B02284FF00300F4D948E7C3
:101CA0000020C4F2472000210160FFF7BFFC054679
:101CB000306880077FF509AFFFF7B8FC401B0228AA
:101CC0004FF00300F4D934E7316F002821F001010F
:101CD0003167316F21F0040131674DD0FFF7A6FC69
:101CE000054641F2883700BF306F800756D4FFF7B2
:101CF0009DFC401BB842F7D917E000BF31680028AF
:101D000021F480313160316821F4802131604FD07D
:101D1000FFF78CFC054600BF306880033FF5B7AE87
:101D2000FFF784FC401B6428F6D9032002B0BDE80D
:101D3000F08100BF04F11C052FCD084340EA82105A
:101D4000D9034FF6FF729143A1F5803140EA056057
:101D50000843706001203866FFF768FC044600BF46
:101D6000306880013FF5E4AEFFF760FC001B0228FD
:101D70004FF00300F4D9DCE6FFF758FC054641F2CA
:101D8000883700BF306F800708D5FFF74FFC401B36
:101D9000B8424FF00300F5D9CBE600BFB8F1000F11
:101DA0007FF499AE306C20F08050306493E600BF31
:101DB000FFF73CFC054600BF306880037FF567AE47
:101DC000FFF734FC401B64284FF00300F4D9B0E661
:101DD000411E0020B0EB116F1CBF012070474EF276
:101DE0001002CEF2000251604EF62351CEF20001F5
:101DF000F0230B700721906011607047002804BF2A
:101E00000120704710B5044690F83D0028B9002025
:101E100084F83C00204600F021F8242084F83D009E
:101E20002068C16821F40051C160204601F018FC0F
:101E30002068016921F490410161416921F02A0182
:101E40004161C16841F40051C1600020202120643B
:101E500084F83D1084F83E1010BD000080B586B0B7
:101E6000016844F60000C4F20000814202D006B0CE
:101E700080BD00BF002143F630020191C4F202028E
:101E8000136900F5E23043F480231361136903F40E
:101E900080230193019B0191136843F008031360B1
:101EA000126802F008020192019A4FF44072019206
:101EB0000222CDE90221032104910721059101A904
:101EC000FFF7D2FA06B080BD2DE9F04381B0044699
:101ED00090F83D0020280DD10F4600294FF0010059
:101EE00000F0DD801646002A00F0D98094F83C000E
:101EF000012803D1022001B0BDE8F083012084F85D
:101F00003C000020206421201D4684F83D00FFF79E
:101F10008DFBA684E684A1680646B1F5805F03D1F7
:101F20002069002800F01081B8460027002084F8BE
:101F30003C00E18C2068002900F0908005F1010947
:101F40000DE000BFB8F1000F28D018F8011B416068
:101F5000E18C0139E184E18C002900F07F80016887
:101F60000906EFD4B9F1000F0AD0FDB1FFF75EFB0F
:101F7000801BA8421AD8206801680906F6D5E1E757
:101F800001680906DED4016809065CBF01685FEAE2
:101F90000161D7D401680906F2D5D3E737F8021BEF
:101FA0004FF000086FF35F21D1E700BF206850E8D1
:101FB000030F216820F4D07041E80302BAB320680F
:101FC00050E8030F216820F4D07041E8030272B397
:101FD000206850E8030F216820F4D07041E8030224
:101FE0002AB3206850E8030F216820F4D07041E83C
:101FF0000302002ADAD11AE0206850E8050F2168B0
:1020000020F0010041E80502DAB1206850E8050F30
:10201000216820F0010041E8050292B1206850E8F3
:10202000050F216820F0010041E805024AB120684F
:1020300050E8050F216820F0010041E80502002A60
:10204000DAD1202084F83D0084F83E00002084F896
:102050003C00032001B0BDE8F08300BF01684906E1
:1020600019D4FDB1691C0DD10168490613D401686A
:1020700049065CBF01685FEA41610CD4016849060A
:10208000F2D508E0FFF7D2FA801BA8420AD82068F0
:1020900000684006F6D5202084F83D00002001B0FD
:1020A000BDE8F083206850E8030F216820F4D07069
:1020B00041E80302E2B3206850E8030F216820F4EE
:1020C000D07041E803029AB3206850E8030F2168FA
:1020D00020F4D07041E8030252B3206850E8030FA7
:1020E000216820F4D07041E80302002ADAD11FE011
:1020F000206850E8050F216820F0010041E8050242
:10210000002A9ED0206850E8050F216820F00100C9
:1021100041E80502002A3FF494AF206850E8050F1B
:10212000216820F0010041E80502002A3FF489AF50
:10213000206850E8050F216820F0010041E8050201
:10214000002AD5D17DE700BF4FF00008EEE6000081
:10215000FEE7000010B582B0044600210068636904
:10216000019101AA0121984700282DD420686369B4
:1021700001AA01219847002826D49DF804004007B1
:1021800002D4012002B010BD2068636901AA0021B9
:102190009847002818D40199C80407D401F40450C2
:1021A000B0F5045F14D1022002B010BD206863694D
:1021B00001AA1F219847002806D40198C10411D410
:1021C000062002B010BD00BF6FF0040002B010BDC9
:1021D000C8054FF0040058BF0520890448BF0320FC
:1021E00002B010BD00F01C001828DCD0142805D067
:1021F000082814BF0520032002B010BD042002B03F
:1022000010BD0000F0B581B0044640680021009187
:1022100070B1A06980470546A0698047401BB0F5B2
:10222000FA6FF9D9012000256060284601B0F0BDA1
:10223000A068002818BF8047202000256F46002690
:10224000206004E06FF004050136202E0ED0636993
:10225000304612213A4698470028F3D4009800F0FF
:102260001F008642F0D10025266000E026681F2E60
:1022700088BF6FF00205002DD7D1236930460021B9
:102280004FF40042984700281ED4206863696A46CC
:102290000021984700281DD4A069804706466F4654
:1022A0006FF004059DF801000006B2D5A0698047D3
:1022B000801BB0F5FA7F13D82068636900213A4685
:1022C00098470028EED5B0E76FF00305284601B027
:1022D000F0BD00BF6FF00405284601B0F0BD00BF9F
:1022E0006FF00105284601B0F0BD000080B598B13F
:1022F000CA688AB18B687BB1D1F810C0BCF1000FFD
:102300000AD0D1E900E1C0E90432C0E902E1C0F835
:1023100018C0002080BD00BF4FF0FF3080BD00001E
:102320002DE9F04381B00024C4F202041646894628
:1023300007462046102100229846FFF771F904F560
:102340008065284620210022FFF76AF92A2000F044
:10235000DDFE204610210122FFF762F928462021E8
:102360000122FFF75DF9204610210022FFF758F9FE
:10237000380A00F0CBFEF8B200F0C8FE204610216B
:102380000122FFF74DF9204610210022FFF748F9FE
:10239000300A00F0BBFEF0B200F0B8FE204610217B
:1023A0000122FFF73DF9204610210022FFF738F9FE
:1023B000284620210022FFF733F92B2000F0A6FE4B
:1023C000204610210122FFF72BF928462021012267
:1023D000FFF726F9204610210022FFF721F94FEAE6
:1023E000192000F093FE5FFA89F000F08FFE20467E
:1023F00010210122FFF714F9204610210022FFF7D7
:102400000FF94FEA182000F081FE5FFA88F000F023
:102410007DFE204610210122FFF702F920461021FF
:102420000022FFF7FDF8284620210022FFF7F8F8E8
:102430002C2000F06BFE204610210122FFF7F0F85F
:1024400028462021012201B0BDE8F043FFF7E8B89B
:102450002DE9F04381B00E468146501E591E984624
:10246000154682B28BB248463146FFF759FF4645C2
:1024700038BFA9450DD2089C4F4600BF204600F04A
:1024800019FE0137B8B2A842F8D30136B0B24045C0
:10249000F2D301B0BDE8F083B0B50024C4F2020469
:1024A00004F5406528464FF480410022FFF7B8F854
:1024B0003220FEF7F9F828464FF480410122FFF759
:1024C000AFF83220FEF7F0F828464FF40041012221
:1024D000FFF7A6F83220FEF7E7F820461021002289
:1024E000FFF79EF8204610210022FFF799F804F527
:1024F0008065284620210022FFF792F8112000F085
:1025000005FE204610210122FFF78AF828462021E7
:102510000122FFF785F8204610210022FFF780F8FE
:10252000284620210022FFF77BF8112000F0EEFD65
:10253000204610210122FFF773F8284620210122AE
:10254000FFF76EF83220FEF7AFF820461021002288
:10255000FFF766F8284620210022FFF761F83620B1
:1025600000F0D4FD204610210122FFF759F828463B
:1025700020210122FFF754F8204610210022FFF706
:102580004FF8002000F0C2FD204610210122FFF785
:1025900047F8204610210022FFF742F82846202164
:1025A0000022FFF73DF83A2000F0B0FD2046102150
:1025B0000122FFF735F8284620210122FFF730F8E5
:1025C000204610210022FFF72BF8552000F09EFD39
:1025D000204610210122FFF723F820461021002277
:1025E000FFF71EF8284620210022FFF719F8B22035
:1025F00000F08CFD204610210122FFF711F828463B
:1026000020210122FFF70CF8204610210022FFF7BD
:1026100007F81F2000F07AFD204610210122FEF766
:10262000FFFF204610210022FEF7FAFF1F2000F0D6
:102630006DFD204610210122FEF7F2FF20461021F9
:102640000022FEF7EDFF002000F060FD2046102183
:102650000122FEF7E5FF204610210022FEF7E0FFF1
:10266000332000F053FD204610210122FEF7D8FF51
:10267000204610210022FEF7D3FF332000F046FD54
:10268000204610210122FEF7CBFF20461021002218
:10269000FEF7C6FF284620210022FEF7C1FFB72023
:1026A00000F034FD204610210122FEF7B9FF284634
:1026B00020210122FEF7B4FF204610210022FEF760
:1026C000AFFF352000F022FD204610210122FEF749
:1026D000A7FF204610210022FEF7A2FF2846202156
:1026E0000022FEF79DFFBB2000F010FD20461021C8
:1026F0000122FEF795FF284620210122FEF790FFD8
:10270000204610210022FEF78BFF2B2000F0FEFC5C
:10271000204610210122FEF783FF204610210022CF
:10272000FEF77EFF284620210022FEF779FFC02019
:1027300000F0ECFC204610210122FEF771FF284634
:1027400020210122FEF76CFF204610210022FEF717
:1027500067FF2C2000F0DAFC204610210122FEF752
:102760005FFF204610210022FEF75AFF2846202155
:102770000022FEF755FFC22000F0C8FC20461021C1
:102780000122FEF74DFF284620210122FEF748FFD7
:10279000204610210022FEF743FF012000F0B6FC86
:1027A000204610210122FEF73BFF20461021002287
:1027B000FEF736FF284620210022FEF731FFC32016
:1027C00000F0A4FC204610210122FEF729FF284634
:1027D00020210122FEF724FF204610210022FEF7CF
:1027E0001FFF0F2000F092FC204610210122FEF76F
:1027F00017FF204610210022FEF712FF2846202155
:102800000022FEF70DFFC42000F080FC20461021BE
:102810000122FEF705FF284620210122FEF700FFD6
:10282000204610210022FEF7FBFE202000F06EFC67
:10283000204610210122FEF7F3FE2046102100223F
:10284000FEF7EEFE284620210022FEF7E9FEC62014
:1028500000F05CFC204610210122FEF7E1FE284634
:1028600020210122FEF7DCFE204610210022FEF787
:10287000D7FE012000F04AFC204610210122FEF77D
:10288000CFFE204610210022FEF7CAFE2846202156
:102890000022FEF7C5FED02000F038FC20461021B3
:1028A0000122FEF7BDFE284620210122FEF7B8FED8
:1028B000204610210022FEF7B3FEA42000F026FCE3
:1028C000204610210122FEF7ABFE204610210022F7
:1028D000FEF7A6FEA12000F019FC204610210122DF
:1028E000FEF79EFE204610210022FEF799FE2846A4
:1028F00020210022FEF794FED62000F007FC20469F
:1029000010210122FEF78CFE284620210122FEF72D
:1029100087FE204610210022FEF782FEA12000F053
:10292000F5FB204610210122FEF77AFE20461021F9
:102930000022FEF775FE284620210022FEF770FED9
:10294000E02000F0E3FB204610210122FEF768FEA4
:10295000284620210122FEF763FE20461021002296
:10296000FEF75EFEF02000F0D1FB20461021012290
:10297000FEF756FE204610210022FEF751FE0420ED
:1029800000F0C4FB204610210122FEF749FE20463C
:1029900010210022FEF744FE072000F0B7FB20467E
:1029A00010210122FEF73CFE204610210022FEF7F6
:1029B00037FE042000F0AAFB204610210122FEF77A
:1029C0002FFE204610210022FEF72AFE042000F0F0
:1029D0009DFB204610210122FEF722FE20461021F9
:1029E0000022FEF71DFE042000F090FB204610217F
:1029F0000122FEF715FE204610210022FEF710FEF0
:102A0000252000F083FB204610210122FEF708FE5E
:102A1000204610210022FEF703FE332000F076FB53
:102A2000204610210122FEF7FBFD20461021002246
:102A3000FEF7F6FD3C2000F069FB20461021012244
:102A4000FEF7EEFD204610210022FEF7E9FD3620BC
:102A500000F05CFB204610210122FEF7E1FD20463C
:102A600010210022FEF7DCFD142000F04FFB204671
:102A700010210122FEF7D4FD204610210022FEF78E
:102A8000CFFD122000F042FB204610210122FEF76C
:102A9000C7FD204610210022FEF7C2FD292000F0CC
:102AA00035FB204610210122FEF7BAFD20461021F9
:102AB0000022FEF7B5FD302000F028FB2046102153
:102AC0000122FEF7ADFD204610210022FEF7A8FDF1
:102AD000284620210022FEF7A3FDE12000F016FB8E
:102AE000204610210122FEF79BFD284620210122CD
:102AF000FEF796FD204610210022FEF791FDF02002
:102B000000F004FB204610210122FEF789FD20463B
:102B100010210022FEF784FD022000F0F7FA204683
:102B200010210122FEF77CFD204610210022FEF735
:102B300077FD042000F0EAFA204610210122FEF77A
:102B40006FFD204610210022FEF76AFD052000F0EF
:102B5000DDFA204610210122FEF762FD20461021F9
:102B60000022FEF75DFD052000F0D0FA204610217E
:102B70000122FEF755FD204610210022FEF750FDF0
:102B8000212000F0C3FA204610210122FEF748FD63
:102B9000204610210022FEF743FD252000F0B6FA62
:102BA000204610210122FEF73BFD20461021002285
:102BB000FEF736FD322000F0A9FA2046102101224E
:102BC000FEF72EFD204610210022FEF729FD3B20B6
:102BD00000F09CFA204610210122FEF721FD20463C
:102BE00010210022FEF71CFD382000F08FFA20464D
:102BF00010210122FEF714FD204610210022FEF7CD
:102C00000FFD122000F082FA204610210122FEF76B
:102C100007FD204610210022FEF702FD142000F0DF
:102C200075FA204610210122FEF7FAFC20461021F9
:102C30000022FEF7F5FC272000F068FA204610215C
:102C40000122FEF7EDFC204610210022FEF7E8FCF1
:102C5000312000F05BFA204610210122FEF7E0FC53
:102C6000204610210022FEF7DBFC2846202100220E
:102C7000FEF7D6FC212000F049FA2046102101225F
:102C8000FEF7CEFC284620210122FEF7C9FC204693
:102C900010210022FEF7C4FC284620210022FEF766
:102CA000BFFC292000F032FA204610210122FEF755
:102CB000B7FC284620210122BDE8B040FEF7B0BC99
:102CC0002DE9F04F85B00F9E81464FEA5608300936
:102CD000049315468B4601215FEA487218BF01EB49
:102CE000161000FB06F409EB56000BEB0601013849
:102CF000013982B28BB248465946FFF711FB002CCE
:102D000000F09581A6F10C00C1B2800140EA91006B
:102D1000C2B2052A00F28B810120904010F02B0FE7
:102D200000F085811099A5F12000002945F6484E54
:102D300044F2140344F2884C44F67821C0B2C0F641
:102D4000010EC0F60103C0F6010CC0F601010392AA
:102D500000F0C48000EB400603EB860501EB061390
:102D6000002702930CEB00130EEB80104E460193EC
:102D7000009000BF032A05D0012A05D028462AB1B9
:102D8000009802E0029800E00198384490F800A012
:102D90005FEACA700AD0B0B21FFA8BF102460B4646
:102DA000FFF7BEFA049800F085F9039A701C80B210
:102DB000A0EB0901414500F087805FEA8A7109D5DF
:102DC0001FFA8BF102460B46FFF7AAFA049800F0AF
:102DD00071F9039AB01C80B2A0EB0901414573D090
:102DE0005FEA4A7109D51FFA8BF102460B46FFF7DD
:102DF00097FA049800F05EF9039AF01C80B2A0EBF9
:102E00000901414560D05FEA0A7109D51FFA8BF1CB
:102E100002460B46FFF784FA049800F04BF9039A38
:102E2000301D80B2A0EB090141454DD05FEACA6177
:102E300009D51FFA8BF102460B46FFF771FA049889
:102E400000F038F9039A701D80B2A0EB09014145EA
:102E50003AD05FEA8A6109D51FFA8BF102460B4628
:102E6000FFF75EFA049800F025F9039AB01D80B2CE
:102E7000A0EB0901414527D05FEA4A6109D51FFA55
:102E80008BF102460B46FFF74BFA049800F012F95B
:102E9000039AF01D80B2A0EB0901414514D04FFA0E
:102EA0008AF1B1F1FF3F09DC1FFA8BF102460B46B4
:102EB000FFF736FA049800F0FDF8039A0836B0B22E
:102EC000A0EB0900404502D10BF1010B4E46013742
:102ED000013C05F101057FF44DAFA8E0DDF838A015
:102EE00000EB40010EEB80170026029103EB8101FD
:102EF0000CEB00104FF0000B0191009072B1012A11
:102F00000ED0DDF81090032A38460DD144F6782013
:102F1000029AC0F6010000EB021004E0019800E004
:102F20000098DDF8109030440578E807484608BF5F
:102F3000504600F0BFF80BF10100C0B2B0FBF8F151
:102F400001FB1800002869D0A807484658BF504622
:102F500000F0B0F80BF10200C0B2B0FBF8F101FBD9
:102F6000180000285AD06807484658BF504600F05D
:102F7000A1F80BF10300C0B2B0FBF8F101FB18009F
:102F800000284BD02807484658BF504600F092F81A
:102F90000BF10400C0B2B0FBF8F101FB1800E8B37C
:102FA000E806484658BF504600F084F80BF105008B
:102FB000C0B2B0FBF8F101FB180078B3A806484690
:102FC00058BF504600F076F80BF10600C0B2B0FBD7
:102FD000F8F101FB180008B36806484658BF504690
:102FE00000F068F80BF10700C0B2B0FBF8F101FB8C
:102FF000180098B168B2002858BFD14648460BF176
:10300000080500F057F8E8B2B0FBF8F101FB180B27
:10301000BBF1000F18BFAB4602E000BF4FF0000B42
:10302000039A0136013C07F101077FF467AF05B051
:10303000BDE8F08FB0B51C46154602440B44013A7A
:10304000013B92B29BB2FFF76BF9002D18BF002C29
:103050000BD004986C43851E15F8020F00F042F85F
:10306000687800F03FF8013CF6D1B0BD2DE9F04F93
:1030700083B09B461378CBB1DDE90C9ADDF838803C
:103080000D4606464FEA5A07541E00BFB0B2DAB2E8
:1030900029465B46CDE9009ACDF80880FFF710FE7F
:1030A000A3783E44002B04F10104EFD103B0BDE846
:1030B000F08F0000B0B50025C4F202050446284692
:1030C00010210022FEF7ACFA200A00F01FF8E0B24F
:1030D00000F01CF8284610210122BDE8B040FEF7A0
:1030E0009FBA0000B0B50025C4F202050446284688
:1030F00010210022FEF794FA204600F007F8284637
:1031000010210122BDE8B040FEF78ABAB0B540F206
:103110000044C4F202040546204608210022FEF7BE
:103120007FFAEA0920461021FEF77AFA20460821A4
:103130000122FEF775FA204608210022FEF770FAF8
:10314000C5F3801220461021FEF76AFA20460821B6
:103150000122FEF765FA204608210022FEF760FAF8
:10316000C5F3401220461021FEF75AFA20460821E6
:103170000122FEF755FA204608210022FEF750FAF8
:10318000C5F3001220461021FEF74AFA2046082116
:103190000122FEF745FA204608210022FEF740FAF8
:1031A000C5F3C00220461021FEF73AFA2046082156
:1031B0000122FEF735FA204608210022FEF730FAF8
:1031C000C5F3800220461021FEF72AFA2046082186
:1031D0000122FEF725FA204608210022FEF720FAF8
:1031E000C5F3400220461021FEF71AFA20460821B6
:1031F0000122FEF715FA204608210022FEF710FAF8
:1032000005F0010220461021FEF70AFA20460821A7
:103210000122BDE8B040FEF703BA000080B543F2DA
:10322000655047F20842C0F60000C0F601020021D6
:1032300006F056FA40F28851C2F20001086080BDE3
:103240002DE9F04F87B0002543F63000CDE9055554
:103250000195C4F202000168002741F010010160ED
:103260000168C4F2020701F0100101910199019572
:103270000168002241F0040101600168102601F09C
:103280000401019101990195016841F080010160FB
:10329000016801F08001019101990195016841F0F7
:1032A00001010160016801F001010191019901959D
:1032B000016841F002010160016801F00201019121
:1032C00001990195016841F008010160016801F070
:1032D0000801019101990195016841F040010160E7
:1032E0000068102100F04000019001983846FEF778
:1032F00097F907F5406B58464FF440410022FEF71E
:103300008FF907F5006948464FF4E0610022FEF7A7
:1033100087F907F580684046382100224FF0380AC7
:10332000FEF77EF94FF4881002ACCDE9030507F5EE
:1033300080502146CDF808A0FEF796F802960126A7
:1033400038462146CDE903650595FEF78DF84FF423
:103350004040CDE9020658462146CDE90455FEF726
:1033600083F84FF4E060CDE9020648462146CDE9F6
:103370000455FEF779F840462146CDE902A6CDE98D
:103380000455FEF771F8092005210022FEF7D8F94F
:103390000920FEF7C1F90A2005210022FEF7D0F925
:1033A0000A20FEF7B9F9172005210022FEF7C8F917
:1033B0001720FEF7B1F907B0BDE8F08FF0B583B084
:1033C00040F2CC044AF6C000C2F20004CAF60B0078
:1033D0006FF07F414AF6C002CFF60B6284E8070027
:1033E0000020002100270DF0FFFF94E8290021466E
:1033F000224641F80C0F42F8103F234644F669502C
:1034000043F8145F41F2BD46C0F6000004F13C05EC
:10341000C0F60106CDE900702846029605F02AFCA8
:10342000284605F0C5FD94F86900400704D42846F5
:1034300005F0C4FD03E000BF284605F069FE44F630
:10344000B531C0F60001284605F0E6FD0CA044F8B1
:10345000180F4FF4806004F11402002310210BC2F6
:1034600044F6B930C4E90133C4E90333C0F60000BF
:1034700029462246236203B0BDE8F04006F030B989
:103480004574684C696E6B0080B540F2406044F64C
:103490000001C2F20000C4F2000100234FF00C0C46
:1034A0004FF4E13280E80E00C0E90333C0E905C300
:1034B000C361FEF7A3FC002808BF80BDBDE88040C3
:1034C000FDF7ECB8FEE70000FEE70000000000009A
:1034D000EFF30980BFF36F8F154B1A681EF0100FC2
:1034E00008BF20ED108A20E9F04F10602DE9090097
:1034F0004FF0500080F31188BFF34F8FBFF36F8FF1
:103500000FF0AEF94FF0000080F31188BDE809001C
:1035100019680868B0E8F04F1EF0100F08BFB0EC53
:10352000108A80F30988BFF36F8F704700BF00BF18
:103530003C0100200000000000000000000000002E
:10354000074B19680868B0E8F04F80F30988BFF3AB
:103550006F8F4FF0000080F31188704700BF00BFED
:103560003C010020FFF72AFF012005F005FEFBE7E4
:1035700080B5FEF761F810F0CFF9012808BF80BDD3
:10358000BDE880400FF08CBA80B592B0002043F6C1
:1035900040010B90CDE90900CDE907000590CDE988
:1035A0000300CDE901000090C4F202010A6842F074
:1035B00080520A60096801F080510091009947F239
:1035C00000010090C4F200010A6842F440420A601F
:1035D0000968012201F44041009100990221CDE9DE
:1035E0000C1008200E90B420CDE90F0104200992A0
:1035F0001022119006A806910A92FEF72FFA28B120
:10360000EFF3108072B600BFFEE700BFFEF7D4F8FC
:1036100020B1EFF3108072B6FEE700BF0F200190DB
:1036200002200290002003904FF4A05004904FF429
:103630008050059001A80521FEF7FCF820B1EFF3BA
:10364000108072B6FEE700BF12B080BD4EF6885003
:10365000CEF20000016841F4700101607047000083
:1036600010B504460068D4E902C22369016921F457
:10367000405111430161626943EA0C01E36911435E
:10368000C268194349F20C639A431143C16041690E
:10369000A26921F4407141F20043114340F4806279
:1036A000C4F201039A42416102D1FEF78DF901E0B3
:1036B000FEF776F9E16963681922B1F5004FA0FBC6
:1036C000020123D15A00DB0FFCF78CFD48F21F5199
:1036D000C5F2EB11A0FB01235A094FF69C73C0F60B
:1036E000FF7303F1805302FB0300322303EBC0009E
:1036F000A0FB01014FF4F87000EA111000EB02107A
:10370000C1F3421108442168886010BD9A009B0FE4
:10371000FCF768FD48F21F51C5F2EB11A0FB012335
:103720005A094FF69C73C0F6FF7302FB0300322365
:1037300003EB0010A0FB0101F02000EA511000EBA8
:103740000210C1F3431108442168886010BD0000D5
:10375000FEE700002DE9F04104460D4678B94BF62E
:103760005C304BF688414BF69543C0F60600C0F638
:103770000601C0F606034FF4DC7210F00BFB07F0F5
:1037800005FD227F002194F8018042F00102616072
:1037900025722277617007F023FD636A7BB12046B2
:1037A000042100229847636A4BB120460021002281
:1037B0009847636A1BB1204602210022984705F111
:1037C0000F00032804D243A151F820600EE000BF8F
:1037D0005DB14BF65C304BF69543C0F6060039A15F
:1037E000C0F606037D2210F0D5FA002604F110077A
:1037F000384607F055FD18B13846314607F040FD10
:1038000004F11407384607F04BFD18B1384631462D
:1038100007F036FDB8F1040F40D8012000FA08F097
:1038200010F01A0F3AD0207F00F0FB0140072177FB
:1038300048BFBDE8F081206A78B94BF65C304BF6A2
:103840006E414BF69543C0F60600C0F60601C0F681
:1038500006034FF4F37210F09DFA206AB8F10401E8
:1038600018BF29460268017102F10C05284607F0CD
:103870005BFD60B94BF65C304BF69543C0F6060035
:1038800017A1C0F6060340F2EF1210F083FA0021F0
:1038900028462162BDE8F04107F042BD206A78B1B8
:1038A0004BF65C304BF69543C0F6060013A1C0F60C
:1038B000060340F2F712BDE8F04110F06BBA00BF0A
:1038C000BDE8F081756E68616E646C656420657238
:1038D000726F720049BB06084ABB060848BB06085F
:1038E000696E61766C6964206F705F636F6D706C78
:1038F000657465645F73656D00000000636F6E6ED4
:103900002D3E63757272656E745F6D7367203D3D09
:10391000204E554C4C000000B0B540F29845C2F224
:103920000005297D044651B1A868A04207D1286846
:1039300018B106F05DFA002028600020287595F87F
:103940002C0058B1286AA04208D1A86918B106F025
:103950004FFA0020A861002085F82C0095F844005B
:1039600058B1A86BA04208D1286B18B106F040FAF4
:1039700000202863002085F8440095F85C0058B1C9
:10398000286DA04208D1A86C18B106F031FA0020C9
:10399000A864002085F85C0095F8740058B1A86E02
:1039A000A04208D1286E18B106F022FA002028663D
:1039B000002085F8740095F88C0060B1D5F880007F
:1039C000A04208D1A86F18B106F012FA0020A8672B
:1039D000002085F88C0095F8A40070B1D5F8980007
:1039E000A0420AD1D5F8900020B106F001FA0020DB
:1039F000C5F89000002085F8A40095F8BC0070B1CF
:103A0000D5F8B000A0420AD1D5F8A80020B106F040
:103A1000EFF90020C5F8A800002085F8BC0095F853
:103A2000D40070B1D5F8C800A0420AD1D5F8C000C2
:103A300020B106F0DDF90020C5F8C000002085F8AF
:103A4000D40095F8EC0078B1D5F8E000A04218BF9A
:103A5000B0BDD5F8D80020B106F0CAF90020C5F8ED
:103A6000D800002085F8EC00B0BD00002DE9F04F33
:103A700085B00028CDE90112049000F08B804FF052
:103A80000A0B002A00F0B08040F2984C002301227B
:103A9000C2F2000C00204FF0000E4FF0000A4FF071
:103AA0000A084FF00A090A21039106E090463033D4
:103AB000F02B02F1020200F005830CEB0304257DDC
:103AC0001FFA88F10A29A2F1010608BF002D19D0BA
:103AD00065B3049967680968B94204D1A168029F77
:103AE000B94200F03D81012D0ED15CF80310658ACA
:103AF00091B11FFA8AFA554528BFB34688BFAA4636
:103B000014E000BFB04611E0618A80B2814228BF54
:103B1000B14688BF084609E01FFA8EFE0399754535
:103B200028BF3146039188BFAE4600BF94F82C50A1
:103B30001FFA88F10A2908BF002DB7D0002DB6D092
:103B40000499E6690968B14204D1216A029EB14232
:103B500000F0C382012D0BD1A169648D81B11FFAE0
:103B60008AFA544528BF934688BFA2469FE700BF04
:103B7000618D80B2814228BF914688BF084696E792
:103B80001FFA8EFE0399744528BF1146039188BF22
:103B9000A6468CE740F29846C2F20006337D012B20
:103BA00000F09E80002B40F0C58096F82C404FF02E
:103BB00000080A20002C00F0DB8003904FF00A0977
:103BC00000204FF00A0B00234FF0000C4FF0000EC6
:103BD000012C00F0A380748D744528BF4FF00109BB
:103BE00088BFA646DFE000BF40F2984C00200122CB
:103BF000C2F2000C00274FF0000E00244FF00A081C
:103C00004FF00A090A21039107E000BF90463030C7
:103C1000F02802F1020200F055820CEB00031D7D3A
:103C20001FFA88F60A2EA2F1010608BF002D15D052
:103C300045B30499D1F800A059688A4500F09280F4
:103C4000012D0DD15CF800105D8A89B1A4B2A542A6
:103C500028BFB34688BF2C4614E000BFB04611E031
:103C6000598ABFB2B94228BFB14688BF0F4609E0A2
:103C70001FFA8EFE0399754528BF3146039188BF10
:103C8000AE4600BF93F82C501FFA88F10A2908BFEE
:103C9000002DBBD0002DBAD00499DE690968B1426D
:103CA00000F01B82012D09D199695B8D71B1A4B21D
:103CB000A34228BF934688BF1C46A8E7598DBFB2D0
:103CC000B94228BF914688BF0F46A0E71FFA8EFE73
:103CD0000399734528BF1146039188BF9E4696E716
:103CE0003368B6F812C0002B18464FF0000E4FF0A4
:103CF000000B4FF00A0918BF0A20039008BF4FF0CD
:103D00000A0B002B1CBF6346F44696F82C4001209A
:103D100004B34FF00A08012C7FF45DAFB569748DD0
:103D2000C5B39BB29C4228BF4FF0010B88BF23460E
:103D300039E000BFB6F812E00A204FF00009039006
:103D40004FF00A0B00234FF0000C96F82C40012096
:103D5000002CDED14FF0010896F84440ACBB14E0D3
:103D60003246BAE1324610B205B0BDE8F08F00BF6E
:103D700003904FF00A094FF00A0B00234FF0000C9C
:103D80004FF0000E96F84440FCB996F85C0000280D
:103D900045D114E01FFA8CFC039A644528BF012228
:103DA000039288BFA44696F84440B4FA84F56D099E
:103DB000284209D04FF0020896F85C0078BB96F8CC
:103DC000740000285FD148E00CB3012C0CD1346B97
:103DD000B6F8420094B19BB2984228BF4FF0020B54
:103DE00088BF034613E000BFB6F84200704528BF05
:103DF0004FF0020988BF864609E000BF1FFA8CFC1D
:103E0000039A604528BF0222039288BF844696F831
:103E10005C00B8F10A0F08BF002819D058B3012878
:103E20000CD1B46CB6F85A00E4B19BB2984228BFEA
:103E30004FF0030B88BF03461DE000BFB6F85A00E1
:103E4000704528BF4FF0030988BF864613E000BFC6
:103E50004FF0030896F87400A8B996F88C00002873
:103E600045D12EE01FFA8CFC039A604528BF03223F
:103E7000039288BF844696F87400B8F10A0F08BF11
:103E8000002819D058B301280CD1346EB6F872004E
:103E9000E4B19BB2984228BF4FF0040B88BF0346A1
:103EA0001DE000BFB6F87200704528BF4FF004094E
:103EB00088BF864613E000BF4FF0040896F88C00D8
:103EC000A8B996F8A400002845D12EE01FFA8CFC72
:103ED000039A604528BF0422039288BF844696F85F
:103EE0008C00B8F10A0F08BF002819D058B3012878
:103EF0000CD1B46FB6F88A00E4B19BB2984228BFE7
:103F00004FF0050B88BF03461DE000BFB6F88A00DE
:103F1000704528BF4FF0050988BF864613E000BFF3
:103F20004FF0050896F8A400A8B996F8BC00002840
:103F300045D12EE01FFA8CFC039A604528BF05226C
:103F4000039288BF844696F8A400B8F10A0F08BF10
:103F5000002819D058B301280CD1D6F89040B6F8F3
:103F6000A200DCB19BB2984228BF4FF0060B88BF7D
:103F700003461CE0B6F8A200704528BF4FF00609C2
:103F800088BF864613E000BF4FF0060896F8BC00D5
:103F9000A8B996F8D400002841D15BE01FFA8CFC48
:103FA000039A604528BF0622039288BF844696F88C
:103FB000BC00B8F10A0F08BF002819D038B3012897
:103FC0000CD1D6F8A840B6F8BA00BCB19BB2984262
:103FD00028BF4FF0070B88BF034618E0B6F8BA00B9
:103FE000704528BF4FF0070988BF86460FE000BF25
:103FF0004FF0070896F8D40088B92BE01FFA8CFC24
:10400000039A604528BF0722039288BF844696F82A
:10401000D400B8F10A0F08BF002819D038B301281E
:104020000CD1D6F8C040B6F8D200BCB19BB29842D1
:1040300028BF4FF0080B88BF034618E0B6F8D2003F
:10404000704528BF4FF0080988BF86460FE000BFC3
:104050004FF0080896F8EC0010E000BF1FFA8CFC47
:10406000039A604528BF0822039288BF844696F8C9
:10407000EC00B8F10A0F08BF002821D010B30128C6
:1040800012D1D6F8D870B6F8EA00002F00F0A08060
:104090009AB2904228BF4FF0090B01994FF6FF7278
:1040A00088071AD413E000BFB6F8EA00704528BFAD
:1040B0004FF0090901994FF6FF7288070DD406E009
:1040C0004FF0090801994FF6FF72880705D4C80719
:1040D00008D11FFA88F00A2804D110B205B0BDE853
:1040E000F08F00BF0FFA88F40A2C19DA40F29841D9
:1040F00004EB4400C2F2000101EBC000007D002887
:1041000048D04BF65C304CF2A373C0F606003DA1DC
:10411000C0F6060340F285120FF03CFE3AE000BF05
:104120000FFA89F0092817DC40F2984100EB4000B3
:10413000C2F2000151F8300060B14BF65C304CF235
:10414000A373C0F6060029A1C0F6060340F26D1263
:104150000FF020FEC8460AE0DDF80C800FFA88F068
:104160000A2804DB0FFA8BF00928D846B5DC0FFAD1
:1041700088F440F2984204EB4401C2F2000252F883
:10418000310002EBC10518B105F032FE00202860B5
:10419000002028750498029B48B140F298420068BC
:1041A00004EB4401C2F2000202EBC101486040F29C
:1041B000984104EB4400C2F2000101EBC000002171
:1041C00041828360424610B205B0BDE8F08F00BF67
:1041D0001FFA8CF29042039828BF0920039001999E
:1041E0004FF6FF7288073FF578AF70E76172705F36
:1041F0007461626C655B695D2E71203D3D204E559A
:104200004C4C00006172705F7461626C655B695D4B
:104210002E7374617465203D3D20455448415250D1
:104220005F53544154455F454D50545900000000C0
:104230002DE9F04F85B039B3466804463088B0F5B3
:10424000807F1BD13079062818D17079042815D1C8
:104250007088082812D18A465AF8040FD6F80E70D2
:104260000D46049720B3B16906F10808814221D1B7
:104270004FF0010B4FF0010920E000BF204605B0D0
:10428000BDE8F04F05F0B4BD4BF65C304CF28671E2
:104290004CF2A373C0F60600C0F60601C0F6060392
:1042A00040F28A2205B0BDE8F04F0FF073BD00BFA9
:1042B00006F108084FF002094FF0000B95F82C00AA
:1042C00006280CD04BF65C304CF2A373C0F6060007
:1042D0002DA1C0F6060340F2A9120FF05BFDB7B3A3
:1042E0003846294600F0ECFF88BB07F0F000E028D4
:1042F0002DD004A849462A46FFF7B8FB002826D44B
:1043000081B2490040F2984211FA80F1C2F20002F3
:1043100002EBC100022303758560D8F8003052F823
:104320003170C360B8F8043000210382418277B154
:10433000016005F126024FF4006C284639464346D9
:10434000CDF800C000F0A4FC384605F051FDF0881F
:104350008BF00101B0F5807018BF012008430CD12B
:1043600005F1260104A802270290284642460B4682
:10437000CDE900A8039700F0C1FA204605F038FD0A
:1043800005B0BDE8F08F00BF6E657469662D3E68AC
:1043900077616464725F6C656E203D3D20455448D2
:1043A0005F4857414444525F4C454E0070B584B05D
:1043B000164605460C4658B1E4B156B33068294656
:1043C00000F07EFFB0B347F22C43C0F6010347E094
:1043D0004BF65C304CF286714CF2A373C0F60600CB
:1043E000C0F60601C0F6060340F21E320FF0D2FC02
:1043F000002CE2D14BF65C304CF2A373C0F6060001
:1044000081A1C0F6060340F21F320FF0C3FC002E5C
:10441000D4D14BF65C304CF294714CF2A373C0F6DD
:104420000600C0F60601C0F606034FF448720FF00E
:10443000B1FCC3E7306800F0F001E0291CD1012392
:10444000ADF808305E23010E020C8DF80A30C0F37F
:10445000062002AB8DF80B008DF80C208DF80D10A6
:1044600005F126024FF4006628462146009600F02A
:104470000FFC40B204B070BDD5E9011241401142B9
:1044800008D081B24FF6A962914203D02E4656F869
:104490000C0FA8B340F28C5CC2F2000C9CF8002018
:1044A00040F2984E02EB4203C2F2000E0EEBC30341
:1044B000197D022908D39968A94205D15968884213
:1044C00002D12846214692E09EF81410022909D311
:1044D000DEF80810A94205D1DEF80410884201D1A7
:1044E000002280E09EF82C1002290DD3DEF8201067
:1044F000A94209D1DEF81C10884205D1012272E0E0
:10450000FC2040B204B070BD9EF84410022909D3CB
:10451000DEF83810A94205D1DEF83410884201D106
:10452000022260E09EF85C10022909D3DEF85010E8
:10453000A94205D1DEF84C10884201D1032252E095
:104540009EF87410022909D3DEF86810A94205D13B
:10455000DEF86410884201D1042244E09EF88C10F9
:10456000022909D3DEF88010A94205D1DEF87C10BB
:10457000884201D1052236E09EF8A410022909D311
:10458000DEF89810A94205D1DEF89410884201D1D6
:10459000062228E09EF8BC10022909D3DEF8B010EC
:1045A000A94205D1DEF8AC10884201D107221AE0F9
:1045B0009EF8D410022909D3DEF8C810A94205D10B
:1045C000DEF8C410884201D108220CE09EF8EC10FD
:1045D000022911D3DEF8E010A9420DD1DEF8DC107B
:1045E000884209D10922284621468CF8002004B0CF
:1045F000BDE8704000F00EB828463146224604B0AF
:10460000BDE8704000F080B87120213D204E554C2F
:104610004C000000F0B585B040F2984302EB420236
:10462000C2F2000303EBC206374617F8142F0C46FC
:10463000012A05460DD84BF65C304CF2A373C0F648
:10464000060025A1C0F6060340F2EF220FF0A2FB00
:104650003A78022A32D1708AB0F58E7F12D947F2A9
:1046600032432A1DC0F60103301DCDE9002347F275
:104670002C4205F126014FF0010C0290C0F6010218
:1046800012E000BFB0F5877F18D347F2324E301DDD
:1046900006F10C0205F126012B1D4FF0010CC0F6AE
:1046A000010ECDE9003E029028460B46CDF80CC025
:1046B00000F024F9002804BF0320387005F1260219
:1046C00006F10C034FF4006728462146009700F0DE
:1046D000DFFA05B0F0BD00BF6172705F7461626C9B
:1046E000655B6172705F6964785D2E737461746577
:1046F000203E3D204554484152505F53544154455B
:104700005F535441424C45002DE9F04F85B00F46B0
:104710000968054608462946914600F0D1FD28B1B2
:10472000F02040B205B0BDE8F08F00BF3968F0203E
:104730000029F6D001F0F001E029F2D0384601213D
:104740002A46FFF793F90646B0F1FF3F3EDD7F2E84
:1047500005F126080CD34BF65C304CF2A373C0F67F
:1047600006005BA1C0F6060340F2C1320FF012FB57
:104770005FFA86FA4FEA4A0040F2984B50FA86F008
:10478000C2F2000B0BEBC000044614F8141F19B35F
:10479000B9F1000F68D00490FF2002293FD340F206
:1047A0008C50C2F2000006700AEB4A000BEBC0000E
:1047B00000F10C034FF40067284649464246009733
:1047C00000F066FA05B0BDE8F08F00BF304640B299
:1047D00005B0BDE8F08F00BF04900AEB4A000BEB78
:1047E000C00047F232418560281DC0F6010147F242
:1047F0002C424FF0010C8DE88300C0F601022846E0
:104800004146434684F800C0CDF80CC000F076F86D
:10481000B9F1000F3FF485AF21780229BFD20129F9
:104820007FF47FAF4BF65C354CF2A377C0F60605FC
:104830002BA6C0F606074C4660892189884208D11C
:10484000206830B12846314640F2F1323B460FF045
:10485000A1FA207B40061DD42468002CECD14846E8
:1048600005F0ACFC1DE000BF47F23241281DC0F648
:10487000010147F22C4201268DE88300C0F60102B7
:10488000284641464346039600F038F805B0BDE897
:10489000F08F00BF0E204FF420714A4605F02AF930
:1048A00081460498B9F1000F0CD004460068002836
:1048B00018BF05F09DFA0020C4F8009040B205B082
:1048C000BDE8F08FFF2040B205B0BDE8F08F00BF1B
:1048D00074797065206F766572666C6F7700000082
:1048E0006E6F207061636B6574207175657565739B
:1048F00020616C6C6F776564210000002DE9F04F3A
:1049000081B01F4690460646894678B94BF65C3022
:104910004CF286714CF2A373C0F60600C0F6060195
:10492000C0F6060340F257420FF034FA0E201C2165
:104930004FF4207204F062FF002859D004464089E9
:10494000DDF834A01B280CD84BF65C304CF2A37376
:10495000C0F6060029A1C0F6060340F263420FF03C
:1049600019FADDF82CB06568504601F0E7FC96F8BE
:104970002C10E88006290FD04BF65C304CF24571C4
:104980004CF2A373C0F60600C0F60601C0F606039B
:1049900040F26A420FF0FEF9B8882146A8813868D3
:1049A00040F60607A860DBF800004A46C5F812008A
:1049B000BBF804004346E8820A980068C5F80E0078
:1049C0000C980068A86140F20010C0F2080028604E
:1049D00040F20640A8803046009700F059F9204682
:1049E00005F006FA002040B201B0BDE8F08F00BF2C
:1049F000FF2040B201B0BDE8F08F00BF636865637F
:104A00006B207468617420666972737420706275BB
:104A1000662063616E20686F6C64207374727563C6
:104A200074206574686172705F68647200000000D1
:104A300080B584B047F2324E021DC0F6010E00F17F
:104A40002603CDE9002E47F22C424FF0010C0291D3
:104A5000C0F601021946CDF80CC0FFF74FFF04B0B5
:104A600080BD00002DE9F04F85B040F2984647F236
:104A7000324947F22C440025C2F200064FF00108EB
:104A8000C0F60109C0F601044FF0020B002704E054
:104A90008AF814501837F02F3AD006EB070A9AF824
:104AA00014000028F6D0BAF812104A1C91B28B08F4
:104AB0004A2BAAF8122003D8012809D1052907D3C7
:104AC000F0590028E4D005F093F9F551E0E700BF74
:104AD000012807D0042817D0032804BF04208AF82F
:104AE0001400D7E7DAF808000AF1040200F1260101
:104AF000031DCDE90039029222460B46CDF80C8009
:104B0000FFF7FCFEC6E700BF8AF814B0C2E700BF9B
:104B100005B0BDE8F08F000070B5044640890F284D
:104B20003DD3E07B0D4618B995F830000130E073B5
:104B3000606801788689CA0714D0012906D14178B6
:104B400081B980785E280DD1102008E047F22C4111
:104B5000C0F601010622FBF7CEFB18B90820617BE5
:104B600008436073B6F5C16F10D0082E17D195F8C1
:104B70002D00000713D520460E2105F041FB70B92A
:104B80002046294600F0E4FC002070BD95F82D0079
:104B9000000704D520460E2105F032FB20B1204647
:104BA00005F026F9002070BD20462946FFF740FB9E
:104BB000002070BD704700009AB00DF1040A044651
:104BC00050466421FBF779FB40F26800C2F2000016
:104BD00040F290574FF0000800F10C06C2F20007B7
:104BE0000FF29C0900254FF0000B0BE03846FCF754
:104BF00069FB204604F0E2F9204604F011FA642033
:104C000004F0BAFA3046FDF7A5FA94F82D1011F029
:104C1000040101D00128E9DD0029F0D10228EEDBF2
:104C20000238042806D212A151F820B059F82050B9
:104C300003E000BFB8F1000F16D038465146FBF72D
:104C40005BFD38465146CDE9065BFCF779F93846FD
:104C5000FCF72EFA204604F05BFA204604F010FA26
:104C60004FF00108CBE700BF4FF00008C7E700BFD7
:104C70000008000000000000000800000000000024
:104C800000400000004000000000000000000000A4
:104C90002DE9F0410C460699804608461F46164607
:104CA00001F04CFB054620460E2104F071FD002862
:104CB0001CBF6FF00100BDE8F08160688581B98894
:104CC000818039680160B18841813168C0F806107F
:104CD00098F82C00062809D04BF65C30C0F6060088
:104CE00006A113A340F233120FF054F8D8F818209D
:104CF00040462146BDE8F041104700BF6E6574692B
:104D0000662D3E6877616464725F6C656E206D75B8
:104D10007374206265203620666F72206574686542
:104D2000726E65745F6F7574707574210000000099
:104D30002E2E2F4D6964646C6577617265732F54F4
:104D4000686972645F50617274792F4C7749502F93
:104D50007372632F6E657469662F65746865726E11
:104D600065742E63000000002DE9F041A4B00446F4
:104D700030B971A07AA17EA34FF4F2720FF00AF855
:104D800047F27340E08544F2AD3046F21911C0F6A7
:104D90000000C0F60001C4E9050102A86421FBF788
:104DA0008CFA48F2000140F2905648F20000CAF630
:104DB000E131C2F20006C4F20200CDF802104EF654
:104DC000CD7140F2A03340F20037ADF806100DF17E
:104DD00002014FF40002C2F20003C2F200074FF4D6
:104DE000C06586E88F0030467561FBF74DFD40F2E7
:104DF0006807C2F20007054607F130003421FBF7CF
:104E00005CFA2120F8624FF4400038644BF6B4207D
:104E1000C0F6060003F0A8F80620716884F82C009C
:104E20000878002284F826004878002684F82700B5
:104E3000887884F82800C87884F82900087984F8EC
:104E40002A00487994F82D1084F82B0040F2DC50A9
:104E5000A08441F00A0084F82D000120012104F013
:104E6000B1FB786001200121002204F0ABFBB860A7
:104E700046A01B904FF4AF70CDE922662090302001
:104E8000219044F6AD70C0F600001BAA2146CDE982
:104E90001C66CDE91E6604F023FC07F10C0640F207
:104EA0001401C2F200013046FDF720FA3046FDF74A
:104EB000A9F92DB1FBF7F2FB002024B0BDE8F08189
:104EC0003046FDF747F901280ADC204604F0A8F82F
:104ED000204604F073F8002024B0BDE8F08100BF44
:104EE0000338022806D82BA151F820602CA151F8D4
:104EF000207003E04FF480474FF4006640F2905575
:104F0000C2F200050DF1080828464146FBF7F4FB04
:104F100028464146CDE90776FCF712F82846FCF70B
:104F2000C7F8204604F0F4F8204604F0A9F8002061
:104F300024B0BDE8F08100BF417373657274696F7E
:104F40006E2022257322206661696C65642061747D
:104F5000206C696E6520256420696E2025730A0027
:104F60006E6574696620213D204E554C4C00000052
:104F70002E2E2F4C5749502F5461726765742F6540
:104F8000746865726E657469662E6300457468495D
:104F900066000000000000000008000000000000A3
:104FA00000400000000000000000000082B040F25D
:104FB000680540F290580446C2F200050026C2F28D
:104FC00000080DF1040900BF68684FF0FF3104F0DC
:104FD000ADFA0028F8D107E022693846214690470B
:104FE00010B1384604F004FF287801960028EBD170
:104FF00040464946FBF716FE019F002FECD1E3E740
:1050000080B582B0019040F24060C2F2000001A978
:1050100001224FF0FF33FCF757FF019802B080BD2B
:105020000A46032100F0EEB82DE9F04383B040F2C8
:105030008466C2F20006B568894629783C2202EAF5
:105040008107142F044602D36089042806D2204623
:1050500003B0BDE8F04304F0CBBE00BF6068007849
:1050600008283FD1706900F0F001E029EFD03168E5
:1050700000F026F90028EAD120890828E7D307F1B3
:105080000E082046414604F083FB98B3208938443B
:1050900081B28142DBD10E204FF4207204F0AEFBCE
:1050A0000028D4D08046408907F10801814266D8A3
:1050B000D8F8040029463A46FBF7D8F84046394666
:1050C00005F09EF8002855D04BF65C304CF2DA73B0
:1050D000C0F6060030A1C0F60603B6220EF05AFE56
:1050E0004DE000BFA046404603B0BDE8F04304F0E9
:1050F0007FBE00BF2046414605F082F890B14BF6D6
:105100005C304CF2DA73C0F6060031A1C0F606033B
:10511000C7220EF03FFE204603B0BDE8F04304F086
:1051200067BE00BFA046D8F804404046394604F0A8
:105130002FFB0028D7D156F8140FD8F8041056F8D2
:10514000042CC8600A610020FF220A7248810121F4
:1051500020706080CDE90001404631460022FF23E7
:10516000CDF8089000F0CEFA404603B0BDE8F04319
:1051700004F03EBE4046214604F0DCFC40B140460F
:1051800004F036FE204603B0BDE8F04304F030BE24
:10519000204604F02DFEC6E769636D705F696E708E
:1051A00075743A206D6F76696E6720722D3E70615E
:1051B000796C6F616420746F2069636D702068651D
:1051C00061646572206661696C65640A00000000B4
:1051D00069636D705F696E7075743A20726573747F
:1051E0006F72696E67206F726967696E616C20709B
:1051F0002D3E7061796C6F6164206661696C6564D5
:105200000A0000002DE9F04184B090460E460746A2
:10521000222024214FF4207204F0F0FA90B30446C7
:10522000408923280CD84BF65C304CF2DA73C0F678
:10523000060016A1C0F6060340F269120EF0AAFDA0
:1052400065687F682E70002605F1080039461C222B
:1052500085F801806E60FBF709F8F868039003A8F1
:1052600000F00AFE58B1074601206E80CDE90060CB
:1052700003AA20460021FF23029700F043FA2046AC
:1052800004F0B6FD04B0BDE8F08100BF636865635B
:105290006B20746861742066697273742070627523
:1052A000662063616E20686F6C642069636D702096
:1052B0006D657373616765000A460B21FFF7A2BF36
:1052C000421C022A3CBF0120704791F82D20920712
:1052D00002D54A68824201D1002070478968424065
:1052E000114205D1CA438843904204BF0120704750
:1052F000002070472DE9F04F8FB0D0F804B004467D
:105300009BF8000000F00F00052840F0D180608974
:10531000132840F2D380BBF80600B1F8248017466A
:105320000D4601F00BF82189A1F11402110400F0DF
:10533000D780A8F1140101EB5171C91000F400539A
:105340006FF35F300C90C800CDE9075785B24FF07E
:1053500014084FF0000A05930691CDE903B50B92AE
:1053600097B20E2014214FF42072BD420A9738BF25
:105370002F4604F043FA002800F0BF80064640891B
:1053800013280CD84BF65C304CF64F03C0F60600E1
:1053900063A140F22532C0F606030EF0FBFC7068F4
:1053A00059461422FAF762FF7068CDE90D7609902C
:1053B0001FB947E024684FF0000866891FFA88F596
:1053C000AE420CD24BF65C304CF64F03C0F60600F2
:1053D0005BA140F22D32C0F606030EF0DBFCA6EB1B
:1053E0000800B9B21FFA80FA514538BF8A46BAF1AF
:1053F000000FDFD0052002F0FFFD00287AD08146A3
:105400006068514628440090002041224B46CDF868
:1054100004A004F0CBFA002868D08346204604F0AC
:10542000CDFE46F2D500C0F60000C9E904040E988E
:10543000594604F0DBFAA7EB0A073804BAD1DDF8C5
:105440000CB00D9FDDF81C900C9DB9F82400059B55
:10545000A0F1140128466FF35F3000F50052002BD5
:1054600018BF10460A9BD0449942B8BF104600F0BE
:1054700065FF099EF08007F1140080B200F05EFF26
:105480000027708077810E9ED9F81430089A48461C
:1054900031469847304604F0ABFC0B9A0D98121A2F
:1054A0001004069805440C95049D7FF458AF00E065
:1054B000FA2778B20FB0BDE8F08F00BF4BF65C3032
:1054C0004CF64F03C0F606000EA1C0F606034FF4DB
:1054D0003F720EF05FFCFA2778B20FB0BDE8F08F94
:1054E000002778B20FB0BDE8F08F00BF0520494615
:1054F00002F0FCFA0E9804F07BFCFF2778B20FB0A4
:10550000BDE8F08F6970345F6672616728293A20C0
:105510007062756620746F6F2073686F727400001C
:1055200074686973206E65656473206120706275AC
:105530006620696E206F6E65207069656365210065
:10554000702D3E6C656E203E3D20706F66660000DB
:105550002DE9F047456804462A7802F0F00040281B
:1055600073D168880E463C2101EA820A00F0E6FE0B
:1055700021890746884203D22046394604F092FD2D
:105580006089504561D3208987425ED8BAF1130FF4
:105590005BD9E968286940F28469C2F2000996F88B
:1055A0002D20C9E9041000F0F001E02902F001010A
:1055B00004D1A9BB4FF0000838E000BF59B17168B1
:1055C00049B18842B04631D03146FFF779FEB04646
:1055D00060BB99F81400C0B27F284FF0000825D0B6
:1055E00040F27020C2F20000076827B91EE000BF39
:1055F0003F68002FDED0B7421CBF97F82D005FEA4E
:10560000C070F5D079680029F2D0D9F8140088422A
:1056100004D03946FFF754FE0028E9D0B84605E02B
:105620007068B046002808BF4FF00008D9F8100095
:105630003146FFF745FE40B9D9F8100000F0F00000
:10564000E02818BFB8F1000F06D1204604F0D0FBC7
:105650000020BDE8F08700BFE8886FF0C001084275
:1056600006D0204600F008F9002847D045680446D7
:1056700028783C2101EA8000A9F80C002046514618
:10568000C9E90086C9F8085004F0BAFD687A012813
:1056900008D006280CD0112810D1204631460CF035
:1056A00075FA22E020463146FFF7BEFC1DE000BF40
:1056B0002046314607F0E0FD17E000BFD9F814009E
:1056C0004146FFF7FDFD68B9D9F8140000F0F0007D
:1056D000E02807D02046514604F068FC204602210D
:1056E000FFF79EFC204604F083FB0020C9E904007C
:1056F000C9E90000C9F80800A9F80C000020BDE8BD
:10570000F0870000B0B584B0DDF828C0DDE9084EB0
:1057100042B129B10D68002D08BF0CF1040101E070
:105720000CF10401CDE9004ECDF808C000F002F8FC
:1057300004B0B0BD2DE9F04782B00446807B1F461F
:105740001546012888460FD04BF65C304CF60F0109
:105750004CF61B03C0F60600C0F60601C0F60603B1
:105760004FF455720EF016FB55B12046142104F08B
:105770000FF868B1FE2040B202B0BDE8F08700BF6C
:105780006089142844D2FE2040B202B0BDE8F08700
:105790006089DDE90A9A666813280CD84BF65C30FC
:1057A0004CF61B03C0F6060027A1C0F6060340F224
:1057B00089320EF0EFFA2868377230614520307078
:1057C000208986F809A086F8019000F0B7FD40F224
:1057D0009C67C2F20007708038884FF00009A6F875
:1057E000069000F0ABFD4BF65021C0F60601B080EC
:1057F0003888B8F1000F18BF414609680130388079
:10580000F160A6F80A900C99888C40B912E000BFAC
:10581000606801AD006901900C99888C50B12289B3
:10582000824207D920462A46FFF764FD40B202B003
:10583000BDE8F0874B69084621462A46984740B2A2
:1058400002B0BDE8F08700BF636865636B207468D1
:10585000617420666972737420706275662063617A
:105860006E20686F6C642073747275637420697045
:105870005F686472000000002DE9F04F85B0D0F839
:105880000490054699F8000000F00F00052840F04C
:105890007081B9F8060000F051FDB9F80210044615
:1058A000084600F04BFD064699F800003C2101EA4D
:1058B0008007BE42C0F05D81284604F001F940F245
:1058C000B822C2F200021188049008440A28039505
:1058D00044D9D2F804B04FF000080296CDE9004751
:1058E000BBF1000F3ED0D9F80C204FF0000A002188
:1058F000002700205E460CE00AF1010AC0B1F57FE6
:10590000C47FA5429CBF30463946336837461E46A1
:1059100093B175699542EFD1B569D9F81040A542A8
:10592000EAD1B589B9F80440A542E5D1EDE700BF59
:1059300030463946E9E700BF40B100F0D7FA40F2FF
:10594000B821C2F20001D1F804B080440498804527
:105950000ADABAF1010FC3DC06E000BFD2F804B0E6
:1059600014E000BF4FF0000BDDE90265DDE9004700
:10597000B8F1000F00F0FD8040F2B820C2F2000044
:105980000088049908440A2800F2F380BBF1000F54
:1059900024D0D9F80C0004E0DBF800B0BBF1000F14
:1059A0001CD0DBF814108142F6D1DBF81810D9F8BE
:1059B00010209142F0D1BBF80C10B9F804209142AC
:1059C000EAD1B9F8060000F0B9FCC00427D1BBF851
:1059D0000E0000F0B3FCC0041BD120E0042002F054
:1059E0000BFB8346002873D0002040F2B822CBE99D
:1059F0000100C2F200025168CBF81C00CBE905009F
:105A0000CBE903000F208BF81F00CBF80010C2F881
:105A100004B00BF1080049461422FAF727FCB9F844
:105A200006004FEAC40910F02000A6EB070A029016
:105A30000AD11FFA8AF010FA89F188B2884221D17E
:105A40004FF6EB7188421DD803984568688800F0CE
:105A500075FC29783C2202EA8102904212D3E9883F
:105A6000841A084600F06AFCC10003988BB24068B3
:105A70000022026013FA84F295B295428180C280BE
:105A800000F08080DBF80400039D002871D140F213
:105A9000B824C2F200046068834511D04BF65C3034
:105AA0004CF64F03C0F606000FF2AC31C0F6060309
:105AB00040F2AB220EF06EF96068584540F09481D8
:105AC000DBF8000059466060042002F00FF850E057
:105AD00040F2B82AC2F2000ADAF804C0A3464FF036
